:020000040800F2
:10000000A84F00205D0200089B1C0008EF1A0008A2
:10001000991C00088D030008252500080000000039
:100020000000000000000000000000009D0100082A
:100030009D03000800000000F9010008812000086D
:1000400077020008770200087702000877020008AC
:10005000770200087702000877020008770200089C
:10006000770200087702000877020008770200088C
:10007000770200087702000877020008770200087C
:10008000770200087702000877020008770200086C
:100090009103000877020008770200087702000841
:1000A000770200087702000877020008770200084C
:1000B0003D21000877020008770200087702000857
:1000C000770200087702000877020008770200082C
:1000D00077020008ED240008770200087702000884
:1000E000770200087702000877020008770200080C
:1000F00077020008770200087702000877020008FC
:1001000077020008770200087702000877020008EB
:1001100077020008770200087702000877020008DB
:1001200077020008770200087702000877020008CB
:1001300077020008770200087702000877020008BB
:1001400077020008770200087702000877020008AB
:10015000770200087702000877020008770200089B
:10016000770200087702000877020008770200088B
:1001700077020008770200087702000800000000FC
:100180007702000877020008DFF80CD000F0ECF8E6
:100190000048004705270008A84F00202C4B19688D
:1001A0000868B0E8F04F80F30988BFF36F8F4FF015
:1001B000000080F3118870470000000008480068C4
:1001C000006880F308884FF0000080F3148862B65E
:1001D00061B6BFF34F8FBFF36F8F00DF00BF00BF6B
:1001E00008ED00E0DFF80C00016841F470010160E7
:1001F000704700BF88ED00E0EFF30980BFF36F8F19
:10020000134B1A681EF0100F08BF20ED108A20E96A
:10021000F04F106009B44FF0500080F31188BFF325
:100220004F8FBFF36F8F03F061F94FF0000080F341
:10023000118809BC19680868B0E8F04F1EF0100F6B
:1002400008BFB0EC108A80F30988BFF36F8F704746
:1002500058000020EFF305807047000006488047F3
:1002600006480047FEE7FEE7FEE7FEE7FEE7FEE79B
:10027000FEE7FEE7FEE7FEE72D2100088901000802
:100280002DE9F05F0546002092469B4688460646CB
:10029000814640241BE0284641464746224600F05E
:1002A00053F853465A46C01A914110D31146184686
:1002B000224600F03AF82D1A67EB01084F46224615
:1002C0000120002100F031F817EB00094E41201EFB
:1002D000A4F10104DFDC484631462A464346BDE826
:1002E000F09F40EA01039B0703D009E008C9121FF1
:1002F00008C0042AFAD203E011F8013B00F8013BE0
:10030000521EF9D27047D2B201E000F8012B491E0B
:10031000FBD270470022F6E710B513460A460446A2
:100320001946FFF7F0FF204610BD202A04DB203AD3
:1003300000FA02F1002070479140C2F1200320FA38
:1003400003F3194390407047202A04DB203A21FA36
:1003500002F00021704721FA02F3D040C2F12002DE
:100360009140084319467047064C074D06E0E06887
:1003700040F0010394E8070098471034AC42F6D3EC
:10038000FFF706FF2440000844400008FEE7000095
:10039000014800F078B90000DC000020704772B618
:1003A000FEE790F82020012A07D0022A05D0416AF2
:1003B00041F48021416201207047006842690A438C
:1003C000426100207047F0B590F820500468A4689E
:1003D000012D05D0022D03D0416A41F4802153E064
:1003E00014F0406F01D1E5004BD5C4F30164022C39
:1003F00003D9416A41F4000146E00125A5401D6092
:100400008B684FF4C0759BB1CE6833434E6843EAA6
:10041000C603066805EB0417F3514FF4C27307686F
:1004200003EB04130E69FE50097D012905D009E094
:100430000E88CB6843EA4653EBE70168CE5846F492
:100440008076CE501179D2F805304FF4C67641EA65
:100450000323016806EB04168B511178D2F80120B2
:100460004FF4C47341EA0221026803EB0413D15034
:10047000006805EB0411425842F00102425000208E
:10048000F0BD416A41F4001141620120F0BD00005D
:1004900010B590F82020012A07D0022A05D0416A21
:1004A00041F480214162012010BD3B48D0F8002278
:1004B00042F00102C0F80022D0F8002222F47C525F
:1004C000C0F80022D0F800224B6A42EA0322C0F8AA
:1004D00000220A7D02F01F0301229A40D0F81C324C
:1004E0009343C0F81C32CB69B3B9D0F80C329343B4
:1004F000C0F80C328C894B6864F31F434C6900EBE5
:10050000C404C4F840320C890B6864F31F434C697F
:1005100000EBC404C4F84432CB69012B16D1D0F8E7
:100520000C321343C0F80C320C884B6864F31F4341
:100530004C6900EBC404C4F840320C89CB6864F306
:100540001F434C6900EBC404C4F844328B69002B90
:10055000D0F804320ED01343C0F804320B69002BDC
:10056000D0F8143208D01343C0F81432096A0129B4
:1005700004D008E09343EFE79343F5E7D0F81C126B
:100580001143C0F81C12D0F8001221F00101C0F88C
:100590000012002010BD000000640040704730B51C
:1005A00090F82040012C05D0022C03D0416A41F480
:1005B00080215DE00468002955D02469A40754D047
:1005C0004FF4D874056804EB01142D5915F0040597
:1005D000956005682D594ED0ED08556005682C5979
:1005E00004F00204D4604FF4DA74056804EB0114DB
:1005F0002D5905F00F05156105682D59C5F307251F
:10060000956105682C59240C54614FF4DC72046820
:1006100002EB0112A4581C700468A458240A5C70F0
:100620000468A458240C9C700468A258120EDA7056
:100630004FF4DE72046802EB0112A4581C710468C6
:10064000A458240A5C710468A458240C9C710468A2
:10065000A258120EDA71006881B1016941F02001DF
:100660000161002030BDE468A8E7416A41F400114F
:100670004162012030BD6D0D1560AFE7C16841F0EA
:100680002001C160EDE72DE9F05F05460068002418
:100690004669D0F804908768D0F80CB0D0F810A064
:1006A000D0F81880F10748D0F90714D001218160F3
:1006B000B80703D5284600F0F0F90CE0780702D51A
:1006C0004FF4006407E0380702D54FF4805402E08D
:1006D000284600F0E1F9F80516D529684FF4807036
:1006E0008860B80503D5284600F0D9F90CE07805F4
:1006F00002D544F4005407E0380502D544F48044A0
:1007000002E0284600F0CAF9F80316D529684FF42C
:1007100080308860B80303D5284600F0C2F90CE0A9
:10072000780302D544F4004407E0380302D544F4CA
:10073000803402E0284600F0B3F9300707D55FEABD
:10074000CB6004D52968102044F40074C860700799
:100750004FF0080707D55FEA0B7004D52868C7601B
:10076000284600F059F9B00706D52868C068800708
:1007700002D0284600F052F9700607D55FEACA6039
:1007800004D52968102044F480640861B00607D5B8
:100790005FEA0A7004D528680761284600F04EF920
:1007A000F00606D528680069800702D0284600F0C8
:1007B00046F9B00308D55FEAC96005D5296810205D
:1007C0004860284600F03CF9F00307D55FEA09705D
:1007D00004D528684760284600F064F9300446D5FF
:1007E0005FEA497040D5F00504D55FEAC87001D0D2
:1007F00044F00104B00504D55FEA887001D544F0E7
:100800000204700504D55FEA487001D544F0040481
:10081000300529D518F0700F26D008F07000402858
:1008200015D006DC102809D020280AD0302816D18F
:100830000AE050280ED0602811D10EE044F00804E0
:100840000DE044F010040AE044F0200407E044F016
:10085000400404E044F0800401E044F4807428681B
:10086000816921F070018161296804204860002CB1
:1008700005D0686A204368622846FFF78FFEBDE80E
:10088000F09F70B5040003D094F8200010B104E08C
:10089000012070BD204600F081F82068016841F019
:1008A0000101016000F048FA0546052604E000F069
:1008B00043FA401B0A2811D820684068C007F6D0C8
:1008C0002068016821F00201016000F035FA054658
:1008D0000BE000F031FA401B0A2806D9606A40F4A8
:1008E0000030606284F82060D2E7206840688007AA
:1008F000EFD4207E0128206801683DD021F08001DE
:100900000160607E01282068016838D021F0400134
:100910000160A07E01282068016833D021F0200109
:100920000160E07E0128206801682ED041F01001AE
:100930000160207F01282068016829D021F008018A
:100940000160607F01282068016824D021F0040143
:100950000160D4E902010843D4E9041211430843B9
:100960006168491E08432168C86100206062012057
:1009700084F82000002070BD41F08001C0E741F004
:100980004001C5E741F02001CAE721F01001CFE79F
:1009900041F00801D4E741F00401D9E710B586B071
:1009A000044614216846FFF7B5FC184920688842C0
:1009B00029D117480021026842F0007202600068E5
:1009C00000F00070059012481038026842F00102F1
:1009D0000260006800F0010005904FF4C0500090E4
:1009E0000220CDE90101032003900920049069460B
:1009F000084800F0B3F800220521142000F03AFA6C
:100A0000142000F029FA06B010BD00000064004078
:100A100040380240000002407047000000B587B037
:100A2000054B6A460021FFF7BAFD0349684601F00D
:100A300033FE07B000BD00001C0000207047704767
:100A4000704770B5044690F82000012804D0606A11
:100A500040F40020606217E0022084F82000206843
:100A6000016821F00101016000F066F905460DE022
:100A700000F062F9401B0A2808D9606A40F400308F
:100A80006062052084F82000012070BD2068406865
:100A9000C007EDD1606270BD704770477047704706
:100AA0007047704770472DE9F0410446876D00F0AC
:100AB00043F9054694F835000026022806D0802028
:100AC000606584F834600120BDE8F0812068016829
:100AD00021F0160101602068416921F08001416127
:100AE000206C08B9A06C20B12068016821F00801D1
:100AF00001602068016821F0010101600CE000F054
:100B00001BF9401B052807D920206065032084F8C5
:100B1000350084F83460D7E720680068C007EED15C
:100B200094F85C103F208840B860012084F83500BC
:100B300084F834600020C7E790F83510022903D00C
:100B40008021416501207047052180F8351000683B
:100B5000016821F001010160002070472DE9F84F84
:100B6000DFF89C910022A9F1040B03274FF00F0C32
:100B700009F1040AABF1040E01250B6895402B40E6
:100B8000AB426ED10C7904F00304012C01D0022C8D
:100B900015D18668540007FA04F826EA0806D1F849
:100BA0000C8008FA04F848EA0608C0F8088044688F
:100BB000AC430D79C5F300159540254345600C798C
:100BC000E443A40708D0C568540007FA04F6B54307
:100BD0008E68A6402E43C6600C7904F00304022CF4
:100BE00011D1D40800EB8406356A5407E40E0CFAE0
:100BF00004F825EA0805D1F8108008FA04F848EA54
:100C00000508C6F820800568540007FA04F6B543C5
:100C10000E7906F00306A6402E4306604C6814F4D5
:100C2000403F66D0374C256845F4804525602468F0
:100C300022F0030504F480440094334C05EB0408CF
:100C4000D8F808589407260F0CFA06F4A5432F4C41
:100C5000A04201D1002424E02D4CA04202D1012465
:100C60001FE046E02B4CA04201D1022419E02A4C9F
:100C7000A04201D1032414E0284CA04201D1042455
:100C80000FE0274CA04201D105240AE0254CA042E8
:100C900001D1062405E0244CA04201D1072400E044
:100CA0000824B4402C43C8F80848D9F800404D4601
:100CB0004E689C43F60200D51C432C60DAF80040D5
:100CC00055464E689C43B60200D51C432C60DBF8A9
:100CD00000405D464E689C43B60300D51C432C6023
:100CE000DEF8004075464E689C43F60300D51C4371
:100CF0002C60521C102AFFF43FAFBDE8F88F0000B3
:100D0000083C0140443802400030014000000240ED
:100D10000004024000080240000C024000100240A3
:100D20000014024000180240001C02400AB1816118
:100D300070470904FBE70000014880687047000025
:100D40000C000020024881680278114481607047DD
:100D50000C0000200B4810B5016841F400710160DF
:100D6000016841F480610160016841F480710160B3
:100D7000032000F09FF80F2000F006F800F050F874
:100D8000002010BD003C024030B50546204887B029
:100D90000024016841F001010160006806A900F02B
:100DA00001000590684600F031F90398B0B100F0F9
:100DB0004DF9400017494FF08042B0FBF1F1164861
:100DC000491E026040F2E732C0E90324C0E9011481
:100DD000846100F039FB040003D015E000F036F91F
:100DE000E8E70D4800F05EFB04000DD11C2000F088
:100DF00033F8102D07D2002229461C2000F03AF8C3
:100E00000648056000E0012407B0204630BD000020
:100E10004038024040420F004801002010000020EE
:100E20000C4882B0016841F480410160006800F420
:100E3000804000900748001F016841F08051016028
:100E40000068002200F0805000900F21901E02B038
:100E500000F010B844380240002809DB00F01F02FF
:100E6000012191404009800000F1E020C0F800110C
:100E700070470000F0B40E4B1B68C3F30223C3F1AC
:100E80000704042C00D904241D1D072D01D20023C2
:100E900000E0DB1E012606FA04F56D1E0D409D40A4
:100EA0009E40761E164045EA0601F0BC01F0B8BB34
:100EB0000CED00E0064A00F0070110684FF6FF0352
:100EC000184040EA012003490843106070470000C1
:100ED0000CED00E00000FA052DE9F0470D46040096
:100EE00065D0DFF81491D9F80000EFB200F00700E8
:100EF000A84207D289F80070D9F8000000F0070076
:100F0000A84254D120683D4E810712D5400703D531
:100F1000306840F4E05030602078000703D5306836
:100F200040F4604030603068A16820F0F000084371
:100F300030602078C0072DD030496068083901281A
:100F400012D0022813D0032811D00968890700297C
:100F50002DDA316821F0030101433160FFF7ECFE27
:100F6000804641F2883A0EE009688903EFE7096894
:100F70008901ECE7FFF7E0FEA0EB0801514502D93B
:100F80000320BDE8F0873068616800F00C00B0EB2A
:100F9000810FEFD1D9F80010484601F00701A942AE
:100FA00007D90770006800F00700A84201D00120AF
:100FB000E7E72078400705D53068E16820F4E05085
:100FC000084330602078000706D53068216920F496
:100FD000604040EAC100306000F058F83168084ACB
:100FE000C1F30311515CC840064908600648006817
:100FF000FFF7CAFE0020C4E7003C02400838024068
:10100000E43F000818000020100000200F220260BA
:101010000C4A136803F003034360136803F0F00302
:101020008360136803F4E053C36012684FF4E05325
:1010300003EAD20202610448006800F00700086079
:101040007047000008380240003C0240044805494F
:1010500000680968044AC1F38221515CC8407047A6
:101060001800002008380240F43F000804480549F1
:1010700000680968044AC1F34231515CC8407047B6
:101080001800002008380240F43F0008154810B549
:10109000006810F00C01144813D0431004290FD03D
:1010A00008290ED10F4C241F216801F03F0221684E
:1010B000490207D52068C0F38810A0FB030106E0B1
:1010C000184610BD2168C1F38811A1FB000100235F
:1010D000FFF7D6F82168C1F30141491C4900B0FB74
:1010E000F1F010BD083802400024F4002DE9F84F5B
:1010F000040075D02078DFF838A3C007AAF10405F2
:1011000048D00AF104000168C1F38101012908D027
:101110000068C0F3810002280AD1DAF8000040021A
:1011200006D52868800335D560680028E1D031E015
:101130006068B0F5803F10D0B0F5A02F286810D0BF
:1011400020F480302860286820F4802028606068BF
:10115000A0B1FFF7F1FD06460CE0286840F48030AE
:10116000F4E740F480202860F7E7FFF7E5FD801BF7
:10117000642871D828688003F7D50BE0FFF7DCFD01
:10118000064604E0FFF7D8FD801B6428F1D82868E4
:101190008003F7D42078DFF89C9280074FF0000B93
:1011A0003DD5A348001D016811F00C0F08D0006860
:1011B000C0F3810002280AD1DAF80000400206D408
:1011C0002868800715D5E068012809D111E0E0689A
:1011D000B8B10120C9F80000FFF7AEFD064605E0F2
:1011E00022E1FFF7A9FD801B0228C2D828688007EA
:1011F000F7D52868216920F0F80040EAC10028608E
:101200000DE0C9F800B0FFF797FD064604E0FFF7D0
:1012100093FD801B02281FD828688007F7D4207808
:10122000000722D5824F84486169703771B101216E
:101230000160FFF781FD064604E0FFF77DFD801B9E
:10124000022809D838688007F7D50EE0C0F800B04A
:10125000FFF772FD064605E082E0FFF76DFD801B9B
:1012600002287DD838688007F7D42078400765D5F4
:101270006F484FF000083C300068C0000BD46C4849
:101280003C30016841F08051016000684FF0010876
:1012900000F080500090694F3868C0050FD438685E
:1012A00040F480703860FFF747FD064604E0FFF722
:1012B00043FD801B022853D83868C005F7D55C4F22
:1012C000A0686C3701280FD00528386810D020F0AE
:1012D00001003860386820F004003860A068B0B1C0
:1012E000FFF72AFD06460EE0386840F00100F4E7FB
:1012F00040F004003860F7E7FFF71EFD811B41F264
:101300008830814263D838688007F5D50DE0FFF753
:1013100013FD064606E0FFF70FFD811B41F2883002
:10132000814254D838688007F5D4B8F1000F05D051
:101330003F483C30016821F080510160A069B8B39A
:101340003B49091D0968C1F38101022946D00228E1
:10135000584606D0C9F86000FFF7EEFC044639E0B5
:1013600035E04F46C9F86000FFF7E6FC064604E0AA
:10137000FFF7E2FC801B022829D828688001F7D4F7
:10138000D4E907010843A16A2D4A490802EB01414B
:10139000626A41EA8211084394F82C1040EA016124
:1013A000CAF8001001203866FFF7C6FC044605E0C5
:1013B0003CE0FFF7C1FC001B022808D82868800128
:1013C000F7D533E0FFF7B8FC001B022802D9032051
:1013D000BDE8F88F28688001F4D427E00128F7D011
:1013E000DAF80000E26900F4800191421CD1226A1F
:1013F00000F03F01914217D147F6C071626A014087
:10140000B1EB821F10D1A26A4FF0FF3300F44031DC
:1014100003EB5202B1EB024F06D194F82C1000F00E
:101420007060B0EB016F01D00120D1E70020CFE761
:101430000438024000004742800E474200700040DE
:101440000000FFFF7047704710B5040003D094F808
:101450003D0010B107E0012010BD002084F83C00E1
:10146000204600F01EF8022084F83D00211D20686F
:1014700000F06AFE012084F8460084F83E0084F8FB
:101480003F0084F8400084F8410084F8420084F86A
:10149000430084F8440084F8450084F83D000020AF
:1014A00010BD704790F83D10012901D00120704710
:1014B000022180F83D100168CA6842F00102CA604A
:1014C00000681149884214D0B0F1804F11D00F4903
:1014D00088420ED00E4988420BD00E49884208D06F
:1014E0000D49884205D00D49884202D00C498842F6
:1014F00004D1816801F00701062903D0016841F099
:10150000010101600020704700000140000400401C
:1015100000080040000C0040000401400040014071
:1015200000180040704770B50446006801694FF02C
:101530000005C943890715D4C168C943890711D477
:10154000E91E01610120207720688069800720461C
:1015500002D0FFF7E7FF04E000F098F8204600F023
:1015600096F8257720680169C943490717D4C168EF
:10157000C943490713D46FF00401016102202077A9
:101580002068806910F4407F204602D0FFF7CAFF30
:1015900004E000F07BF8204600F079F82577206819
:1015A0000169C943090716D4C168C943090712D4A0
:1015B0006FF008010161042020772068C06980076E
:1015C000204602D0FFF7AEFF04E000F05FF82046AF
:1015D00000F05DF8257720680169C943C90617D472
:1015E000C168C943C90613D46FF010010161082016
:1015F00020772068C06910F4407F204602D0FFF7B2
:1016000091FF04E000F042F8204600F040F8257712
:1016100020680169C943C90708D1C168C943C9071E
:1016200004D1891E0161204600F032F8206801696A
:10163000C943090609D4C168C943090605D46FF036
:10164000800101612046FFF7FDFE20680169C94362
:10165000490609D4C168C943490605D46FF0400161
:101660000161204600F01BF820680169C943890622
:101670000BD4C168C943890607D46FF0200101610A
:101680002046BDE87040FFF7DEBE70BD7047704772
:101690000068B0F1804F01D1FFF754BB704770472D
:1016A00070477047F8B5016804460868CA684B6916
:1016B00010F00F0F4FF0000559D003F0010602F4AF
:1016C0009077374365D0C10705D0D10503D5216C8C
:1016D00041F001012164410705D5D90703D0216CF0
:1016E00041F002012164810705D5D90703D0216C9F
:1016F00041F004012164010707D502F020013143C4
:1017000003D0216C41F008012164216C00293AD0FA
:10171000800604D5900602D5204600F0A8FD20687A
:101720004069216CC0F38010090700D460B32046E3
:1017300000F076FD20684069400621D5206814300D
:1017400050E8001F21F0400140E80012002AF5D1C6
:10175000A06BA8B16C490165A06BFFF7EDF90028FB
:1017600011D0A06B016D01B0BDE8F04008478306C1
:101770000FD593060DD52046BDE8F84000F077BDA3
:101780002046FFF78EFFF8BD2046FFF78AFF25644D
:10179000F8BD266B2023012E79D1C60677D5D60653
:1017A00075D50868486800904869400640D5A16B27
:1017B000086840680004000CEAD0A28D8242E7D994
:1017C000E085C869B0F5807F2DD020680C3050E8E6
:1017D000001F21F4807140E80012002AF5D1206832
:1017E000143050E8001F21F0010140E80012002AE7
:1017F000F5D12068143050E8001F21F0400140E886
:101800000012002AF5D184F83E30256320680C30A0
:1018100050E8001F21F0100140E80012002AF5D125
:10182000A06BFFF740F9A08DE18D401A81B229E04D
:10183000A08DE18D401A81B2E08D0028A8D000294A
:10184000A6D020680C3050E8002F22F4907240E8B7
:101850000026002EF5D12068143050E8002F22F029
:10186000010240E80026002EF5D184F83E302563C1
:1018700020680C3050E8002F22F0100240E80023CE
:10188000002BF5D12046FFF70BFFF8BDFFE705065B
:101890002BD5150629D594F83D002128F5D1A0684F
:1018A000B0F5805F01D12069B0B1206A411C21628E
:1018B000216800784860E08C401E0004000CE08441
:1018C000E3D12068C16821F08001C1602068C1684F
:1018D00041F04001C160D8E7206A0088C0F30800E9
:1018E0004860206A801C2062E5E74006CDD550069E
:1018F000CBD5CA68204622F04002CA6084F83D3049
:1019000000F0F4F8C1E700001122000870B50400EF
:1019100004D094F83D00002510B106E0012070BD10
:1019200084F83C50204600F023F8242084F83D0041
:101930002068C16821F40051C160204600F0F8FC25
:101940002068016921F4904101612068416921F01A
:101950002A0141612068C16841F40051C1602564D9
:10196000202084F83D0084F83E00002070BD000077
:1019700010B586B0044614216846FEF7CBFC184922
:101980002068884229D117480021026842F01002DD
:101990000260006800F010000590124814380268D8
:1019A00042F001020260006800F0010005904FF46F
:1019B000C06000900220CDE90101032003900720C0
:1019C000049069460848FFF7C9F800220521252040
:1019D000FFF750FA2520FFF73FFA06B010BD0000D0
:1019E00000100140443802400000024090F83E30B0
:1019F000202B0ED159B152B190F83C30012B08D0B8
:101A0000012380F83C300023036300F017BD012060
:101A1000704702207047000000680549884206D1DF
:101A2000044B054A03F12401081F00F0F3B9704785
:101A30000010014024000020B80200202DE9F843E6
:101A4000044690F83D001F4615460E4620284BD10F
:101A5000C6B1BDB194F83C00012845D0012084F8FE
:101A60003C004FF00008C4F84080212084F83D007D
:101A7000FFF762F9A5848146E584A068B0F5805F30
:101A800003D004E00120BDE8F883206920B1354689
:101A9000002684F83C800EE00025FAE780212046ED
:101AA00000F0E9FCA0B9ADB115F8010B2168486060
:101AB000E08C401EE084E08C4B464FF00002009723
:101AC0000028EBD14FF04001204600F0D4FC30B1AB
:101AD0000320D8E736F8020BC0F30800E6E7202021
:101AE00084F83D000020CEE70220CCE77047FEE7F7
:101AF0000EB51448002102AB8160C160082101616C
:101B00008901016000F118010889020A8DF800209E
:101B10008DF80100088B020A8DF802208DF8030071
:101B2000088D020A8DF804208DF80500088F6A469A
:101B3000010A8DF806108DF8070002490248FEF7E9
:101B400042FC0EBD50020020DC0000200F4810B502
:101B50000D4901600321416000214FF400228160A2
:101B6000C0E903124FF4401242610176417681765A
:101B7000C17601774177FEF784FE002803D0BDE8E7
:101B80001040FEF70CBC10BD00640040DC000020DB
:101B900010B50A4A00210A4800F020FE094C074A05
:101BA000002120602432084800F018FE60600348DD
:101BB000483000F0CEFDA06010BD00008C3F000852
:101BC000791F0008000000207920000870B586B059
:101BD00014216846FEF79EFB1E480025016841F06F
:101BE00080010160016801F080010591016841F008
:101BF00010010160016801F010010591016841F0D8
:101C000008010160016801F008010591016841F0D7
:101C1000010101600068012200F001000E4E540233
:101C2000059021463046FFF781F80220CDE90250A9
:101C300000940124694601943046FEF78FFF4FF46B
:101C4000C060CDE90005694602940448FEF786FFAE
:101C500006B070BD3038024000100240000C024057
:101C60000C4810B50A4901604FF4E1314160002190
:101C700081600C22C160C0E904128161C161FFF77B
:101C800045FE002803D0BDE81040FEF788BB10BD1C
:101C90000010014004010020FEE7FEE780ED0A2A63
:101CA000C0ED081A00F10C0181EC030AB1EE610AE3
:101CB00080ED090A80ED073A9FED060AC0ED062A7D
:101CC00080ED020A80ED010A80ED000A80ED0B0A2A
:101CD000704700000000000030EE600A80ED000A4E
:101CE00090ED061AB5EEC01AF1EE10FA0ED0B5EE70
:101CF000C00AF1EE10FA02DDF0EE400A01E0F1EE6A
:101D0000400AF4EEC10AF1EE10FA04D2D0ED040A52
:101D100060EE800A01E0DFED280A90ED071AB4EECC
:101D2000E01AF1EE10FA01D2F0EE410AB1EE411ADA
:101D3000B4EEE01AF1EE10FA01DDF0EE410A90ED9A
:101D4000011A90ED032AF0EE002A70EE411A61EEBE
:101D5000821AB0EE402A01EE622AD0ED022A70EE1D
:101D6000A10A32EE222AD0ED052A22EE222AD0ED57
:101D70000B2A70EE820A72EEA00AC0ED0B0A80ED0B
:101D8000021A80ED010A90ED080AF4EEC00AF1EEA5
:101D900010FA01DD80ED0B0AD0ED0B0A90ED090A77
:101DA000F4EEC00AF1EE10FA02D3B0EE600A70470A
:101DB00080ED0B0A704700000000000070B5124C67
:101DC000124DB4F9020000EE100A1148F8EEC00AF4
:101DD00095ED030AFFF780FFBDEEC00A84ED020A0D
:101DE000B4F9120000EE100A0948F8EEC00A95EDA9
:101DF000040A3030FFF770FFBDEEC00A84ED060A1A
:101E0000BDE87040FFF774BE68020020A802002001
:101E1000900100202DE9F05F93468946824698465E
:101E2000012248494848FFF7E1FD464D00276D1E55
:101E3000464C687A112809D0E8790121A8B1012817
:101E400018D0022825D0032878D13BE06878AA284A
:101E500001D0287272E0287A55286FD16F722070F5
:101E6000AA206070EF71AF7168E06878A070A882F6
:101E7000E97163E0B5F9100069782218401CD1704F
:101E800000B22882B5F91410884257DB2F82022055
:101E900016E0B5F9140069782218C01CD170C1B2DF
:101EA0002A4801F029F9A871B5F914102144C9781C
:101EB000814203D026A000F0ABFB3FE0E879401C54
:101EC000E8713BE0B5F9120010B1012802D035E00D
:101ED000698233E01B4A6F821532961CB5F91200F5
:101EE0002118CB78135449793154401C00B26882D0
:101EF0000228F3DB13496F822B31B5F91200231846
:101F0000DB790B54401C00B268820428F5DBE37ACD
:101F100088F80030B2F90020CAF80020B6F9002095
:101F2000C9F8002091ED000A11208BED000AEF7135
:101F30002F726872AF71AF822F826F820020BDE86E
:101F4000F09F00002500002004010020C4020020B2
:101F500052656365697665642074656D5F61727250
:101F6000617920636865636B2073756D206572729B
:101F70006F72210D0A0000002DED068B00F012FBA0
:101F80009FED348ADFED348A9FED349ADFED349A89
:101F90009FED34AAB0EE483AF0EE682AB0EE492A36
:101FA000F0EE691AB0EE4A1AF7EE000AB2EE040A31
:101FB0002D48FFF773FE2C48B0EE483AF0EE682A41
:101FC000B0EE492AF0EE691AB0EE4A1AF7EE000AAE
:101FD000B2EE040A3030FFF761FE2348B0EE483A13
:101FE000F0EE682AB0EE492AF0EE691AB0EE4A1A0D
:101FF000F7EE000AB2EE040A6030FFF74FFE1A480F
:10200000B0EE483AF0EE682AB0EE492AF0EE691ACE
:10201000B0EE4A1AF7EE000AB2EE040A9030FFF76B
:102020003DFE12480021124C416081609FED118AF3
:102030004FF47A750160B4F912100122B0EE480A2B
:10204000284600F071FAFFF7B9FE0A2000F074FB91
:10205000F1E700000000FA430000000000409C454A
:1020600000606A46CDCCCC3D90010020A802002043
:102070006802002029FCF944142000F05DFBFBE716
:1020800010B54FF0E020006901F0D0FD012803D029
:10209000BDE8104001F0FABA10BD000030B593B0B1
:1020A00030216846FEF736F914210CA8FEF732F904
:1020B0001C480025016841F080510160006800F073
:1020C000805011901848016841F480410160006817
:1020D000022400F48040119001200090000401903F
:1020E0008001CDE9064008AA0420542182E81300AB
:1020F0000B906846FEF7FAFF08B172B6FEE70CA92E
:102100000F2081E831004FF48050CDE90F05022106
:102110000CA8FEF7E1FE002801D072B6FEE713B06E
:1021200030BD0000403802400070004002480168A5
:1021300041F470010160704788ED00E00148FFF74D
:10214000F2B9000048010020F0B50268254D264E86
:10215000264FDFF89CC0274B4FF0804EA84209D095
:10216000704507D0B04205D0B84203D0604501D0D9
:10217000984203D122F070044A682243A8421BD03F
:10218000704519D0B04217D0B84215D0604513D071
:10219000984211D0184CA0420ED0184CA0420BD03F
:1021A000174CA04208D0174CA04205D0164CA042B4
:1021B00002D0164CA04203D122F44074CA682243D4
:1021C0004C6922F08002224302608A68C2620A6877
:1021D0008262A84201D0984201D1096901630121BC
:1021E0004161F0BD000001400004004000080040D3
:1021F000000C004000040140004001400044014048
:102200000048014000180040001C00400020004031
:1022100010B5806B0021C185C184FFF742FA10BD63
:1022200001680C3151E8002F22F4907241E800233C
:10223000002BF5D10168143151E8002F22F0010282
:1022400041E80023002BF5D1016B012909D1016878
:102250000C3151E8002F22F0100241E80023002B3E
:10226000F5D1202180F83E1000210163704708B5A8
:1022700090F83E10222901D0022008BD81684FF459
:102280008053994201D1026922B1826A99421BD0DE
:1022900049B10AE00268816A5268C2F308020A8002
:1022A000816A891C08E0016971B10168496801F01F
:1022B0007F011170816A491C8162C18D491E090428
:1022C000090CC18503D019E001684968F1E701688C
:1022D000CA6822F02002CA600168CA6822F48072CB
:1022E000CA6001684A6922F001024A61202180F82F
:1022F0003E10016B012903D0FFF78EFB002008BDC3
:102300000021016301680C3151E8002F22F0100216
:1023100041E80023002BF5D101680A68D20602D5F6
:102320000A6849680091818DFFF7BAF9E6E7000075
:1023300070B5044600680169E26821F44051114318
:102340000161A1682069E2690143606910430143AA
:102350002068C26849F20C639A430A43C26020684D
:102360004169A26921F440711143416131492068FA
:10237000884202D03049884202D1FEF777FE01E060
:10238000FEF764FEE2690023192164253226B2F5C6
:10239000004F626828D0A0FB0101930F9200FDF767
:1023A0006FFF0146B0FBF5F06FF01802504301EBF0
:1023B000800006EB0010B0FBF5F000F0F002B1FB7E
:1023C000F5F002EB0012B1FBF5F06FF01803584383
:1023D00001EB800006EB0010B0FBF5F000F00F0001
:1023E00021681044886070BDA0FB010192185B4118
:1023F000FDF746FF0146B0FBF5F00201B1FBF5F039
:102400006FF01803584301EB800006EBC000B0FBEF
:10241000F5F000F0F80002EB4002B1FBF5F0584394
:1024200001EB800006EBC000B0FBF5F000F0070008
:10243000D6E700000010014000140140816282854F
:10244000C28500210164222280F83E2080F83C10E1
:10245000016921B10168CA6842F48072CA600168EA
:102460004A6942F001024A610068C16841F02001F6
:10247000C160002070472DE9F0411E46174688468E
:102480000446069D26E0681C24D025B1FEF754FCC6
:10249000801BA8421ED920680C3050E8001F21F490
:1024A000D07140E80012002AF5D12068143050E8BD
:1024B000001F21F0010140E80012002AF5D1202080
:1024C00084F83D0084F83E00002084F83C0003209E
:1024D000BDE8F0812068016838EA010004D00020DE
:1024E000B842D0D00020F3E70120F9E70148FFF718
:1024F000D9B800000401002030B5094D074AAB6A85
:1025000007E014682406FCD510F8014B54605B1CEE
:10251000AB628B42F5DB0020A86230BD00100140A9
:1025200024000020FEE70000FFB500231B4E0093AF
:102530000193029303933080B71C06F1160C398087
:1025400017498CED000A18466D460B5C2B54401C55
:102550000228FADB09218DF8021000202B18345CC8
:10256000DC703C5C401C5C710228F7DB00202C18FE
:102570001CF80030401CE3710428F8DB6C18284676
:10258000A270C91C00F0B8FDE0700D2020710A2077
:1025900060710F216846FFF7AFFFFFBD3E000020CE
:1025A000FC3F000810B58AB000240120CDE90640A8
:1025B000089000940194029403940594694612488B
:1025C0000494FDF765FF08B1FDF7E9FE0E48FEF73C
:1025D00038FA08B1FDF7E3FE01210B48FDF7E1FEF3
:1025E00008B1FDF7DCFE02210748FDF7DAFE08B16D
:1025F000FDF7D5FE05480421C0E901410821C0E9E5
:10260000034104750AB010BDDC0000205002002018
:10261000014A024900F023B881260008D8000020B2
:102620000907090E002804DB00F1E02080F80014FF
:10263000704700F00F0000F1E02080F8141D704793
:1026400002E008C8121F08C1002AFAD1704770477B
:10265000002001E001C1121F002AFBD170472DE9C3
:10266000F04116460F460446002503E03946B047C0
:10267000641C6D1C20780028F8D12846BDE8F08144
:1026800013B54FF6FF73012269460248FFF7D6F9EA
:1026900000981CBD040100200068194AA0F50070D4
:1026A00001380FD0012817D002281FD0032808D1E5
:1026B000088840BA1086488840BA5086888840BA50
:1026C00090867047088840BA1080488840BA508089
:1026D000888840BA90807047088840BA108248883D
:1026E00040BA5082888840BA90827047088840BAC1
:1026F0001084488840BA5084888840BA90847047D3
:1027000068020020FEF726FBFFF7C8FCFFF75EFA21
:10271000FFF71CFAFFF7A4FA012205490548FFF765
:1027200065F900F02DF8FFF733FA00F03BF8FEE70B
:10273000250000200401002010B5EFF3058111B140
:102740006FF0050403E0002408B100F01DFE2046F0
:1027500010BD10B54FF00001EFF305826AB948B122
:10276000D0E902202AB1202807D3104600F0FEFE4F
:1027700002E010B900F0ECFE0146084610BD000072
:10278000EFF3058010B16FF0050070470448016851
:1027900011B14FF0FF3070470121016000207047F8
:1027A000A800002010B5EFF3058010B16FF0050010
:1027B00010BD08480168012902D04FF0FF3010BD5C
:1027C000054A002182F8141D0221016000F044FE38
:1027D000002010BDA80000200BE000E02DE9FF4123
:1027E0000B464FF00005EFF30581039549BB40B35D
:1027F0008026182100244AB3176807B13C46976920
:1028000007B139464F1E382F02D21779FF0703D080
:10281000002004B0BDE8F081576907B1BE08D2F8C6
:1028200008C0BCF1000F0DD0D5685C2D18D312691B
:102830003AB137B18DE806103246214601F0C9F9A8
:1028400003900DE0D7685FB912694AB903AACDE9D0
:102850000012B2B2214601F08FF9012800D0039591
:102860000398D6E72DE9F041134E0F460446F5686C
:102870003068001D00F057FC601C07D137B131688B
:10288000BDE8F0410D48091D00F09CBC30682C44A7
:10289000AC424460316805D2B06BBDE8F041091D1F
:1028A00000F078BC706B091D00F074FCB06A8442C3
:1028B00000D2B462BDE8F08158000020C4070020B7
:1028C0002DE9F041054600F089FC2D4EB068401C12
:1028D000B06030682B4F10B1706930B32BE03560B9
:1028E000B068012827D1002404EB840007EB8000A6
:1028F00000F042FC641C382CF6D3234800F03CFC6A
:102900002148143000F038FC1F48283000F034FC17
:102910001D483C3000F030FC1B48503000F02CFCCF
:10292000194870631430B06305E03068E96AC06A22
:10293000884200D83560706A401C70626864E86A3A
:102940003169884200D9306100EB800007EB8000DC
:10295000291D00F037FC00F061FC706900280CD0E4
:102960003068E96AC06A884207D208494FF080504F
:102970000860BFF34F8FBFF36F8FBDE8F081000099
:1029800058000020140300207407002004ED00E02C
:1029900038B500F023FC104C2068C8B90F4800F08F
:1029A000EBFB0E48143000F0E7FB0C48E0601430FD
:1029B00020610A4B0020F03B009003F150021021EF
:1029C0000A2000F079FE206010B105A100F0A8FCFB
:1029D000BDE8384000F022BC94000020C808002068
:1029E000546D72510000000030B4026C0B46002A96
:1029F0000BD0C1681144C1608468A14201D3016851
:102A0000C16030BC1846FDF76CBC30BC70472DE986
:102A1000F041856B174604460026026C82B1C7B1AF
:102A2000E068FDF75EFCE168206C091AE16022684D
:102A3000914202D2A168081AE060022F16D017E076
:102A40002068A8B9A06801F069F906460020A060D6
:102A50000EE06068FDF745FC216C6068084460602A
:102A6000A168884204D32068606001E005B16D1E52
:102A70006D1CA5633046BDE8F08110B5044690F8A2
:102A8000590058B101280CD002280FD0502080F3F3
:102A90001188BFF34F8FBFF36F8FFEE7206B00F0FD
:102AA000D1FB2046BDE8104000F0CCBB10BD0000BB
:102AB00010484FF47051420706D0C01D0D4920F058
:102AC0000700411AC1F570510B4A00230144C2E9C5
:102AD00000030839183A21F0070111604B600B60C0
:102AE0000B1AC0E9001393604FF00040536050612F
:102AF00070470000A80F0020C4000020134E144DA2
:102B0000A6F29C474FF08058DFF8489011E000F0A3
:102B100065FBF068C468201D00F005FBA868401E36
:102B2000A8606868401E686000F078FB2046FFF7E8
:102B3000A4FF68680028EAD138680128F9D9C9F8E3
:102B40000080BFF34F8FBFF36F8FF2E7B007002015
:102B50005800002004ED00E070B51D46049C49B10A
:102B60002260C4E90F010121204600F0D9FD84F85C
:102B70004C5070BD2460F4E72DE9F05F0E46DDE9AE
:102B80000B941746834691009A460A9DA522206B16
:102B9000FDF7B9FB6FF00301206B01EB87010844DF
:102BA00020F00707780707D0502080F31188BFF383
:102BB0004F8FBFF36F8FFEE74FF0000866B1002024
:102BC0002218315C82F83410315C11B1401C10289D
:102BD000F6D384F8438001E084F83480382D00D3A4
:102BE0003725E562C4E91358201D00F0D0FA04F13E
:102BF000180000F0CCFA2461C5F138006462A061CD
:102C0000C4F8548084F8588052465946384600F03B
:102C10005DFA2060B9F1000F01D0C9F80040BDE8AD
:102C2000F09F000030B5114900E011460A68824269
:102C3000FBD34B685C18844203D140681844486059
:102C4000084643681C18944209D1084C183C246873
:102C5000A24209D052681A4442600A6812680260AF
:102C6000814200D0086030BD0460F9E7C400002054
:102C700070B5002441600B4D0061914206D8D11A15
:102C80008269914206D2011D286907E09A4203D267
:102C9000994201D3012403E0011DE86800F07AFAAB
:102CA000204670BD9400002010B5044600F096FA4E
:102CB000A06B20B1002400F0B1FA204610BD012421
:102CC000F9E7000030B587B03C4D6EE00198002870
:102CD00006DADDE90301029A90470198002864DBD7
:102CE000039C606910B1201D00F01DFA05A800F0DA
:102CF000D7F8024601980A2857D2DFE800F0050508
:102D0000052D334A05052D3394F8280040F00100C5
:102D100084F828000298A169034601442046FFF781
:102D2000A7FF68B3216A2046884794F82800400727
:102D30003BD5002000900298A16900234218194653
:102D4000204601F0F1F8D8B9502080F31188BFF384
:102D50004F8FBFF36F8FFEE714F8280F20F00100AC
:102D6000207022E094F8280040F0010084F8280048
:102D70000298A06128B1811813462046FFF778FF1A
:102D800013E0502080F31188BFF34F8FBFF36F8F94
:102D9000FEE794F82800810703D4204600F052FA99
:102DA00003E020F0010084F82800002201A928682F
:102DB00000F00CFE002889D107B030BD940000203F
:102DC0002DE9FC410F46054600F088FB01A800F004
:102DD00067F80446019818B101F016F8BDE8FC81C7
:102DE000254EAFB130690068D0B30027291B3A46A1
:102DF000306800F0A7FA01F007F80028EED11F496B
:102E00004FF080500860BFF34F8FBFF36F8FE5E73F
:102E1000A542EBD800F0F8FFF0682746C068C46808
:102E2000201D00F080F994F82800410719D5A06909
:102E30002B4641193A462046FFF71AFFA8B1002059
:102E40000346014600902A46204601F06DF860B91D
:102E5000502080F31188BFF34F8FBFF36F8FFEE7D1
:102E600007E020F0010084F82800216A2046884706
:102E7000B4E70127BAE700009400002004ED00E069
:102E80000648416B096829B1416BC968C96849683E
:102E9000816270474FF0FF31FAE7000058000020D0
:102EA00070B5054600F0D0FE064E0446B068844278
:102EB00003D200F009F8012000E00020286020463D
:102EC000B46070BD94000020F8B5194E20E0C068D1
:102ED000C4680568201D00F026F9216A204688474D
:102EE00094F82800400713D5A0692844A84206D9C1
:102EF00024616060211DF06800F04CF908E00020BA
:102F00000346014600902A46204601F00DF838B1EC
:102F1000F06801680029DAD13169C6E90310F8BD0B
:102F2000502080F31188BFF34F8FBFF36F8FFEE700
:102F30009400002008484068401C4FF0500080F387
:102F4000118804D0BFF34F8FBFF36F8FFEE7BFF33D
:102F50004F8FBFF36F8FFEE7CC000020084CE06876
:102F6000016839B1002139B10020FFF729FFFFF7CF
:102F7000A9FEF4E70121F6E7C0680068F5E7000064
:102F8000940000202DE9F041044600F027F994F95F
:102F9000455004F1240609E0606A48B1304600F06B
:102FA000FBFE08B100F01EFA6D1E6DB2002DF3DCC1
:102FB0004FF0FF3684F8456000F030F900F00EF96C
:102FC00094F9445004F1100709E0206948B13846EB
:102FD00000F0E2FE08B100F005FA6D1E6DB2002DA2
:102FE000F3DC84F84460BDE8F04100F017B900005C
:102FF0002DE9F0410546002600F070FA324F38689E
:1030000008B9FFF755FD786905424ED1C5B30835BB
:1030100068070ED005F00700C0F1080005446807F6
:1030200007D0502080F31188BFF34F8FBFF36F8F0D
:10303000FEE72DB37868854237D823491831084612
:10304000046801E0214604466068A84202D2206874
:103050000028F7D13868844227D00E6820680860BD
:1030600060680836411B10290FD96019420708D043
:10307000502080F31188BFF34F8FBFF36F8FFEE7AF
:1030800013E041606560FFF7CDFD61687868401A24
:103090007860BA68904200D2B86078690143002035
:1030A000C4E90001F868401CF86000F0ADFE70074C
:1030B00007D0502080F31188BFF34F8FBFF36F8F7D
:1030C000FEE73046BDE8F081AC00002010B5031FDC
:1030D0004FF080741C601B1F21F001011960191F43
:1030E000044B0B6014390A60091F6FF00202443868
:1030F0000A6010BD352F000830B5034600208C242F
:103100000DE013F8012B50400022C50702D084EADD
:10311000500000E04008521CD2B2082AF5D3491EE4
:10312000C9B2EED230BDD0E9013201699A60D0E96E
:1031300001235A604A68824201D182684A600022B3
:1031400002610868401E086008687047034B03600E
:1031500003F15C000860802010607047F0080020D8
:10316000044B036003F15C0008604FF48070106052
:10317000704700004C0B002000F108014FF0FF32B7
:10318000C0E90112C16001610021016070470021A6
:103190000161704730B50C68621C02D000F1080272
:1031A00002E0026904E01A4653681D68A542FAD994
:1031B00053684B6099608A60516008610168491CDE
:1031C000016030BD42684A6093688B6093685960C3
:1031D000916008610168491C01607047502080F3CC
:1031E0001188BFF34F8FBFF36F8F0A494868401CA7
:1031F000486001280CD10848006810F0FF0F07D084
:10320000502080F31188BFF34F8FBFF36F8FFEE71D
:1032100070470000CC00002004ED00E00849486839
:1032200028B1401E486001D180F3118870475020BA
:1032300080F31188BFF34F8FBFF36F8FFEE700005D
:10324000CC00002070B500282AD0164DA0F108044B
:1032500060686969084207D1502080F31188BFF384
:103260004F8FBFF36F8FFEE722683AB1502080F393
:103270001188BFF34F8FBFF36F8FFEE78843606005
:1032800000F02CF960686968084468602046FFF720
:10329000C9FC2869401C2861BDE8704000F0B4BD3D
:1032A00070BD0000AC0000204FF0E0200021016163
:1032B000816105494FF47A720968B1FBF2F1491E48
:1032C00041610721016170471800002010B5FCF72B
:1032D000C1FF114910280ED300F1E02090F8F0034F
:1032E0000A78904207D2502080F31188BFF34F8FA5
:1032F000BFF36F8FFEE709480068896800F4E0605B
:10330000884207D9502080F31188BFF34F8FBFF355
:103310006F8FFEE710BD0000CC0000200CED00E038
:1033200010B5074B002253F832401CB1521C082A3A
:10333000F9D310BD43F8321003EBC201486010BD51
:10334000D402002070B515460E460446FFF746FF2E
:1033500094F944100020491C01D184F8440094F9E8
:103360004510491C01D184F84500FFF757FFA06BB9
:1033700028B92A46314604F1240000F051F82046CD
:10338000BDE87040FFF7FEBD10B5020014D00F4835
:10339000006B38B1502080F31188BFF34F8FBFF31B
:1033A0006F8FFEE700F09AF800211046FFF75AFAF7
:1033B00000F02AFD002807D105494FF08050086031
:1033C000BFF34F8FBFF36F8F10BD00005800002078
:1033D00004ED00E002490A6A0260C9684160704772
:1033E0005800002001490120C861704758000020A2
:1033F00010B50C4650B1094909681831FFF7CAFEEB
:103400002046BDE810400121FFF72CBA502080F380
:103410001188BFF34F8FBFF36F8FFEE75800002076
:1034200070B514460D4668B10A4909681831FFF7AE
:10343000C9FE0CB14FF0FF3521462846BDE870406B
:10344000FFF710BA502080F31188BFF34F8FBFF3FE
:103450006F8FFEE75800002030B587B00025039538
:1034600005AA04A903A80495FFF770FEDDE903018E
:103470000095CDE90110002314A11648059A00F02B
:10348000A8FB154CE06218B100F01EFD012809D020
:10349000401C19D1502080F31188BFF34F8FBFF328
:1034A0006F8FFEE7502080F31188BFF34F8FBFF37B
:1034B0006F8F4FF0FF30A06201206061E56007B0C0
:1034C000BDE8304000F068B807B030BD49444C4515
:1034D00000000000FD2A0008580000200248016B8F
:1034E000491C01637047000058000020164B10B5BE
:1034F000186B10B10120D86110BD0020D861186987
:10350000124901E0B8B1401E00EB800251F82220C0
:10351000002AF7D000EB800201EB820101F10804E0
:103520004A6852684A60A24201D152684A60D16832
:103530001960186110BD502080F31188BFF34F8FC0
:10354000BFF36F8FFEE70000580000201403002037
:1035500070B52020FFF74CFD040005D00025201D8C
:103560002560FFF709FE2577204670BD38B558B1B4
:1035700020210446002000912060201DFFF7FCFD63
:1035800001202077204638BD502080F31188BFF3FA
:103590004F8FBFF36F8FFEE71CB537480168374A7E
:1035A000914207D1502080F31188BFF34F8FBFF3B2
:1035B0006F8FFEE700683149491E884207D15020CD
:1035C00080F31188BFF34F8FBFF36F8FFEE72C4955
:1035D00008780190FF20087008788DF800009DF8A9
:1035E00000009DF8002000F0F000904207D050202D
:1035F00080F31188BFF34F8FBFF36F8FFEE79DF805
:103600000000204C00F0500020700720A06006E071
:10361000401EA0609DF8000040008DF800009DF85D
:1036200000000006A068F3D4032807D0502080F3E0
:103630001188BFF34F8FBFF36F8FFEE74FF44070D9
:10364000A060019808700C482030016841F47001B6
:103650000160016841F070410160FFF725FE002024
:103660006060FCF7BFFD0848016841F0404101601F
:10367000FCF7A4FD00201CBD00ED00E071C20F416D
:1036800000E400E0CC00002034EF00E010B5502052
:1036900080F31188BFF34F8FBFF36F8F00F0DAFA1A
:1036A00018B104494FF080500860002080F3118861
:1036B00010BD000004ED00E038B5049D18B153B111
:1036C000CAB181B120E0502080F31188BFF34F8F41
:1036D000BFF36F8FFEE7502080F31188BFF34F8F49
:1036E000BFF36F8FFEE7502080F31188BFF34F8F39
:1036F000BFF36F8FFEE739B1502080F31188BFF31D
:103700004F8FBFF36F8FFEE750241C46012384F8D0
:1037100046302B460094FFF71FFA204638BD0000C4
:1037200070B50D46040025D0FFF758FDD4E90F20F1
:10373000216802FB0011A1600021A1632168616082
:103740000A46D4E90F01401E00FB0121E160214639
:103750004FF0FF3001F8440F487004F110008DB1B4
:10376000FFF70AFD04F12400FFF706FDFFF756FD01
:10377000012070BD502080F31188BFF34F8FBFF33D
:103780006F8FFEE721690029F0D000F005FB0028CB
:10379000ECD004494FF080500860BFF34F8FBFF367
:1037A0006F8FE3E704ED00E02DE9FF4F83B01F4684
:1037B0008B4604004FF0000603D0BBF1000F08D089
:1037C00011E0502080F31188BFF34F8FBFF36F8F4C
:1037D000FEE7206C38B1502080F31188BFF34F8F83
:1037E000BFF36F8FFEE7022F0AD1E06B012807D0ED
:1037F000502080F31188BFF34F8FBFF36F8FFEE728
:1038000000F014FADFF800914FF0000A4FF08058F2
:1038100048B9059838B1502080F31188BFF34F8F15
:10382000BFF36F8FFEE7FFF7D9FCA06BE16B884217
:1038300005D3022F03D00598C8B1DEB11EE03A4689
:1038400059462046FFF7E3F8616A19B104F12400F4
:1038500000F0A2FA28B1C9F80080BFF34F8FBFF380
:103860006F8FFFF7DBFC012007B0BDE8F08FFFF79B
:10387000D5FC21E06846FFF7ADFD0126FFF7CEFC41
:10388000FFF72CFEFFF7AAFC94F94400401C01D17D
:1038900084F844A094F94500401C01D184F845A067
:1038A000FFF7BCFC05A9684600F02CF930B12046B2
:1038B000FFF768FB00F0A8FA0020D5E7FFF78EFCC1
:1038C000A06BE16B884201D1012500E00025FFF7E4
:1038D000A5FC95B104F110000599FFF789FD20467C
:1038E000FFF750FB00F090FA00289CD1C9F8008047
:1038F000BFF34F8FBFF36F8F95E72046FFF742FB73
:1039000000F082FA8FE7000004ED00E02DE9F047B7
:103910001F4690468946040003D0B9F1000F08D035
:1039200011E0502080F31188BFF34F8FBFF36F8FEA
:10393000FEE7206C38B1502080F31188BFF34F8F21
:10394000BFF36F8FFEE7022F0AD1E06B012807D08B
:10395000502080F31188BFF34F8FBFF36F8FFEE7C6
:10396000FFF7B4FC5020EFF3118680F31188BFF30A
:103970004F8FBFF36F8FA06BE16B884206D3022F8E
:1039800004D0002086F31188BDE8F08794F94550F3
:10399000A06B3A4649462046FFF739F8681C04D028
:1039A0006D1C84F845500120ECE7606A0028FAD0CD
:1039B00004F1240000F0F0F90028F4D0B8F1000F71
:1039C000F1D00121C8F80010EDE700002DE9F7471C
:1039D00083B08A4604004FF0000603D0BAF1000F0E
:1039E00008D011E0502080F31188BFF34F8FBFF350
:1039F0006F8FFEE7206C38B1502080F31188BFF341
:103A00004F8FBFF36F8FFEE700F010F9DFF8F090F3
:103A100000274FF0805848B9059838B1502080F3FE
:103A20001188BFF34F8FBFF36F8FFEE7FFF7D6FB11
:103A3000A56BC5B151462046FEF7D6FF6D1EA563A6
:103A4000206950B104F1100000F0A6F928B1C9F8BE
:103A50000080BFF34F8FBFF36F8FFFF7DFFB0120B5
:103A600006B0BDE8F087059808B11EB106E0FFF783
:103A7000D5FB27E06846FFF7ADFC0126FFF7CEFB3C
:103A8000FFF72CFDFFF7AAFB94F94400401C01D17D
:103A900084F8447094F94500401C01D184F84570C5
:103AA000FFF7BCFB05A9684600F02CF8002820466B
:103AB0000AD0FFF767FA00F0A7F92046FFF7F4F8FD
:103AC0000028B3D00020CBE7FFF7EEF890B104F167
:103AD00024000599FFF78CFC2046FFF753FA00F00D
:103AE00093F90028A2D1C9F80080BFF34F8FBFF32C
:103AF0006F8F9BE72046FFF745FA00F085F995E7C1
:103B000004ED00E02DE9F0410C46050011D0C4B1F0
:103B1000FFF764FB174EF1686B682268C81A571CE0
:103B200017D02F68366AB74219D08B4217D80124B4
:103B300010E0502080F31188BFF34F8FBFF36F8FD9
:103B4000FEE7502080F31188BFF34F8FBFF36F8FD4
:103B5000FEE70024FFF762FB2046BDE8F0818242C9
:103B600005D9101A20602846FFF734FCF1E7002041
:103B70002060DCE7580000202DE9FF5F8346DDE987
:103B80000E87994616468A469000FFF731FA0500DF
:103B90001CD05C20FFF72CFA040014D00020256311
:103BA00084F85900CDE90240CDE900874B46324602
:103BB00051465846FEF7E0FF2046FEF781FE012001
:103BC00004B0BDE8F09F2846FFF73CFB4FF0FF3004
:103BD000F6E7F0B585B00546DDE90B040A9EA8B10D
:103BE000E4B15C2700972063022084F8590000208C
:103BF000CDE9024004AF2846CDE90067FEF7BCFFDF
:103C00002046FEF75DFE049805B0F0BD502080F31D
:103C10001188BFF34F8FBFF36F8FFEE7502080F303
:103C20001188BFF34F8FBFF36F8FFEE705484169DF
:103C300019B1006B18B100207047012070470220B5
:103C400070470000580000200148C068704700001D
:103C5000580000202DE9F0412E4F0026386B28B186
:103C6000B869401CB8613046BDE8F081FD686D1C44
:103C7000FD6013D1786B006838B1502080F3118853
:103C8000BFF34F8FBFF36F8FFEE7786BB96B79632C
:103C9000B863386A401C3862FFF7F2F8B86ADFF898
:103CA0007880854209D3786B0068A0B1786BC068D2
:103CB000C4686068854211D2B8623868C06A00EB97
:103CC000800158F82100012800D90126F869002850
:103CD000C9D00126C7E74FF0FF30EDE7201DFFF701
:103CE00022FAA06A18B104F11800FFF71CFAE06A82
:103CF0003969884200D9386100EB800108EB810006
:103D0000211DFFF75FFAE06A3968C96A8842CAD3A1
:103D10000126C8E7580000201403002070B50400F5
:103D20004FF000002BD01A4D29688C4207D050204C
:103D300080F31188BFF34F8FBFF36F8FFEE7216DC4
:103D4000F1B1491E2165E36CE26A9A4217D000295D
:103D500015D1201DFFF7E7F9E06CE062C0F13800F3
:103D6000A061E06A2969884200D92861094900EB0D
:103D7000800001EB8000211DFFF724FA012070BDB7
:103D8000502080F31188BFF34F8FBFF36F8FFEE792
:103D9000580000201403002070B5C068C46854B1F6
:103DA00004F118000646FFF7BEF9144D286B50B118
:103DB0003146134815E0502080F31188BFF34F8F30
:103DC000BFF36F8FFEE7201DFFF7ADF9E06A2969A9
:103DD000884200D928610B4900EB800001EB80008C
:103DE000211DFFF7EFF9E06A2968C96A884202D904
:103DF0000120E86170BD002070BD00005800002067
:103E00009C070020140300202DE9F0472B4D0024CF
:103E10002746286B38B1FFF7E1F9286B401E28636D
:103E2000286B40B145E0502080F31188BFF34F8FDD
:103E3000BFF36F8FFEE7A86821490126C8B3A1F53B
:103E400091698846D8F80010E1B1D8F80C00C46830
:103E500004F11800FFF767F9201DFFF764F9E06A25
:103E60002969884200D9286100EB800109EB8100B3
:103E7000211DFFF7A7F9E06A2968C96A8842E1D3E2
:103E8000EE61DFE70CB1FEF7FBFFAC693CB1FFF779
:103E9000E1FE00B1EE61641EF9D10020A861E8697D
:103EA00038B10849012738070860BFF34F8FBFF3C7
:103EB0006F8FFFF7B3F93846BDE8F0875800002050
:103EC0009C07002004ED00E010B586B0FEF760FD11
:103ED000114C2068B8B100200390049005AA04A9F1
:103EE00003A8FFF73DF9DDE9032102208DE8070073
:103EF00000230AA10B48059AFFF76BFE606010B122
:103F000006B0012010BD502080F31188BFF34F8F01
:103F1000BFF36F8FFEE7000094000020546D722005
:103F2000537663005D2F00082DE9FF411F46030013
:103F30000A9E4FF0000015D0134D2C68002C0ED0B7
:103F40008DE80E00062917DAFFF770FE02284FF001
:103F500000030FD0002269462868FFF725FC04B053
:103F6000BDE8F081502080F31188BFF34F8FBFF37D
:103F70006F8FFEE73246EEE700233A466946204659
:103F8000FFF7C4FCEBE70000940000201840000895
:103F90000000000000000000000000000000000021
:103FA00000020000180000000000000000000000F7
:103FB0000C400008000000000000000000000000AD
:103FC00000000000000200001A00000000000000D5
:103FD0000000000000400008000000000000000099
:103FE00000000000000000000000000001020304C7
:103FF00006070809000000000102030455AA00009A
:104000006D794576656E7430310000006D795461CC
:10401000736B30320000000064656661756C745427
:1040200061736B004440000800000020DC000000C9
:104030004026000820410008DC000020CC4E000093
:1040400050260008000000000000000000000000F2
:104050000100000010000000000000000024F40037
:10406000000000000000000000000000001100003F
:10407000001100000000000000000000000000002F
:104080000000000000000000000000000000000030
:104090000000000000000000000000000000000020
:1040A0000000000000000000000000000000000010
:1040B0000000000000000000000000000000000000
:1040C00000000000000000000000000000000000F0
:1040D00000000000000000000000000000000000E0
:1040E00000000000000000000000000000000000D0
:1040F00000000000000000000000000000000000C0
:1041000000000000000000000000000000000000AF
:1041100000000000AAAAAAAA0000000000000000F7
:040000050800018965
:00000001FF
