:020000040800F2
:10000000C060002031030008851C00085F1A00084A
:10001000291B0008DD0B0008B932000800000000B1
:10002000000000000000000000000000790200084D
:10003000DD14000800000000CD020008E5290008DA
:100040004B0300084B0300084B0300084B03000858
:100050004B0300084B0300084B0300084B03000848
:100060004B0300084B0300084B0300084B03000838
:100070004B0300084B0300084B0300084B03000828
:100080004B0300084B0300084B030008190D000840
:10009000E50C00084B0300084B0300084B03000865
:1000A0004B0300084B0300084B0300084B030008F8
:1000B0004B030008552A00084B0300084B030008B7
:1000C0004B0300084B0300084B0300084B030008D8
:1000D0004B030008E92D0008512E0008F12E0008FE
:1000E0004B0300084B0300084B0300084B030008B8
:1000F0004B0300084B0300084B0300084B030008A8
:100100004B0300084B0300084B0300084B03000897
:100110004B030008AD2D00084B0300084B030008FB
:100120004B0300084B0300084B0300084B03000877
:100130004B0300084B0300084B0300087D0D00082B
:100140003D0D00084B0300084B0300084B0300085B
:100150004B0300084B0300084B030008952F0008D1
:100160004B0300084B0300084B0300084B03000837
:100170004B0300084B0300084B0300084B03000827
:100180004B0300084B03000800F002F800F064F88D
:100190000AA090E8000C82448344AAF10107DA45E2
:1001A00001D100F059F8AFF2090EBAE80F0013F0D0
:1001B000010F18BFFB1A43F001031847CC6D000074
:1001C000EC6D00000A444FF0000C10F8013B13F0F6
:1001D000070408BF10F8014B1D1108BF10F8015BA0
:1001E000641E05D010F8016B641E01F8016BF9D193
:1001F00013F0080F1EBF10F8014BAD1C0C1B09D1EA
:100200006D1E58BF01F801CBFAD505E014F8016B5B
:1002100001F8016B6D1EF9D59142D6D370470000ED
:100220000023002400250026103A28BF78C1FBD8FF
:10023000520728BF30C148BF0B607047642900F0E7
:100240000381732900F01C82002070471FB506F05F
:10025000F8FD1FBD10B510BD00F0B0FA1146FFF754
:10026000F5FF04F053F800F0CEFA03B4FFF7F2FF05
:1002700003BC03F095FE00002A4B19680868B0E83B
:10028000F04F80F30988BFF36F8F4FF0000080F3C9
:10029000118870470000000006480068006880F37D
:1002A000088862B661B6BFF34F8FBFF36F8F00DF70
:1002B00000BF00BF08ED00E0DFF80C00016841F46A
:1002C00070010160704700BF88ED00E0EFF3098026
:1002D000BFF36F8F134B1A681EF0100F08BF20ED8D
:1002E000108A20E9F04F106008B44FF0500080F3FE
:1002F0001188BFF34F8FBFF36F8F05F0A9F94FF04F
:10030000000080F3118808BC19680868B0E8F04F55
:100310001EF0100F08BFB0EC108A80F30988BFF3FD
:100320006F8F704750000020EFF30580704700008A
:100330000948804709480047FEE7FEE7FEE7FEE779
:10034000FEE7FEE7FEE7FEE7FEE7FEE704480549B5
:10035000054A064B70470000F9290008890100088A
:10036000C05A0020C0600020C05C0020C05C00209B
:10037000704700000FB4044910B503AA029800F0BA
:1003800083F910BC5DF814FB3C0000202DE9F0411E
:100390000E460446002020622046E168884730B3BC
:1003A000252805D0D4E901219047206A401CF2E7B6
:1003B000E168204600278847050018D0A5F14100D4
:1003C000192802D820354FF40067324629462046C6
:1003D0002760FFF733FF40B1012804D0F61D26F057
:1003E00007060836D8E7361DD6E72846DAE7206A3A
:1003F000BDE8F08170B50C460546012A05D0287885
:10040000800600D5EA69002302E0012305E05B1CB9
:10041000934202D2E05C0028F9D1A869E618C01A1C
:10042000A861286A184428622846AFF3008004E0D7
:10043000D5E9012114F8010B9047B442F8D32846BE
:10044000AFF3008070BD00002DE9F04106460024A6
:1004500010687529314616A510D0AFF3008000282A
:1004600002DA404213A507E031688A0701D512A5D8
:1004700002E0490704D511A5012401E0AFF3008093
:1004800000210A2206F1240709E0B0FBF2FCB0FBD0
:10049000F2F302FB1C00303078541846491C002847
:1004A000F3D123462A463046BDE8F04100F064B857
:1004B000000000002D0000002B00000020000000C4
:1004C000032A40F2308010F0030C00F0158011F880
:1004D000013BBCF1020F624498BF11F801CB00F858
:1004E000013B38BF11F8013BA2F1040298BF00F8AC
:1004F00001CB38BF00F8013B11F0030300F0D680B8
:10050000083AC0F0088051F8043B083A51F804CB8F
:10051000A0E80810F5E7121D5CBF51F8043B40F855
:10052000043BAFF30080D20724BF11F8013B11F860
:1005300001CB48BF11F8012B24BF00F8013B00F8A4
:1005400001CB48BF00F8012B704702F0FF0343EADC
:10055000032242EA024200F0DDB87047704770475C
:10056000704710B500F0F6F8006810BD10B50446ED
:1005700000F0F0F8046010BD2DE9F0470D469946F3
:100580009246044600F124080168880604D5E06913
:1005900021F01001216000E00120A84201DD471B8D
:1005A00000E00027A1697A1902EB0900081AA0618E
:1005B0002078C00602D42046AFF30080002608E071
:1005C000D4E901211AF806009047206A401C761CE5
:1005D00020624E45F4DB2078C0060AD52046AFF3F2
:1005E000008006E0D4E9012130209047206A401CB9
:1005F0002062381EA7F10107F4DC07E0D4E90121ED
:1006000018F805009047206A401C2062281EA5F1BA
:100610000105F3DC2046AFF300802078000602D508
:100620000220BDE8F0870120FBE7000001694A1CB9
:1006300002610878704700B58FB0CDE90131002123
:10064000059105497944CDE9031011466846FFF745
:100650009DFE0FB000BD0000E5FFFFFF10B5436930
:1006600013B1AFF3008001E0FFF7C4FE012010BD1D
:10067000127800F124010A7000224A700122EDE78D
:1006800011684FF0FF32E9E7074B70B50D467B4428
:10069000FFF7D1FF0446284600F060F810B14FF094
:1006A000FF3070BD204670BDB73B000010B5203A4A
:1006B000C0F00B80B1E81850203AA0E81850B1E81B
:1006C0001850A0E81850BFF4F5AF5FEA027C24BFD1
:1006D000B1E81850A0E8185044BF18C918C0BDE8C8
:1006E00010405FEA827C24BF51F8043B40F8043B91
:1006F00008BF7047D20728BF31F8023B48BF11F846
:10070000012B28BF20F8023B48BF00F8012B70479F
:100710004FF000020429C0F0128010F0030C00F02A
:100720002380CCF1040CBCF1020F18BF00F8012BA0
:10073000A8BF20F8022BA1EB0C0100F015B85FEA6E
:10074000C17C24BF00F8012B00F8012B48BF00F842
:10075000012B7047004870475C5A0020007B00F076
:10076000800070474FF0000200B51346944696464D
:10077000203922BFA0E80C50A0E80C50B1F12001B4
:10078000BFF4F7AF090728BFA0E80C5048BF0CC062
:100790005DF804EB890028BF40F8042B08BF7047C0
:1007A00048BF20F8022B11F0804F18BF00F8012B32
:1007B00070470000004870475C5A00207546FFF7FC
:1007C000F9FFAE4605006946534620F0070085460E
:1007D00018B020B5FFF7BAFDBDE820404FF0000685
:1007E0004FF000074FF000084FF0000B21F0070119
:1007F000AC46ACE8C009ACE8C009ACE8C009ACE85C
:10080000C0098D46704710B50446AFF300802046FE
:10081000BDE81040FFF729BD10B56A4C2DED088BDF
:10082000B0EE428AB0EE61BAF0EE419AF0EE608A24
:100830002068B0EE409AE8B369EE28BA2BEEA80A19
:1008400010EE100AB0F1814F03DA0120BDEC088BE5
:1008500010BDB1EE000A1BEEA80A10EE100A06F059
:100860007FFA41EC100B02F047FFB0EE40AAF0EE29
:1008700060AA19EE100A06F073FA41EC100B02F0B0
:100880003BFF53EC1A2B51EC100B05F0A9FF41EC88
:100890001A0B1BEE900A06F063FA53EC1A2B06F0C3
:1008A00075F99FED491B53EC112B05F099FF05F0ED
:1008B0000BFD00E011E000EE100A7BEE690A84ED0A
:1008C000010A0020C4ED020AC0EE090AC4ED030AC1
:1008D00038EEE00A84ED040A206094ED030A69EE24
:1008E000080AB4EEC08AF1EE10FA10D8B6EE000A8B
:1008F000D4ED021A29EE000A20EE080A20EE081AAA
:10090000B0EE690A01EE210A94ED011A35E094ED8A
:10091000041AF0EE001A29EE210AB4EEC18AF1EEB3
:1009200010FA0ED8D4ED010A60EEA01A81EE801AFA
:10093000D4ED021AB0EE690A10EE881A01EE210A0F
:100940001DE094ED011A20EE012A61EE211A22EE3B
:10095000282A01EEC12A69EE091A38EE681A61EEFA
:10096000811A01EEC12AD4ED021A82EE001AB0EE0D
:10097000690A01EE210A38EEC81A60EE810A9FED7D
:10098000149AF1EE041AB3EE091AB0EE492A0020C7
:1009900000F022F8B4EEE88AF1EE10FA0FDBF0EE88
:1009A000490AF1EE041AB0EE602A9FED0A1AB0EE81
:1009B0004B0A002000F010F80120206045E70020DD
:1009C00044E70000D0000020000000000000E03FED
:1009D000000000000000344230B585B000218DF8E1
:1009E00008108DF80910F0EE602A0821F0EE414A57
:1009F0008DF80A10F0EE400A9FED484A0090B0EEE4
:100A0000440A02F005FE9FED461AF0EE410A02F09C
:100A100007FEF0EE403AF0EE620ABBEE0E0A02F07C
:100A2000F7FDF3EE0E0A02F0FBFDF0EE640ADFEDD7
:100A30003D4AB0EE403AB0EE640A02F0E9FD9FEDA7
:100A40003A5AF0EE450A02F0EBFDF0EE402AF0EEE5
:100A5000610AB0EE640A02F0DBFDF1EE040A02F076
:100A6000DFFDF0EE401AF0EE420ABBEE020A02F0A1
:100A7000CFFDF3EE020A02F0D3FDB0EE402A1020C3
:100A8000F0EE440AB0EE630A03F0CAFB03460C2002
:100A9000B3EE0E1AFBEE0E0AB0EE430A03F0C0FBF3
:100AA00005460C20B0EE451AF0EE640AB0EE620A7C
:100AB00003F0B6FB02460C20B1EE041AF0EE640A15
:100AC000B0EE610A03F0ACFB04460C20B3EE021A50
:100AD000FBEE020AB0EE420A03F0A2FB0146180A3E
:100AE0008DF80B008DF80C3028098DF80D002801C9
:100AF00040EA22208DF80E0020098DF81000200118
:100B000040EA21208DF811008DF812108DF80F2089
:100B10006946064800F023FB05B030BD0000BFC2A7
:100B20000000BF42000000000000FA4300640040E3
:100B3000F0B5074687B00121022001F05DFE0121DA
:100B4000880401F065FE234E07220A21304600F09A
:100B50006BFF07220B21304600F066FF4FF4406028
:100B6000049002208DF814008DF8150000248DF8F3
:100B7000164001258DF8175004A9304600F018FFE3
:100B8000ADF808400C20144EADF80440ADF80A0052
:100B90000097ADF80640ADF80C406946304602F0CB
:100BA000ABFA0121304602F065FA27208DF81800D3
:100BB00007208DF819008DF81A408DF81B5006A8F3
:100BC00001F062F8012240F22551304602F07BFA32
:100BD00007B0F0BD0004024000480040FEE70000FE
:100BE00070B501218AB0084601F006FE01214806D1
:100BF00001F00EFE394C09220B21204600F014FFB3
:100C000009220C21204600F00FFF4FF4C05108913B
:100C100002218DF8241008A9204600F0C9FE304EAC
:100C2000304600F0F9F8684600F089FA00248DF8A3
:100C300006408DF8074008208DF808408DF80240E6
:100C40008DF8040003218DF809408DF803408DF8DC
:100C50000A4001258DF80510ADF800108DF80B50F5
:100C60006946304600F0B0F98DF816408DF817400F
:100C70008DF81850ADF80C40ADF81040ADF80E40AE
:100C8000ADF81240ADF814408DF8195003A800F0EB
:100C9000D9F814208DF81C008DF81D508DF81E40D9
:100CA0008DF81F5007A800F0EFFF13208DF81C00EF
:100CB0008DF81D508DF81E508DF81F5007A800F0BC
:100CC000E3FF01220221304600F076F901221146AD
:100CD000304600F071F90AB070BD0000000002401B
:100CE0000064004010B50B4C86B00221204600F095
:100CF0000FF900280BD06A460021204600F0D8F9F1
:100D0000684603F0C3FA0221204600F049F806B015
:100D100010BD00000064004010B5074C01212046C2
:100D200000F0F6F8002805D02046BDE8104001216B
:100D300000F036B810BD00000064004010B50D4C46
:100D400086B00221204600F0E3F800280FD06A4662
:100D50000021204600F0ACF90099042903D1064A8D
:100D60009DF80B1011600221204600F019F806B022
:100D700010BD0000006800404402002010B5074C80
:100D80000121204600F0C4F8002805D02046BDE827
:100D90001040012100F004B810BD000000680040C0
:100DA00030B5082310240422B1F5007F1DD010DCDB
:100DB000202929D007DC012921D0042922D00829A3
:100DC00000D1C46030BD402920D0B1F5807FF9D179
:100DD0000BE00025B1F5004F06D008DCB1F5806FBF
:100DE00003D0B1F5006FEDD18561426030BDB1F542
:100DF000803F0DD0B1F5003FF8D1446030BD0549CA
:100E0000816030BDC36030BD036130BD046130BD61
:100E1000436030BD01010100094910B588424FF01F
:100E2000010101D14C0601E04FF08064204601F041
:100E3000FBFC2046BDE81040002101F0F5BC00009D
:100E400000640040F0B5827A2F4D012191402A685C
:100E500042F001022A602C4E1C3632688A4332600E
:100E6000294A047B294B0C32A4B914688C431460C2
:100E70004488C78844EA0744877A03EBC707C7F862
:100E800040460488878844EA0744877A03EBC7070B
:100E9000C7F84446047B012C12D114680C4314603B
:100EA000847A026803EBC4044FEA3242C4F8402655
:100EB000847A426803EBC4034FEA3242C3F8442603
:100EC000114AC37A121D002B136806D00B4313601E
:100ED0000D4A0389143213B104E08B43F7E713681A
:100EE0008B4313600389012B02D113680B431360FA
:100EF000407B012802D1306808433060286820F028
:100F000001002860F0BD0000006600400060004065
:100F10000246002053690B424AD0B1F5807F3BD096
:100F200013DC08292ED007DC012926D0022927D07E
:100F300004293DD1D0682BE0102925D0202926D0C6
:100F4000402935D11069102130E0B1F5004F2BD088
:100F50000BDCB1F5007F22D0B1F5806F22D0B1F566
:100F6000006F25D19069702120E0B1F5803F11D04C
:100F7000B1F5003F1CD15068E5E790680D4915E0D8
:100F8000D06802E0D068DEE7106903210EE0106946
:100F900008210BE05068FBE79069012106E09069A9
:100FA000022103E0906900E05068042100F030BAAB
:100FB0007047000001010100002A426901D00A4384
:100FC00000E08A434261704710B50368002223F0B5
:100FD00002030360036843F0010303604FF6FF73ED
:100FE00000E0521C4468E40701D19A42F9D14268FA
:100FF000D2073ED08A79012A02683CD022F08002D2
:101000000260CA79012A026838D022F040020260E8
:101010000A7A012A026834D022F0200202604A7A59
:10102000012A026830D022F0100202608A7A012A76
:1010300002682CD022F008020260CA7A012A0268F3
:1010400028D022F0040202608A78CC78920742EA23
:1010500004620C7942EA04424C79098842EA04525B
:10106000491E0A43C261016821F0010101600021AB
:1010700014E0002010BD42F08002C1E742F04002BF
:10108000C5E742F02002C9E742F01002CDE742F086
:101090000802D1E742F00402D5E7491C4268D207B2
:1010A00001D09942F9D14068C007E2D1012010BDBA
:1010B00010B500EB0113D3F8B04114F0040414721E
:1010C000D3F8B04133D0E4085460D3F8B04104F011
:1010D00002045472D3F8B44104F00F049472D3F8AC
:1010E000B441240AD474D3F8B841D472D3F8B841C7
:1010F000240A1473D3F8B841240C5473D3F8B841BC
:10110000240E9473D3F8BC41D473D3F8BC41240AA1
:101110001474D3F8BC41240C5474D3F8BC311B0EA6
:10112000937439B1016941F02001016110BD640D72
:101130001460CAE7C16841F02001C16010BD002100
:101140008171C171017241728172C1728170C1700D
:10115000032101710221417101210180704730B5E5
:101160000246002093685B0108D49068000101D515
:10117000012003E09068C00037D5022002EB001286
:10118000D2F8803103F00103C2F880310B7A73B3D7
:10119000D2F880414D681C434B7A43EAC5031C4397
:1011A000C2F880418B7A03F00F038B72D2F884313E
:1011B00023F00F03C2F88431D2F884318C7A2343B0
:1011C000C2F88431CB7ACC6843EA0423C2F8883170
:1011D000CB7B096943EA0121C2F88C11D2F8801156
:1011E00041F00101C2F8801130BD042030BDD2F8B9
:1011F00080314C7A23430C8843EA4453C2F880314F
:10120000D0E700002DED088B4FF4006B9FED468A70
:10121000464FDFF81C810226DFED468A464DB3EECD
:10122000059ADFED469A9FED46AADFED46AA9FEDAF
:1012300046BADFF81891DFF818A15946454800F082
:1012400003FCC8F8040098F80010444631B10129A5
:101250002AD0022939D185ED008A36E0A06860B134
:10126000D4ED030AB0EE680A02F0D2F9F7EE080AEC
:1012700002F0D6F984ED030A25E0B0EE480A002218
:1012800026701146F0EE400A032001F027FD324897
:101290004FF49B619FED310A816080ED010A0120CE
:1012A0003870C4ED038A10E0C0B3D4ED030AB0EE89
:1012B000680A02F0ADF9F7EE080A02F0B1F984ED20
:1012C000030AB1EE400A85ED000A95ED000A20EE12
:1012D000090A20EE290AC0EE0A0AB0EE6A0A02F0F4
:1012E00097F9F0EE4B0A02F09BF9B9F90200F0EE23
:1012F000400A00EE100A4C461548B8EEC00A00F04D
:101300003DFF9AED090ABDEEC00A10EE100AE0801A
:1013100003F094FD0A2003F0F7FF8EE7FFE7267045
:101320003E70C8ED038AD0E700000000580200209C
:101330003C0200209A99993EF8010020000070427A
:10134000C67DF43E0080BBC50080BB45D056002062
:10135000C0570020000C02402C0200200000B4C145
:101360002A4EDFF89880264F264D274C06F1380A82
:1013700006F1700907F10C00D8ED021A90EC030A8F
:1013800001F0C6FFB4F90200D5ED000A00EE100A24
:101390001E48B8EEC00A00F0F1FEB4F91200D5ED17
:1013A000010A00EE100A5046B8EEC00A00F0E6FE50
:1013B000B4F92200D5ED020A00EE100A4846B8EE54
:1013C000C00A00F0DBFE96ED090ABDEEC00A10EE81
:1013D000100AE08096ED170ABDEEC00A10EE100A62
:1013E000E08296ED250ABDEEC00A10EE100AE084F8
:1013F00002F08EFE052003F087FFBBE7045A0020B1
:10140000DC590020F459002090560020E0560020BE
:10141000024600200A4200D0012070470348002203
:10142000026042605321312001F02EBBC800002031
:101430004FF48061014800F00EBB00000014024030
:101440004FF48061014800F008BB00000014024026
:101450004FF40061014800F0FEBA000000140240A1
:101460004FF40061014800F0F8BA00000014024097
:101470004FF40041014800F0EEBA000000140240B1
:101480004FF48041014800F0E6BA00000014024029
:101490007CB50121202001F0AFF901208DF8040076
:1014A00000208DF8060003200B4D4FF47C448DF88E
:1014B000050000946946284600F07AFA214628463D
:1014C00000F0C9FAFFF7B4FFFFF7CAFFFFF7D0FF3C
:1014D000FFF7D6FF7CBD00000014024070470000FB
:1014E0002DED048B00242546DFF8E883DFEDFA9A22
:1014F000DFF8E8A3F7EE088AF94FDFF8E8939FEDED
:10150000FA8ADFF8E8B3FA4E9FEDFA9A01F05AF83A
:10151000F948017804291DD2DFE801F002EF25EE39
:10152000F649022304220B70DFF8D4C38AF80020A6
:1015300000218CF80010DBF8001091B109290AD0C5
:101540000A2907D16D1C0F2D04DD002503218CF81D
:101550000010027026E26D1C0F2DFBDD00250370CC
:1015600020E200251EE2DBF8001000296FD0891E62
:101570000F29EFD2DFE801F0081B1BFEFDFC3B1C2E
:101580002635384FB35A6C00DE4991ED000ADFED85
:10159000DE0ADE4A30EE200A20EE000A10EE101AB3
:1015A0009142D7DAD64A0121117004210170F9E184
:1015B0009AF80010032903D098F800100129C9D126
:1015C000002108E09AF80010032903D098F80010D1
:1015D0000129BFD101218AF80010022188F80010EA
:1015E000E0E19FEDCB0A60E19FEDCA0A5DE196ED77
:1015F000040AD0ED020A70EE600AC6ED040A90ED0E
:10160000010AB1EE400AF4EEC00AF1EE10FAA1D2DE
:1016100086ED040AC6E1002C9CD1B849087801285F
:101620006CD0022807D10020087014E1002C78D07B
:10163000B8E1022876D099ED000A10EE101AB1F147
:101640007F5F87DA30EE080A89ED000AAAE15AE0E6
:10165000002C85D19AF80000042805D030B101286B
:1016600017D0032834D09DE1032035E098F800100E
:1016700001299CD1002188F80010C82003F044FE05
:1016800000224FF46B71F0EE490AB2EE0E0A1046DA
:1016900011E098F80010012989D1002188F8001084
:1016A000C82003F031FE00224FF46B71F0EE490ABE
:1016B000BAEE0E0A012001F011FB4FF4FA7003F0AC
:1016C00023FE02218AF800108C490120087069E18C
:1016D0006D1C0F2D0ADD04208AF80000BBE0002CF1
:1016E00004D198F80000012801D040B15AE16D1CE6
:1016F0000F2D5DDD002003E0C4E046E08BE001201B
:1017000088F80000A7E090ED020AD6ED040A20EE6A
:10171000081AF4EEC10AF1EE10FA04DD70EEC00A08
:101720000AE073E07AE060EE291AF4EEE10AF1EEE5
:1017300010FA03D270EE800AC6ED040AD6ED030A51
:10174000F4EEC10AF1EE10FA02DD30EEC00A08E054
:1017500020EE291AF4EEC10AF1EE10FA03D230EEAF
:10176000800A86ED030A99ED000A10EE101A02E0D5
:10177000D6E0FBE09CE0684A914203DD30EE480A87
:1017800089ED000A86ED059A79E0DBF8000070B378
:10179000C01E0E280CD2DFE800F0080B1C31222BF3
:1017A0000B150C10430B074D40E703208AF800008F
:1017B000F8E094BBB868143802E074BBB868143021
:1017C000B86048E04CBB012297EC020A0020B968DF
:1017D0003FE014BB97ED010A30EE280A04E0E4B9BB
:1017E00097ED010A30EE680A87ED010A33E034E034
:1017F0009CB997ED000A30EE680A04E06CB997EDE9
:10180000000A30EE280A87ED000A24E03B490878F8
:1018100000287FF40EAF022006E732E0012003E744
:101820007CBB36480178012902D00021017012E00A
:101830000221FBE72CBB6D1C0F2D22DD3748B0EEDB
:10184000490A0FC887E80F0000221146F0EE400A4F
:10185000022001F043FA0124A4E0002297EC020ADE
:101860001046B96801F03AFA99ED000A2A4A10EEDA
:10187000101A914203DD30EE480A89ED000A002477
:101880006FE614E0DBF8001011B3491F0B290ED2EC
:10189000DFE801F00E6C465A888806097E888100D0
:1018A000B6EE000A01E0BEEE000A86ED050A79E018
:1018B00096ED030AD0ED020A30EE200A86ED030A07
:1018C000D0ED010AB4EEE00AF1EE10FA39DC69E07D
:1018D00065E00000510200200AD723BC500200201E
:1018E0002C020020480200200AD7233C08020020D6
:1018F000DC59002000000000580200203C020020BB
:10190000FA000020045A002000A025460024744854
:101910009A9999BE9A99993E9A99993E586E00085B
:1019200096ED030AD0ED020A30EE600A86ED030A56
:10193000D0ED010AF1EE600AB4EEE00AF1EE10FA21
:1019400030D2C6ED030A2DE096ED040AD0ED020A6E
:1019500030EE600A86ED040AD0ED010AF1EE600A6D
:10196000B4EEE00AF1EE10FA0FD31BE096ED040A94
:10197000D0ED020A30EE200A86ED040AD0ED010A0D
:10198000B4EEE00AF1EE10FA0CDDC6ED040A09E04F
:1019900044B9002001E02CB90120044944E60024A8
:1019A00086ED059A0A2003F0AFFCAFE53C0200206B
:1019B000F0B5002201274FF0030C0B6807FA02F57F
:1019C0002B40AB422CD1066853000CFA03F4A6431B
:1019D00006600E79D0F800E09E4046EA0E060660EA
:1019E0000E79012E01D0022E12D18668A6438660A0
:1019F0004E79D0F808E09E4046EA0E0686604668BA
:101A0000AE43466045688E799640B6B23543456030
:101A1000C568A543C560CC799C40C3681C43C460BD
:101A2000521C102AC9D3F0BD4B07DB0E9A40C908DF
:101A300010B500EB8100016A0F249C40A1430162B4
:101A4000016A1143016210BD0246002012690A4278
:101A500000D0012070474183704701837047FEE743
:101A60004FF4E130FFF764B810B5FFEE002A2DED1A
:101A7000028BF7EE000A9FED298ADFED298AB2EE8C
:101A8000040AB0EE482AF0EE481AB0EE681A25486B
:101A900000F0D0FB2348FFEE002AB0EE482AF0EE1B
:101AA000481AB0EE681AF7EE000AB2EE040A3830AF
:101AB00000F0C0FB1B48FFEE002AB0EE482AF0EE13
:101AC000481AB0EE681AF7EE000AB2EE040A703057
:101AD00000F0B0FB1348FFEE002AB0EE482AF0EE0B
:101AE000481AB0EE681AF7EE000AB2EE040AA830FF
:101AF00000F0A0FBB0EE482AF0EE481AB0EE681AEB
:101B0000BDEC028BFFEE002A0648BDE81040F7EE60
:101B1000000AB2EE040AE03000F08CBB0000804600
:101B200000000000E0560020FEE7000010B5FFEEC8
:101B3000002A2DED068B9FED1D8ADFED1D8A9FED9E
:101B40001D9ADFED1D9A9FED1DAAB0EE482AF0EE1A
:101B5000681AB0EE491AF0EE690AB0EE4A0A18485F
:101B600000F068FB1648FFEE002AB0EE482AF0EEBF
:101B7000681AB0EE491AF0EE690AB0EE4A0A383037
:101B800000F058FBF0EE690ABDEC068BFFEE002A70
:101B9000F7EE081A0A48BDE810409FED0A2A9FEDAB
:101BA0000A1A9FED0A0A383800F044BBCDCC4C3DF0
:101BB0009A99993EC3F5A83E6F12833ACDCCCC3C9E
:101BC0000C590020000000008FC2753C8FC2F53C0C
:101BD0002DED048B04F01EF91E499FED1F9ADFEDD9
:101BE0001F8A00251E4C1F4FB0EE498A022608604E
:101BF000207848B3012802D0032825D113E038EE1D
:101C0000288A194B194A1A490620F1EE000AB0EE4B
:101C1000480A00F0E9FCB8B116483E702570B0EEF5
:101C2000498A057010E038EE288A134B134A14498C
:101C30000620F1EE0E0AB0EE480A00F0D5FC18B10D
:101C40003E70B0EE498A25700A21024803F092FBEB
:101C5000CEE700004C020020000000000AD7233C21
:101C6000FA00002058020020B8590020D4010020BA
:101C7000B00100203C020020945900208C0100207B
:101C8000680100207047000030B50F23C27801784A
:101C90000125FAB1144A126801F1E02102F4E06270
:101CA000C2F5E062C2F30722C2F10404D3404278D5
:101CB000A24084781C401443220181F8002400785B
:101CC00000F01F018D404009800000F1E020C0F8C5
:101CD000005130BD01F01F0085404809800000F12F
:101CE000E020C0F8805130BD0CED00E0024908430F
:101CF00002490860704700000000FA050CED00E0A2
:101D00000FB42DED040B70B52DED0C8BDDED141A19
:101D100031EEC00AFE4C84ED080A9DED150A30EE46
:101D2000600A84ED090ADDED160A70EEC10AC4ED01
:101D30000C0ADFEDF80A61EE200A9FEDF71A10EEAB
:101D4000100A80EE819A84ED0D9A05F009F841ECB5
:101D5000180B19EE100A05F003F841EC100B01F016
:101D600067FC53EC182B51EC100B04F039FD41ECDF
:101D7000190B206A04F0F4FF41EC180B606B04F0BF
:101D8000EFFF41EC100B01F0DFFB53EC182B51EC93
:101D9000100B04F025FD53EC192B04F0C7FA04F0E6
:101DA00093FAA062206A04F0DBFF41EC180B606B31
:101DB00004F0D6FF41EC100B01F03AFC53EC182B69
:101DC00051EC100B04F00CFD41EC190B606A04F0AF
:101DD000C7FF41EC180B606B04F0C2FF41EC100B25
:101DE00001F0B2FB53EC182B51EC100B04F0F8FC93
:101DF00053EC192B04F0CAFE04F066FAE06294ED8D
:101E0000050AD4ED0C0A9DED191AF7EE00DA60EE22
:101E1000200A94ED060A40EE010A30EE2D0A80EE0B
:101E2000801A84ED101A94ED020A30EE2D0A10EE9D
:101E3000100A04F095FF41EC1B0B606B04F090FF5F
:101E400041EC100B01F0F4FBB0EE408AF0EE608A3A
:101E500094ED100AD4ED0A0A20EE200A10EE100AC2
:101E600004F07EFF53EC182B04F0BAFC41EC1A0B83
:101E7000606B04F075FF41EC100B01F065FBB0EEF8
:101E8000408AF0EE608A94ED100AD4ED0B0A20EE41
:101E9000200A10EE100A04F063FF53EC182B04F034
:101EA0009FFC41EC190B606B04F05AFF41EC100BE6
:101EB00001F0BEFB189DB0EE408AF0EE608A284625
:101EC00004F04EFF53EC182B04F08AFC41EC180B85
:101ED000606B04F045FF41EC100B01F035FB9DED0C
:101EE00017DAB0EE40CAF0EE60CA1DEE100A04F038
:101EF00037FF53EC1C2B04F073FC53EC182B04F04D
:101F000015FA53EC192B04F011FA53EC1A2B04F0C8
:101F10003DFE41EC180BA06804F022FF53EC182B97
:101F200004F05EFC94ED010AD4ED0A0A41EC180BB2
:101F300020EE200A10EE100A04F012FF53EC182BCA
:101F400004F0F4F953EC1B2B04F098FA04F0BCF9FC
:101F5000A06394ED040A30EE2D0A10EE100A04F08E
:101F6000FFFE41EC1C0B606B04F0FAFE41EC100B21
:101F700001F0EAFAB0EE408AF0EE608A94ED100AC1
:101F8000D4ED0A0A20EE200A10EE100A04F0E8FE52
:101F900053EC182B04F024FC41EC1B0B606B04F099
:101FA000DFFE41EC100B01F043FBB0EE408AF0EE97
:101FB000608A94ED100AD4ED0B0A20EE200A10EE90
:101FC000100A04F0CDFE53EC182B04F009FC41EC90
:101FD0001A0B606B04F0C4FE41EC100B01F0B4FA74
:101FE000B0EE408AF0EE608A284604F0B9FE53EC69
:101FF000182B04F0F5FB41EC190B606B04F0B0FEFC
:1020000041EC100B01F014FBB0EE408AB1EE4D0A2A
:10201000F0EE608A10EE100A04F0A2FE53EC182BCA
:1020200004F0DEFB53EC192B04F080F953EC1A2B6F
:1020300004F0ACFD53EC1B2B04F0A8FD41EC180B95
:10204000206904F08DFE53EC182B04F0C9FBD4ED8D
:10205000030A94ED0B0A41EC180B20EE800A10EEF7
:10206000100A04F07DFE53EC182B04F05FF953ECDA
:102070001C2B04F003FA04F027F9E063606B04F012
:102080006FFE41EC100B01F0D3FAB0EE408AF0EE97
:10209000608AE06B04F064FE53EC182B04F0A0FBA4
:1020A00041EC190B606B04F05BFE41EC100B01F08E
:1020B0004BFAB0EE408AF0EE608AA06B04F050FE5E
:1020C00053EC182B04F08CFB53EC192B04F05EFD41
:1020D00004F0FAF8114D2861606B04F041FE41EC08
:1020E000100B01F031FAB0EE408AF0EE608AE06B3E
:1020F00004F036FE53EC182B04F072FB41EC190B84
:10210000606B04F02DFE41EC100B01F091FA07E03A
:10211000FC000020DB0F494000003443DC59002064
:10212000B0EE408AF0EE608AA06B04F019FE53EC2A
:10213000182B04F055FB53EC192B04F0F7F804F0BE
:10214000C3F8E86094ED100AB1EE400A85ED050A87
:10215000BDEC0C8B70BC5DF824FBB4EEE00AF1EE34
:1021600010FA01DDB0EE600AF1EE600AB4EEE00AAA
:10217000F1EE10FA01D2B0EE600A704730EEC00AFC
:1021800000B580ED050AD0ED040A70EE600AC0EDDE
:10219000060AD0ED010A20EE800AD0ED080AFFF70A
:1021A000DCFFD0ED000A90ED061AB0EE002A00EE3A
:1021B000810AD0ED050A90ED031A70EE811A90EDB8
:1021C000041A41EE421A90ED022A02EE210AD0EDE5
:1021D000091A70EE211AC0ED091A90ED0A0AF4EE00
:1021E000C01AF1EE10FA01DD80ED090AD0ED091AEE
:1021F000B1EE400AF4EEC01AF1EE10FA01D280ED11
:10220000090AF5EEC00A80ED031AF1EE10FAC0EDEE
:10221000040A01DCF1EE600A90ED0D0AF4EEC00A4A
:10222000F1EE10FA03D29FED020A80ED090A00BD1B
:102230000000000080ED082AC0ED0A1A012180ECA0
:10224000030A9FED0A0A80ED0B0A80ED030A80ED78
:10225000040A80ED090A80ED070A80ED050A80ED89
:10226000060A80F83010C0ED0D2A7047000000000B
:102270000020044A01461154401CC0B20928FAD378
:1022800070470000505A00202DE9F8430125074609
:10229000ADF800501B4800264670ADF800501A4CAF
:1022A00080464FF6FF7924E0BDF80000384202D0A6
:1022B000C4F8905201E0C4F89062C4F8945205202A
:1022C00001F088FFC4F89462052001F083FFC4F890
:1022D0009452D4F8180230B198F80110BDF80020DB
:1022E000114388F80110BDF8001009EA4100ADF86B
:1022F0000000BDF80000FF28D6D9BDE8F843102043
:1023000001F068BF505A00200000404270B5FFF74E
:10231000AFFF00F077F80B480B4AB0F803400A48CB
:10232000083244800020012512F8103000F101002D
:102330005B1E05FA03F12142C0B202D01028F3D38C
:10234000002070BD505A00200402002010B5154C2A
:102350000020C4F88C02102004F5237401F03AFF29
:102360000120FFF791FF4320FFF78EFF0020FFF7CA
:102370008BFF0120FFF788FF0020FFF785FF00207B
:10238000FFF782FF0020FFF77FFF0020FFF77CFFB1
:102390000020FFF779FF01202060BDE810401020E9
:1023A00001F018BF0000404210B5154C0020C4F8E1
:1023B0008C02102004F5237401F00CFF0120FFF7BC
:1023C00063FF4320FFF760FF0020FFF75DFF002061
:1023D000FFF75AFF5A20FFF757FF5A20FFF754FF25
:1023E0005A20FFF751FF5A20FFF74EFF5A20FFF700
:1023F0004BFF01202060BDE81040102001F0EABE34
:10240000000040422DE9FC4100268DF800600125C6
:10241000ADF80450224CC4F88C62224F3878FFF794
:1024200033FF7878FFF730FF02208DF800001E4F51
:102430004FF6FF782CE0ADF804501DE0C4F894523C
:10244000052001F0C7FEC4F89462052001F0C2FE29
:10245000C4F89452D4F8180240B19DF80000BDF8B9
:102460000410385C08439DF800107854BDF804103F
:1024700008EA4100ADF80400BDF80400FF28DDD9EA
:10248000102001F0A7FE9DF80000401C8DF8000010
:102490009DF800000928CED3C4F88C52BDE8FC8119
:1024A0000000404204020020505A002010B500F005
:1024B0000DF800F00BF800F009F8FFF747FF00F007
:1024C00027F8BDE81040FFF76FBF000010B50F4CB4
:1024D0000020C4F88C02102004F5237401F07AFE69
:1024E0000120FFF7D1FE4220FFF7CEFE0020FFF7CC
:1024F000CBFE0020FFF7C8FE0020FFF7C5FE01203D
:102500002060BDE81040102001F064BE0000404291
:1025100010B5144C0020C4F88C02012004F523747B
:10252000FFF7B2FE4420FFF7AFFE0020FFF7ACFE3E
:102530000120FFF7A9FE0320FFF7A6FE0020FFF70A
:10254000A3FE0020FFF7A0FE0020FFF79DFE002065
:10255000FFF79AFE01202060BDE81040102001F036
:1025600039BE0000000040422DE9FC41012108462F
:1025700000F042F9002540208DF804500326104F4A
:1025800000908DF8056001248DF8074069463846B3
:10259000FFF70EFA8DF8044038208DF806500090B1
:1025A0008DF805608DF8074069463846FFF700FA58
:1025B0000E213846FFF751FAFFF778FFBDE8FC819E
:1025C0000000024010B5FFF7A1FE0149486010BDB0
:1025D00004020020435C084463F30702407860F380
:1025E0000F2210B27047000070B5F7EE003A2DEDE3
:1025F000048BF0EE408A00EE100AB0EE608AB1EE75
:10260000082AB8EEC00AF0EE082A764D82B068EECD
:10261000800A754E80EE880ABDEEC00A10EE104AA0
:102620006C6400EE104AB8EEC00A60EE080A00EED4
:10263000100AB8EEC01A80EE810A00EE900A01EB93
:102640008400F8EEE00A38EEC00A20EE200A80EEA0
:10265000081A85ED121A33EEC10A21EE023A60EE35
:10266000000A20EE800AC0EE021A21EE220A60EE75
:10267000010A60EE810A43EE410AB1EE003AC5ED6F
:10268000131A30EE833AC3EE020AB8EE083A21EE8E
:10269000033A23EE013A23EE013A00EE013AC5ED8A
:1026A000140A01EE223A73EE232A82EE820A61EEC8
:1026B000012A62EE812A82EE821A85ED150A85EDE5
:1026C000161A90ED002A62EE212A90ED012A42EEC0
:1026D000202A90ED022A42EE002A90ED032A02EB16
:1026E000840042EE012AC6ED002A90ED002A90ED0A
:1026F000013A22EE212A03EE202A90ED023A03EE5F
:10270000002A90ED033A03EE012A03EB84009FEDCB
:10271000379A86ED012A90ED003A63EE211A90ED8A
:10272000013A43EE201AD0ED020A40EE801A90EDF5
:10273000030A40EE011AC6ED021AE86960B183EEA1
:10274000A80A86ED039A86ED049A86ED059A002084
:10275000E86185ED1A0A19E095ED170A72EEC00AD4
:1027600095ED1A0A60EE800AC6ED030AD5ED180A47
:1027700072EE600A60EE800AC6ED040AD5ED190A11
:1027800071EEE00A20EE800A86ED050A1648283828
:10279000D0E90E12CDE900121549283091EC030A58
:1027A0000FC8FFF7ADFA96ED000AF4EEC88A85ED82
:1027B000170A96ED010A85ED180A96ED020AF1EE68
:1027C00010FA85ED190A0ADD0A4880ED039A80EDBA
:1027D000049A0120E86102B0BDEC048B70BD0020BA
:1027E000F9E70000FC0000207C59002000000000F8
:1027F000045A0020DC590020044A0029116801D045
:10280000014300E08143116070470000303802400E
:10281000044A0029116801D0014300E0814311609E
:102820007047000040380240044A0029116801D076
:10283000014300E0814311607047000020380240EE
:10284000044A0029116801D0014300E0814311606E
:10285000704700004438024070B5204B1968204C86
:1028600011F00C0104D06610042903D0082903D00C
:1028700004601BE0066019E0184A121F1168C1F3DA
:102880008055116801F03F0115B1B6FBF1F101E08F
:10289000B4FBF1F114681268C4F388146143C2F305
:1028A0000142521C5200B1FBF2F1016019680F2283
:1028B00002EA11110B4A545C0168E14041601C6856
:1028C000072505EA9424145D21FA04F484601B684A
:1028D00005EA5333D25CD140C16070BD0838024074
:1028E0000024F400400000200CB50022274900928B
:1028F0000192086840F4803008604FF4A0430868F3
:1029000000F4003001900098401C0090019810B92C
:1029100000989842F3D10868800334D501200190D3
:102920001A484030026842F080520260184802683B
:1029300042F44042026015480830026802600268B2
:1029400042F400420260026842F4A0520260031F97
:10295000104A1A600A6842F080720A600A6892019E
:10296000FCD50D4940F205720A60016821F00301AF
:102970000160016841F0020101600168C1F3810159
:102980000229FAD10CBD01920CBD000000380240B2
:102990000070004008544007003C02401CB5012173
:1029A0000820FFF729FF4FF40060009000208DF809
:1029B000040003208DF8050001208DF8070069460A
:1029C0000148FEF7F5FF1CBD000C02404FF0E0216E
:1029D0000428086903D020F004000861704740F023
:1029E0000400FAE710B503F007FA012803D0BDE8A8
:1029F000104002F0F5BE10BD124810B5016841F458
:102A0000700101601048016841F0010101600E4A47
:102A100000210832116002680C4B1A400260031D4D
:102A20000B4A1A60026822F48022026006480C30C9
:102A30000160FFF759FF03494FF0006080390860DB
:102A400010BD000088ED00E000380240FFFFF6FEF8
:102A50001030002410B50A4C0121204600F04FF838
:102A6000012807D107490A684868521C40F1000054
:102A70000A6048602046BDE81040012100F032B8ED
:102A800000040040C80000207FB50D460446012127
:102A90000220FFF7BDFE0194ADF800500024104D58
:102AA000ADF80240ADF808406946284600F03CF811
:102AB00001221146284600F02EF80121284600F098
:102AC00014F81D208DF80C0001208DF80D008DF8F4
:102AD0000E408DF80F0003A8FFF7D6F87FBD000069
:102AE00000040040C943018270470029018802D0D8
:102AF00041F0010101E021F001010180704702462F
:102B00000020138A92890B4202EA010202D0002AB5
:102B100000D001207047002A828901D00A4300E0DA
:102B20008A4382817047000030B50288164C174DE9
:102B3000A0420DD0A8420BD0B0F1804F08D0144B6A
:102B4000984205D0134B984202D0134B984203D1C0
:102B500022F070034A881A43104B984206D0104B5B
:102B6000984203D022F440730A891A4302804A68CB
:102B7000C2620A880285A04201D0A84201D1897AA6
:102B800001860121818230BD000001400004014026
:102B90000004004000080040000C0040001000400D
:102BA000001400402DED068BDFED468A0124B0EEC7
:102BB000688A9FED45AADFED45AADFED459A454DB0
:102BC0004FF47A7726462878052871D2DFE800F09E
:102BD0000A4B226C0300FEF72BFCFEF739FC0020A9
:102BE000687065E0012C02D0022C03D00DE0FEF7E6
:102BF00037FC1DE0B0EE482AB0EE4A9A3BE085ED86
:102C0000019AB0EE688A032441E0032C42D0042CE0
:102C100047D04DE0052C04D0012C02D0022C09D065
:102C200046E0FEF70DFC384602F06EFBFEF710FCA6
:102C300002243DE0B0EE482AF0EE681A95ED011A44
:102C4000F0EE080AB0EE000AFDF7E6FD30B101240F
:102C5000C5ED018A0320B0EE688A28709FED1E0A38
:102C600038EE008A24E0012CC1D0022CCDD1B0EE88
:102C7000482AB0EE6A9A95ED011AF0EE491AF0EE84
:102C8000080AB0EE000AFDF7C7FD0028B7D138EEFC
:102C9000298A0DE0FEF7CCFB0424384602F034FB11
:102CA00006E06E70052403E0FEF7CAFBFEF7D0FBDA
:102CB000687808B1012801D100F000FB0A2002F079
:102CC00023FB80E7000000003B46F13F3B46F1BF9D
:102CD0000AD7233C50020020CDCC4C3DF0B50D4628
:102CE0002DED048B85B000218DF808102C4E174671
:102CF000F0EE608A8DF80910009002284CD003286D
:102D00004AD007209FED279AF0EE400A8DF80A007E
:102D1000B0EE490A00F07CFCDFED239AF0EE690A80
:102D200000F07EFCB0EE408AF0EE680AB0EE490A90
:102D300000F06EFCF0EE690A00F072FCF0EE408AE2
:102D40001020B0EE691AF0EE490AB0EE480A01F020
:102D500067FA04461020B0EE691AF0EE490AB0EEA8
:102D6000680A01F05DFA210A8DF80B108DF80C400D
:102D7000010A8DF80D108DF80E00280A8DF81050FC
:102D80008DF80F008DF8117069463046FEF7E7F9AF
:102D900005B0BDEC048BF0BD01208DF80A00F3E70F
:102DA000006800400000B4C20000B4420EB540F21A
:102DB00025510A4800F068F900280ED00848029012
:102DC000011F0A1FCDE90021131F083A10391838D6
:102DD00002F052F80349012088600EBD0050004007
:102DE000D05800203000002070B5164E40F225511A
:102DF000304600F049F9144C0025C8B1304600F0C7
:102E0000D1F9C1B2A088020415D4420404D50A291C
:102E10000DD140F4004012E00D290ED0C0F30D0298
:102E20000A4B401C80B29954A080C72800D9A580C5
:102E3000A088000400D5A58070BD40F48040A0802B
:102E4000F6E7000000100140300000206E02002074
:102E50002DE9F05FDFF88CB040F2255A002451468E
:102E6000584600F011F900283AD01F4F00250126DE
:102E700038780A282CD2584600F094F91B4A397841
:102E80005054491CC8B23870012823D9104410F896
:102E9000021CCC291ED110F8010CB946BB2819D14F
:102EA000022702F1D40807EB44011048FFF792FB18
:102EB00000EE100A08EB8400641CB8EEC00A032C74
:102EC00080ED000AEFDB89F8016089F8005001E02D
:102ED000BE703D7051465846BDE8F05F00F0C4B882
:102EE000BDE8F09F00440040300000206402002054
:102EF0002DE9F04123480125234E40F22557056076
:102F00003946304600F0C0F8012839D1304600F08B
:102F100049F91E49C0B2002408704A78052A1DD21A
:102F2000DFE802F003070F1A21000D2816D14D70BB
:102F300020E00A2802D00D281CD00FE08C7002205F
:102F40000FE0134B8A789854521CD0B2887018281E
:102F500010D38C70032004E00A2801D04C7009E0E3
:102F60000420487006E00D460D2802D1084800F004
:102F700021F96C7039463046BDE8F04100F074B874
:102F8000BDE8F0810000002000480040FC01002066
:102F9000385A002070B5084D40F225542146284685
:102FA00000F072F8002805D021462846BDE87040A0
:102FB00000F05AB870BD000000140140F0B507469B
:102FC00087B001210420FFF717FC01212020FFF723
:102FD00037FC234E082206213046FEF725FD082245
:102FE00007213046FEF720FDC020049002208DF816
:102FF00014008DF8150000248DF8164001258DF879
:10300000175004A93046FEF7D3FCADF808400C2059
:10301000144EADF80440ADF80A000097ADF8064034
:10302000ADF80C406946304600F066F801213046A4
:1030300000F020F8012240F22551304600F043F81C
:1030400047208DF8180003208DF819008DF81A40DC
:103050008DF81B5006A8FEF717FE07B0F0BD000064
:1030600000080240001401400A0A01219140C943AE
:10307000018070470029818902D041F4005101E0AC
:1030800021F400518181704770B501F01F050126C0
:103090000024C1F3421306FA05F2012B0FD0022BD4
:1030A0000FD0838A4FEA11210088134206FA01F6F5
:1030B00000EA060001D000B10124204670BD8389DA
:1030C000F0E7038AEEE710B5C1F3421301F01F04E5
:1030D0000121A140012B07D0022B07D01430002A78
:1030E000026805D00A4304E00C30F8E71030F6E738
:1030F0008A43026010BD00007FB50446008A0D4679
:10310000C98820F4405001432182A08941F20C611A
:103110008843A9882A8911436A8902431143A181FE
:10312000A08A20F44071A8890843A0826846FFF76E
:1031300093FB1A48844202D01948844201D1039873
:1031400000E00298A189090400EBC00101EB001026
:10315000296801D5490000E08900B0FBF1F0642244
:10316000B0FBF2F109010B096FF018056B4300EB9E
:103170008300A3891D044FF0320306D503EBC00082
:10318000B0FBF2F000F0070005E003EB0010B0FB2D
:10319000F2F000F00F00084320817FBD00100140D5
:1031A000001401408088C0F308007047C1F3080193
:1031B0008180704770B5384C2DED068BA4F10C055D
:1031C00090ED000A9FED36AA84ED000AD0ED010AC9
:1031D000DFED34AAC4ED010AD0ED020AC4ED020A03
:1031E000D0ED030AC4ED030AD0ED040AC4ED040ACD
:1031F000D0ED050A2948C4ED050AD0ED010A30EEEC
:10320000600A85ED020A60EE0A0A80EEAA0A10EE54
:10321000100A03F0A5FD41EC100B00F009FA9FED38
:10322000229B51EC100B53EC192B03F0D9FA41EC13
:10323000180BE06803F094FD53EC182B03F076F8BC
:1032400003F042F8286095ED020A60EE0A0A80EE6B
:10325000AA0A10EE100A03F083FD41EC100B00F0F7
:1032600073F99FED131B51EC100B53EC112B03F072
:103270008DFC53EC192B03F0B3FA41EC180B2069C9
:1032800003F06EFD53EC182B03F080FC03F01CF8E8
:103290006860BDEC068B70BD105A0020FC01002058
:1032A000DB0F494000003443000000A099C967408B
:1032B000000000000000F03FFEE7000070B5134C76
:1032C0000546FF212046FFF771FF0A2000F066FF48
:1032D00009212046FFF76AFF0A2000F05FFF002166
:1032E0002046FFF763FF0A2000F058FF29462046DA
:1032F000FFF75CFF0A2000F051FF00212046FFF796
:1033000055FFBDE870400A2000F048BF001401409E
:1033100010B52DED108BF0EE40EAB0EE60EA9FEDB7
:10332000730A21EE800ADFED720A80EE208A9FED9B
:10333000710A61EE008A18EE900A03F011FD41EC6B
:103340001B0B1EEE900A03F00BFD41EC190B18EE5F
:10335000100A03F005FD41EC100B00F069F953EC85
:10336000192B51EC100B03F03BFA41EC1A0B1EEE3B
:10337000100A03F0F5FC41EC190B18EE100A03F0EB
:10338000EFFC41EC100B00F0DFF853EC192B51EC83
:10339000100B03F025FA53EC1A2B03F0F7FB53EC58
:1033A0001B2B02F0C3FF9FED549B53EC192B03F032
:1033B00017FA9FED53AB53EC1A2B03F05FF802F0B2
:1033C00083FF514C206018EE900A03F0C9FC41ECD9
:1033D0001C0B1EEE900A03F0C3FC41EC1B0B9FED8F
:1033E0004B0A38EE00FA1FEE100A03F0B9FC41EC6C
:1033F000100B00F01DF953EC1B2B51EC100B03F0DC
:10340000EFF941EC1D0B1EEE100A03F0A9FC41EC94
:103410001B0B1FEE100A03F0A3FC41EC100B00F095
:1034200093F851EC100B02F043FF53EC1B2B03F00D
:10343000D7F953EC1D2B03F0A9FB53EC1C2B02F026
:1034400075FF53EC192B03F0CBF953EC1A2B03F057
:1034500015F802F039FF606018EE900A03F080FC66
:1034600041EC1B0B1EEE100A03F07AFC9FED280ABC
:1034700041EC1C0B38EE00DA1DEE100A03F070FC74
:1034800041EC100B00F0D4F853EC1C2B51EC100B5A
:1034900003F0A6F941EC180B1EEE900A03F060FC55
:1034A00041EC1C0B1DEE100A03F05AFC41EC100B12
:1034B00000F04AF853EC1C2B51EC100B03F090F980
:1034C00053EC182B03F062FB53EC1B2B02F02EFF86
:1034D00053EC192B03F084F953EC1A2B02F0CEFFB6
:1034E00002F0F2FEA060BDEC108B10BDDB0F494076
:1034F00000003443D578E93E0000000000D0814050
:10350000000000C0B88FCE3FF4590020920A863FD9
:10351000920A063F03B401984100009850EAC12086
:1035200018BF04204A0D18BF40F0010040F2FF729E
:10353000B2EB515F08BF40F00200012808BF052030
:1035400002B070470000000010B52F499FED2C1B02
:103550002DED020B84B0059820F000408842D8BFC2
:103560009DED040B2DDD2949884209D1049840B90D
:103570004FF00100FCF7FAFF00F0F2FC06B010BDBE
:1035800005DB9DED040B00F0DFFC06B010BD6846C6
:103590009DED040B00F0F0F810F0030004BF9DED6A
:1035A000021B9DED000B0CD001280ED09DED021BDF
:1035B0009DED000B022817D0012000F02DFC06B075
:1035C00010BD00F0F5FA06B010BD9DED021B9DED9B
:1035D000000B012000F020FC51EC100B02F068FE03
:1035E00006B041EC100B10BD00F0E2FA51EC100BEC
:1035F00002F05EFE06B041EC100B10BD00000000B2
:103600000000000000000000FB21E93F0000F07F07
:10361000B4EEE00AF1EE10FA01DAB0EE600A70479B
:10362000B4EEE00AF1EE10FA01D9B0EE600A70478C
:1036300010B52F499FED2C1B2DED020B84B0059882
:1036400020F000408842DCBF00209DED040B32DDFD
:103650002849884209D1049840B94FF00100FCF78D
:1036600085FF00F07DFC06B010BD05DB9DED040B71
:1036700000F06AFC06B010BD68469DED040B00F03A
:103680007BF810F0030011D0012818D09DED021B2B
:103690009DED000B02281AD000F08AFA51EC100BB5
:1036A00002F006FE06B041EC100B10BD9DED021BB2
:1036B0009DED000B012000F0AFFB06B010BD9DEDAD
:1036C000021B9DED000B00F073FA06B010BD012047
:1036D00000F0A2FB51EC100B02F0EAFD06B041EC49
:1036E000100B10BD000000000000000000000000F2
:1036F000FB21E93F0000F07F00B52DED048BB0EE1B
:10370000409AF0EE609A83B051EC190B03F072F915
:1037100041EC180B18EE100A18EE901A8DED008B84
:10372000002818BF0120084320F00040C0F17F604E
:1037300000F1E040C00F14D019EE101A19EE900AF3
:103740008DED009B002918BF0121084320F00040A7
:10375000C0F17F6000F1E040C00F04BF0120FCF722
:1037600005FFB0EE480A03B0F0EE680ABDEC048B2A
:1037700000BD0000000000002DE9F14F04462DEDD2
:10378000020B2DED088B8AB09FEDE70B80ED020B4D
:10379000139EE74826F0004585420ADC9DED120B9A
:1037A000002084ED000B0AB0BDEC088B03B0BDE82F
:1037B000F08FE0489FEDE0AB9FEDE1BBA84247DD15
:1037C000E14F9FEDE39B9FEDE48B9DED120B53ECDE
:1037D0001A2B51EC100B002E1CDD03F0D7F941EC35
:1037E000100BBD4208D053EC1B2B51EC100B03F017
:1037F000CDF9C4E900010BE053EC192B51EC100B8F
:1038000003F0C4F953EC182B03F0C0F9C4E900012C
:103810000120C8E702F08AFD41EC100BBD4208D040
:1038200053EC1B2B51EC100B02F080FDC4E900019E
:103830000BE053EC192B51EC100B02F077FD53EC1D
:10384000182B02F073FDC4E900014FF0FF30AAE726
:10385000C348A84279DB9DED120B51EC100B00F030
:10386000D3FC41EC180B9FEDC00B53EC102B02F076
:10387000B7FF9FEDBF1B53EC112B02F057FD02F079
:1038800055FF074602F081FF41EC190B53EC1A2B50
:1038900002F0A6FF53EC182B03F0A0F841EC180B34
:1038A00053EC1B2B51EC190B02F09AFFDFF8C8A266
:1038B00041EC100B4FEA15580125FA4453EC102B3C
:1038C00051EC180B03F062F9032DC4E900013DD05F
:1038D000C1F30A5005EB4511A8EB000011398142F4
:1038E00034DA0AEB051BB0EE48AA9BED000BF0EEB4
:1038F00068AA53EC102B51EC190B02F071FF41EC4C
:103900001B0B51EC1A0B53EC1B2B03F03FF941EC52
:10391000180B51EC1A0B53EC182B03F037F953EC3E
:103920001B2B03F033F99BED020B41EC1A0B53EC0C
:10393000102B51EC190B02F053FF53EC1A2B03F030
:1039400025F941EC100B6D1CB8E70EE0002EA8BF66
:103950003846BFF628AF94ED000B51EC100B02F087
:10396000A7FCC4E9000178421DE7C6F3130040F448
:10397000801EC6F30A50A0F2F530471100F01F0573
:10398000C5F12000DDF848B00890002006900790AF
:103990000520EC467949002D07EB0002794408BF69
:1039A00051F8221009D051F8223001EB8201AB40CE
:1039B0004A68089922FA01F11943A1FB0E26A1FBDE
:1039C0000B131A449A4234BF0123002303EB060869
:1039D0000CEB8003D3E901A60E448E4234BF0121D3
:1039E000002192448A4411B1924502D903E09245E4
:1039F00001D2012100E00021C3E901A641444CF8B5
:103A00002010011EA0F10100C4DC029800F100505A
:103A1000850F0298DDE903678000DDF8148002F06D
:103A2000B4FE41EC1A0B304602F0C6FE9FED541B6B
:103A300053EC112B02F0D4FE41EC1B0B384602F084
:103A4000BBFE9FED511B53EC112B02F0C9FE41EC64
:103A5000180B404602F0B0FE9FED4D1B53EC112BAE
:103A600002F0BEFE41EC190B51EC180B53EC192B74
:103A700002F05CFC53EC1B2B02F058FC53EC1A2BAD
:103A800002F054FCCDE90801002008909DED080BE0
:103A900053EC1A2B51EC100B03F078F853EC1B2B62
:103AA00003F074F853EC182B03F070F853EC192B57
:103AB00002F094FF9FED381B53EC112B02F090FEA7
:103AC0009FED370B41EC180B53EC102B9DED080BC1
:103AD00051EC100B02F084FE53EC182B02F026FC84
:103AE0009FED310B41EC180B53EC102B9DED080BA7
:103AF00051EC100B02F074FE53EC182B02F016FC84
:103B000041EC100B139810F0004F06D06D4251ECB1
:103B1000100B02F0CDFB41EC100B284684ED000B9E
:103B200041E600000000000000000000000000006E
:103B3000FB21E93F7CD9024000004054FB21F93FC2
:103B40003163621A61B4D03DFB21F93F00000000EF
:103B50000000601A61B4D03D7370032E8A19A33B34
:103B6000FB2139410000000083C8C96D305FE43F8C
:103B7000000000000000E03FDA35000028350000BA
:103B8000000000000000103E000000000000103C9B
:103B9000000000000000103A182D4454FB21F93DAC
:103BA0003326A611460B113C00000054FB21F93DC1
:103BB00010B52DED040B2DED088B82B0B0EE419ABF
:103BC000F0EE619A0B9820F000449FED4BABB4F1FE
:103BD000795F11DA9DED0A0B51EC100B02F0A6FD96
:103BE000002801BFB0EE4A0AF0EE6A0A02B0BDEC4E
:103BF000088B04BF04B010BD9DED0A0B53EC102BD5
:103C000051EC100B02F0ECFD41EC180B3C48062186
:103C1000B0EE480AF0EE680A784400F081F853EC00
:103C2000182B51EC100B02F0DBFD9DED0A0B41EC63
:103C30001B0B53EC192B51EC100B02F0D1FD41EC96
:103C4000190B53EC1B2B51EC180B02F0C9FD53EC74
:103C5000192B02F09BFF9FED2C0B41EC190B53EC41
:103C6000102B51EC180B02F0BBFD41EC100B284857
:103C7000844210DA53EC192B51EC100B02F086FF42
:103C800053EC1A2B02F0AAFE41EC100B02B0BDEC73
:103C9000088B04B010BD1F48A042BCBF9FED1E1B87
:103CA0008DED001B06DBA4F50010019000200090B4
:103CB0009DED001B51EC100B53EC112B02F066FF35
:103CC0009DED000B41EC180B53EC102B51EC1A0B33
:103CD00002F05CFF41EC1A0B53EC192B51EC180B62
:103CE00002F054FF53EC1A2B02F078FE41EC100B5B
:103CF000CCE7000000000000000000000000F03FE2
:103D00004C32000000000000000000000000E03F16
:103D10003333D33F0000E93F000000000000D23FF2
:103D200070B504462DED028B4D1E00EBC500B0EEC4
:103D3000408AF0EE608A90ED000B35F0060017D057
:103D400053EC182B51EC100B02F04AFD41EC100B18
:103D50006D1E04EBC50090ED001B51EC100B53ECF5
:103D6000112B02F0E3FA41EC100B35F00600E7D11D
:103D7000022D36D0042D1CD0062D1CBFBDEC028BAD
:103D800070BD53EC182B51EC100B02F029FD94ED93
:103D90000A1B53EC112B02F0C9FA53EC182B02F05A
:103DA0001FFD94ED081B53EC112B02F0BFFA41EC00
:103DB000100B53EC182B51EC100B02F011FD94ED8D
:103DC000061B53EC112B02F0B1FA53EC182B02F046
:103DD00007FD94ED040B53EC102B02F0A7FA41EC15
:103DE000100B53EC182B51EC100B02F0F9FC94ED76
:103DF000021B53EC112B02F099FA53EC182B02F032
:103E0000EFFC94ED001B53EC112B02F08FFABDEC8C
:103E1000028B41EC100B70BD31B504462DED040B47
:103E20002DED0A8BB0EE41BAF0EE61BA0B989DED24
:103E30000A0B20F00040B0F1795F0DDA51EC100B65
:103E4000FFF768FB042808BF00F09AF89DED0A0B05
:103E5000BDEC0A8B05B030BD53EC102B51EC100BB0
:103E600002F0BEFC41EC180B9DED0A0B53EC182B35
:103E700051EC100B02F0B4FC41EC190B2C48B0EEE5
:103E8000480AF0EE680A05217844FFF749FF9FEDE4
:103E90002ACBB0EE40AAF0EE60AA9CB353EC1C2BE8
:103EA00051EC190B02F09CFC41EC1C0B53EC1A2B4F
:103EB00051EC190B02F094FC9FED210B41EC190B16
:103EC00053EC102B51EC1B0B02F08AFC53EC192B1A
:103ED00002F05CFE53EC182B02F082FC53EC1B2B1F
:103EE00002F054FE53EC1C2B02F050FE9DED0A1B19
:103EF00053EC112B02F072FDBDEC0A8B05B041ECC6
:103F0000100B30BDFFE753EC1A2B51EC180B02F0ED
:103F100067FC53EC1C2B02F009FA53EC192B02F04E
:103F20005FFC9DED0A1B53EC112B02F0FFF9E3E758
:103F3000D430000000000000495555555555C5BF07
:103F4000000000000000E03F10B553EC102B51ECD6
:103F5000100B02F0EBF941EC100B10BD000000005B
:103F60009FED050B10B553EC102B51EC100B02F02C
:103F700085FA41EC100B10BD0000000000000000AD
:103F80009FED050B10B553EC102B51EC100B02F00C
:103F900027FC41EC100B10BD0000000000000010D9
:103FA0007047000000B585B000220090FF208DF81A
:103FB00008208DF8092008228DF80C008DF80D00DE
:103FC0008DF80A208DF80E008DF810008DF80B008A
:103FD0008DF80F008DF81100012905D0022905D0B8
:103FE00003290AD1FE2002E0FC2000E0FD208DF82C
:103FF000120069460248FDF7B2F805B000BD0000A6
:1040000000640040F0B58BB001210220FEF7F4FB04
:1040100001214806FEF7FCFB01218806FEF7F8FBAC
:10402000394D09220C212846FDF7FEFC09220D21FD
:104030002846FDF7F9FC4FF44051022408918DF811
:10404000244008A92846FDF7B3FC40208DF81C0049
:1040500001258DF81D508DF81E408DF81F5007A8C2
:10406000FDF712FE3F208DF81C008DF81D50032631
:104070008DF81E608DF81F5007A8FDF705FE234F31
:104080003846FCF7C9FE6846FDF759F800248DF85C
:1040900006408DF807408DF8084008208DF809404B
:1040A0008DF802408DF804008DF80A408DF8034029
:1040B0008DF80B508DF80560ADF800606946384604
:1040C000FCF782FF0E208DF816008DF817408DF852
:1040D0001850ADF80C40ADF81040ADF80E40ADF8FA
:1040E0001240ADF814408DF8195003A8FCF7AAFE51
:1040F000012202213846FCF75FFF012211463846B3
:10410000FCF75AFF0BB0F0BD00040240006800400D
:1041100000B585B000208DF808008DF80900082052
:104120008DF80A000D4980010090C8888DF80C00B8
:10413000020A8DF80B20C88A020A8DF80D208DF82E
:104140000E00C88C8DF81000010A8DF80F1069461A
:104150000348FDF704F805B000BD000090560020AC
:104160000064004010B504460420FEF72FFC0A4806
:104170004FF47A71047014FB01F1012242804FF078
:10418000E020026942F0020202614161016941F0EE
:104190000101016110BD00002C00002070B5044633
:1041A00001F02AFE01280CD0094D6888844203D30F
:1041B000B4FBF0F001F0A8F86888B4FBF0F100FB64
:1041C00011444FF47A706043BDE8704000F002B8CB
:1041D0002C00002070B54FF0E02500216C69094AE1
:1041E000AB6912785043AA699A42FCD002D2A3EB81
:1041F000020302E0A4EB0206334419441346814251
:10420000F1D370BD2C00002082B0CDE9000121F077
:10421000004001909DED000B02B051EC100B704777
:10422000012131EE601A814070EE600A491E00EEF5
:10423000101AB8EEC00A20EE800AC0EE010ABDEEE8
:10424000E00A10EE100A704703490A885206FCD5AE
:10425000C2B28A80704700000010014030B50346AA
:1042600000208C240DE013F8012B50400022C507DC
:1042700002D084EA500000E04008521CD2B2082A62
:10428000F5D3491E89B2EED230BD000002681E4946
:10429000A2F20122052A12D2DFE802F00307121D62
:1042A000280030F80B2F52BA25E030F80B2F52BA05
:1042B0000A82428852BA4A82808840BA888270470D
:1042C00030F80B2F52BA0A84428852BA4A84808846
:1042D00040BA8884704730F80B2F52BA0A86428859
:1042E00052BA4A86808840BA8886704730F80B1FD9
:1042F0004ABA054940310A80428852BA4A808088C9
:1043000040BA888070470000905600201CB54FF4DA
:104310004070FDF7EBFCA820FFF724FF4FF4165088
:10432000FEF74CFEFCF75CFCFDF79EFB4FF4FA74C5
:104330002046FFF733FF01210020FFF733FE204620
:10434000FFF72CFF03210020FFF72CFE2046FFF78C
:1043500025FF9FED310AF1EE041A9FED301AB0EE01
:10436000402AF0EE400A0020FCF736FBFFF74AFE39
:10437000FDF776FBFDF7DAFBFDF78AF8FEF70EFB9B
:10438000FEF7F2F8264C02E00A20FFF707FF20684C
:104390000028F9D023490020087000F06FFE204962
:1043A0000820091DCDE90001002380221EA1234819
:1043B00001F0F6FC1A4905200831CDE9000100237F
:1043C00080221FA1214801F0EBFC154907200C3188
:1043D000CDE90001002380221DA1204801F0E0FC6E
:1043E0000F4906201031CDE90001002380221CA1D5
:1043F0001E4801F0D5FC0A4909201431CDE900011D
:10440000002380221AA11D4801F0CAFC00F072FEB0
:1044100001F0CAF800201CBD00000000000034427A
:1044200000000020580200204368617373697344E0
:10443000726976655F7461736B0000006113000838
:10444000436173745F7461736B00000005120008B0
:104450004D6F76655F7461736B000000D11B0008BF
:1044600054616B655F7461736B000000A52B0008DD
:1044700046534D5F7461736B00000000E114000847
:104480002DE9F041184E0F460446F5683068001DCE
:1044900000F0B0FD38B9306890F82C100120884049
:1044A000316981433161601C07D137B13168BDE8A2
:1044B000F0410E48091D00F0D5BD30682C44AC42D7
:1044C0004460316805D2B06BBDE8F041091D00F0D1
:1044D000B1BD706B091D00F0ADFDB06A844200D221
:1044E000B462BDE8F08100005000002054060020B6
:1044F0002DE9F041054600F0C1FD2D4EB068401C8D
:10450000B06030682B4F10B1706930B32BE035606C
:10451000B068012827D1002404EB840007EB800059
:1045200000F07AFD641C202CF6D3234800F074FDC3
:104530002148143000F070FD1F48283000F06CFD59
:104540001D483C3000F068FD1B48503000F064FD11
:10455000194870631430B06305E03068E96AC06AD6
:10456000884200D83560706A0121401C7062A864DE
:10457000E86A326981401143316100EB800007EB4A
:104580008000291D00F06EFD00F0B4FD7069002868
:104590000CD03068E96AC06A884207D207494FF0F8
:1045A00080500860BFF34F8FBFF36F8FBDE8F0817D
:1045B00050000020840300200406002004ED00E0E9
:1045C00010B500F05BFD0E4C2068A0B90D4800F05E
:1045D00023FD0C48143000F01FFD0A48E060143041
:1045E000206100221021052001F010F9206010B197
:1045F00005A100F055FEBDE8104000F07BBD0000B5
:104600008C00002068060020546D725100000000EC
:1046100070B5124E124D1CE001F012F8306820B156
:10462000002401F017FDA4B901E00124F9E700F02E
:1046300025FDF068C468201D00F0DCFCA868401E61
:10464000A8606868401E686000F054FD204600F0D5
:1046500052F868680028DFD170BD000040060020D5
:104660005000002030B4026C0B46002A0BD0C16809
:104670001144C1604468A14201D30168C16030BCEB
:104680001846FBF71DBF30BC70472DE9F041856B24
:10469000174604460026026C82B1C7B1E068FBF7FA
:1046A0000FFFE168206C091AE1602268914202D292
:1046B0006168081AE060022F16D017E02068A8B9D8
:1046C000606801F021FC0646002060600EE0A068F2
:1046D000FBF7F6FE216CA0680844A0606168884280
:1046E00004D32068A06001E005B16D1E6D1CA563B8
:1046F0003046BDE8F08110B50446006B00F02CFD9B
:104700002046BDE8104000F027BD000010484FF4DF
:10471000A041420706D0C01D0D4920F00700411AF4
:10472000C1F5A0410B4A00230144C2E90003083946
:10473000103A21F0070111604B600B600B1AC0E9C1
:10474000001393604FF000405360D060704700004A
:1047500090060020BC000020074E4FF08054074D0B
:10476000FFF756FF30680128FAD92C60BFF34F8F4E
:10477000BFF36F8FF4E700008403002004ED00E036
:104780002DE9F047DDE909840E461746824691007F
:104790009946089DA522206BFBF7D7FE6FF0030119
:1047A000206B01EB8701084420F00707780705D04C
:1047B00040F22B3219A11EA0FBF7DCFD00202218CD
:1047C000315C82F83410315C11B1401C1428F6D3EE
:1047D000002684F84760202D00D31F25E562C4E938
:1047E0001456201D00F023FC04F1180000F01FFCFB
:1047F0002461C5F120006462A061A66584F85C6054
:104800004A465146384600F003FB2060B8F1000FDD
:1048100001D0C8F80040BDE8F08700002E2E5C46AD
:1048200072656552544F535C7461736B732E6300F1
:104830004572726F723A25732C25640D0A000000D0
:1048400030B5114900E011460A688242FBD34B683B
:104850005C18844203D140681844486008464368A5
:104860001C18944209D1084C103C2468A24209D07B
:1048700052681A4442600A6812680260814200D09D
:10488000086030BD0460F9E7BC00002070B500246A
:1048900041600B4D0061914206D8D11A8269914264
:1048A00006D2011D286907E09A4203D2994201D33A
:1048B000012403E0011DE86800F0BCFB204670BD48
:1048C0008C00002010B5044600F0D8FBA06B20B18E
:1048D000002400F00FFC204610BD0124F9E7000081
:1048E0002DE9F34100980F460026846C2CB940F660
:1048F000CE1216A11AA0FBF73DFDA06BE16B88421A
:1049000005D340F6CF1211A115A0FBF733FDA06B24
:10491000E16B88420CD294F945503A4669462046EC
:10492000FFF7B3FE0646681C05D06D1C84F84550A1
:104930003046BDE8FC81606A0028F9D004F124000B
:1049400001F03CFB0028F3D00126F1E72E2E5C4657
:1049500072656552544F535C71756575652E6300C1
:104960004572726F723A25732C25640D0A0000009F
:10497000F8B5054614480E46C068C068C468201DD6
:1049800000F038FBE069012817D1A0692B464119D6
:1049900032462046FFF77AFF78B1002003460146F1
:1049A00000902A46204601F03BFC30B907494FF4FD
:1049B000027201F11800FBF7DDFC616A01B02046CC
:1049C000BDE8F040084700008C000020846100082A
:1049D00070B586B02F4E53E00198002806DADDE965
:1049E0000301029A90470198002849DB039C606903
:1049F00010B1201D00F0FEFA05A800F0A7F805464A
:104A000001980A283CD2DFE800F00505053B27386D
:104A100005053B270298A169034601442A46204622
:104A2000FFF734FF00282BD0616A20468847E069F1
:104A3000012825D1002000900298A1690023421886
:104A40001946204601F0ECFBD0B940F2213212A108
:104A500017A0FBF78FFC13E00298A06128B94FF470
:104A60004E720DA112A0FBF785FCA0692B464119DF
:104A70001A462046FFF70AFF02E0204600F06CFBD2
:104A800000231A4601A9306800F0FCFE0028A3D1DB
:104A900006B070BD8C0000202E2E5C4672656552FB
:104AA000544F535C74696D6572732E63000000008F
:104AB0004572726F723A25732C25640D0A0000004E
:104AC000F8B50D46064600F0BBFD684600F03EF81E
:104AD0000446009810B101F0BDFAF8BD1148ADB11F
:104AE00001690968D9B10025311B2A46006800F028
:104AF000E9FB01F0AFFA0028EFD10B494FF08050ED
:104B00000860BFF34F8FBFF36F8FF8BDA642EBD89D
:104B100001F0A0FA21463046FFF72AFFF8BD012533
:104B2000E2E700008C00002004ED00E00648416B45
:104B3000096829B1416BC968C968496881627047D1
:104B40004FF0FF31FAE700005000002070B5054635
:104B500001F060F9064E0446B068844203D200F0CA
:104B600009F8012000E0002028602046B46070BDF4
:104B70008C000020F8B5184E26E0C068C4680568AF
:104B8000201D00F037FA616A20468847E069012855
:104B90001AD1A0692844A84206D924616060211D69
:104BA000F06800F047FA0FE000200346014600904D
:104BB0002A46204601F034FB30B9084940F29232CF
:104BC00001F11800FBF7D6FBF06801680029D4D189
:104BD0003169C6E90310F8BD8C000020846100082B
:104BE00008484068401C05D040F20F1206A111A0F1
:104BF000FBF7C0FB502080F31188BFF34F8FBFF34A
:104C00006F8FFEE7A00000202E2E5C467265655275
:104C1000544F535C706F727461626C655C525644A1
:104C2000535C41524D5F434D34465C706F72742E3D
:104C3000630000004572726F723A25732C25640D73
:104C40000A000000084CE068016839B1002139B160
:104C50000020FFF735FFFFF7BBFEF4E70121F6E781
:104C6000C0680068F5E700008C0000202DE9F041E5
:104C7000044600F003FA94F9455004F1240610E0CC
:104C8000A06C20B100212046FFF72AFE04E0606AF4
:104C900048B1304601F092F908B100F0C1FB6D1E39
:104CA0006DB2002DECDC4FF0FF3684F8456000F06B
:104CB00021FA00F0E3F994F9445004F1100709E0F7
:104CC000206948B1384601F079F908B100F0A8FB35
:104CD0006D1E6DB2002DF3DC84F84460BDE8F04138
:104CE00000F008BA2DE9F0410546002600F0A8FCC6
:104CF000324F386808B9FFF709FDF86805424FD10F
:104D0000002D4DD0083568070BD005F00700C0F125
:104D100008000544680704D0BF2229A132A0FBF790
:104D200029FB002D3CD07868854239D823491031C1
:104D30000846046801E0214604466068A84202D2A1
:104D400020680028F7D13868B846844228D00E6819
:104D50002068086060680836401B10280ED9671963
:104D6000780704D0EC2216A11FA0FBF703FB6068B4
:104D7000401B786038466560FFF762FD6168D8F8CF
:104D800004004246401AC8F80400D8F80830984297
:104D900000D29060D8F80C0001430020C4E9000163
:104DA00001F058F9700705D04FF4967204A10EA0D7
:104DB000FBF7E0FA3046BDE8F0810000AC000020CF
:104DC0002E2E5C4672656552544F535C706F727440
:104DD00061626C655C4D656D4D616E675C686561B7
:104DE000705F342E630000004572726F723A257353
:104DF0002C25640D0A0000000449086818B10868F1
:104E0000426D521C42650868704700005000002047
:104E100010B5031F4FF080741C601B1F21F00101AF
:104E20001960191F044B0B6014390A60091F6FF0D9
:104E3000020244380A6010BDE14B000800B585B09D
:104E400000208DF808008DF8090008208DF80A0070
:104E500040F2FF1000900648C0888DF80C00010A4F
:104E60008DF80B1069460348FCF779F905B000BDD1
:104E7000D0560020006400402DE9FF5F5248FEF745
:104E800091F9524C0022524DE178C0B2112909D05B
:104E900061780123A1B1012916D0022922D003296A
:104EA00003D137E0AA2801D0A07089E0A078552866
:104EB00005D1E2702870AA206870627022707FE0CD
:104EC000A870208163707BE0B4F904106B18491C52
:104ED000D87008B2A080B4F90810884270DBA280B4
:104EE000022015E0B4F908106A18C91CD07089B204
:104EF0003748FFF7B3F92070B4F908102944C9788E
:104F0000814203D033A0FBF735FA59E06078401CAA
:104F1000607055E0B4F9060010B1012802D04FE0EE
:104F2000E3804DE0294E93460A36E280B71C06F135
:104F3000040C06F1060806F1080906F10A0AB4F99C
:104F400006002918CA7832544A793A54CA790CF8BA
:104F500000204A7A08F80020CB7A09F800304A7B12
:104F60000AF80020401C00B2E0800228E7DB00982D
:104F7000B6F9001001600198B7F9001001600298BD
:104F8000BCF9001001600398B8F9001001600E9898
:104F9000B9F9001001600F98BAF90010016010987B
:104FA000697A017084F801B084F802B01121E170CF
:104FB00084F800B0A4F808B0A4F804B0A4F806B0CF
:104FC00004B00020BDE8F09F00500040E400002045
:104FD00038580020526563656976656420646174A1
:104FE0006120636865636B2073756D206572726FF5
:104FF00072210000D0E9013201699A60D0E90123F1
:105000005A604A68824201D182684A600022026185
:105010000868401E0860704700F108014FF0FF3239
:10502000C0E90112C16001610021016070470021E7
:105030000161704730B50C68621C02D000F10802B3
:1050400002E0026904E01A4653681D68A542FAD9D5
:1050500053684B6099608A60516008610168491C1F
:10506000016030BD42684A6093688B609368596004
:10507000916008610168491C01607047502080F30D
:105080001188BFF34F8FBFF36F8F09494868401CE9
:10509000486001280AD10748006810F0FF0F05D0CA
:1050A00040F2B91204A10FA0FBF764B970470000E9
:1050B000A000002004ED00E02E2E5C4672656552D3
:1050C000544F535C706F727461626C655C525644ED
:1050D000535C41524D5F434D34465C706F72742E89
:1050E000630000004572726F723A25732C25640DBF
:1050F0000A00000010B5084C606828B94FF4E0724F
:1051000006A111A0FBF736F96068401E606001D16E
:1051100080F3118810BD0000A00000202E2E5C46F8
:1051200072656552544F535C706F727461626C6546
:105130005C525644535C41524D5F434D34465C7063
:105140006F72742E630000004572726F723A25739D
:105150002C25640D0A00000070B500282AD0164DD9
:10516000A0F108046068E968084205D14FF4A07214
:1051700012A11CA0FBF7FEF8206828B140F24112F2
:105180000EA118A0FBF7F6F86068E968084211D094
:105190002268002A0ED18843606000F051FA6068EE
:1051A0006968084468602046FFF74AFBBDE8704024
:1051B00000F050BF70BD0000AC0000202E2E5C46F9
:1051C00072656552544F535C706F727461626C65A6
:1051D0005C4D656D4D616E675C686561705F342E16
:1051E000630000004572726F723A25732C25640DBE
:1051F0000A00000006484FF47A710068B0FBF1F134
:105200004FF0E020491E4161072101617047000015
:105210001800002010B5FBF787F8104C10280CD3AD
:1052200000F1E02090F8F0032178884205D24FF495
:1052300040720BA115A0FBF79DF818480068A16803
:1052400000F4E060884207D9BDE810404FF4447292
:1052500003A10EA0FBF78EB810BD0000A000002037
:105260002E2E5C4672656552544F535C706F72749B
:1052700061626C655C525644535C41524D5F434DD4
:1052800034465C706F72742E630000004572726F5A
:10529000723A25732C25640D0A0000000CED00E025
:1052A00010B5074B002253F832401CB1521C082A9B
:1052B000F9D310BD43F8321003EBC201486010BDB2
:1052C0004403002070B515460E460446FFF7D6FE8F
:1052D00094F944100020491C01D184F8440094F949
:1052E0004510491C01D184F84500FFF703FFA06B6E
:1052F00028B92A46314604F1240000F0C1F82046BE
:10530000BDE87040FFF7B2BC10B5040012D00E49E2
:10531000096B29B140F2CF420CA111A0FBF72AF88A
:1053200000F08EF900212046FFF7AAF800F092FE67
:10533000002807D10E494FF080500860BFF34F8F0F
:10534000BFF36F8F10BD0000500000202E2E5C4672
:1053500072656552544F535C7461736B732E6300B6
:105360004572726F723A25732C25640D0A00000095
:1053700004ED00E02DE9F0410E4605004FF0000479
:1053800005D140F279421BA11FA0FAF7F3FF2EB915
:1053900040F27A4217A11CA0FAF7ECFF1E4F386BBF
:1053A00028B140F27B4213A117A0FAF7E3FF00F007
:1053B00047F9FA6828688119904202D9884202D8D0
:1053C00004E0884201D8914200D9012429601CB12F
:1053D000881A0021FFF754F800F03CFE002807D19E
:1053E0000E494FF080500860BFF34F8FBFF36F8FAF
:1053F000BDE8F0812E2E5C4672656552544F535CB9
:105400007461736B732E63004572726F723A257309
:105410002C25640D0A0000005000002004ED00E07F
:1054200001490120C86170475000002070B50D4649
:10543000040005D140F6063207A10CA0FAF79AFF46
:105440000E48016820461831FFF7F4FD2846BDE8F4
:1054500070400121FFF714B82E2E5C46726565522C
:10546000544F535C7461736B732E63004572726F9B
:10547000723A25732C25640D0A00000050000020AC
:1054800070B514460E46050005D140F6313209A12B
:105490000DA0FAF76FFF1048016828461831FFF792
:1054A000E1FD0CB14FF0FF3621463046BDE87040BB
:1054B000FEF7E6BF2E2E5C4672656552544F535C74
:1054C0007461736B732E63004572726F723A257349
:1054D0002C25640D0A0000005000002070B5040067
:1054E00039D01D4DE06A2968C96A884233D2A06963
:1054F000002804DB2868C06AC0F12000A061E06ACF
:10550000164E00EB8000616906EB800081421FD1DE
:10551000201DFFF76FFD012150B9E06A00EB80020A
:1055200056F8222022B92A6901FA00F082432A6142
:105530002868C06AE0622A6981401143296100EB52
:10554000800006EB8000211DBDE87040FFF78ABD9A
:105550002868C06AE06270BD50000020840300200B
:1055600010B5040005D140F6C13205A109A0FAF733
:1055700001FF0C48016A2160C068606010BD000036
:105580002E2E5C4672656552544F535C7461736B8A
:10559000732E63004572726F723A25732C25640D69
:1055A0000A000000500000201CB518480024CDE976
:1055B00000402346822216A1174800F0F1FB012883
:1055C00003D100F0F3FD01280AD0401C1DD102B028
:1055D00040F28472BDE8104010A115A0FAF7CABECF
:1055E000502080F31188BFF34F8FBFF36F8F0748B0
:1055F0004FF0FF312C38816201214161C460FBF71B
:105600000DFFBDE81C4000F061B81CBD7C0000200F
:1056100049444C4500000000594700082E2E5C46C6
:1056200072656552544F535C7461736B732E6300E3
:105630004572726F723A25732C25640D0A000000C2
:105640000248016B491C01637047000050000020B4
:1056500070B5134D286B10B10120E86170BD0020BA
:10566000E86128690F4EB0FA80F0C0F11F0000EB2E
:10567000800456F8240028B940F6F6220AA10FA0AB
:10568000FAF778FE06EB840000F1080241684968E9
:105690004160914201D149684160C868286070BD8D
:1056A00050000020840300202E2E5C467265655257
:1056B000544F535C7461736B732E63004572726F49
:1056C000723A25732C25640D0A0000001CB5304C7D
:1056D00020683049884205D140F259122EA139A0E4
:1056E000FAF748FE20682B49491E884205D14FF43D
:1056F000AD7229A133A0FAF73DFE364C2078019017
:10570000FF20207020788DF800009DF800009DF8A3
:10571000001000F0F000884205D040F273121EA184
:1057200028A0FAF727FE9DF800002B4A00F0500051
:1057300010700720906007E09068401E90609DF810
:10574000000040008DF800009DF800000006F3D432
:10575000107A000200F4E0609060019820700C481C
:105760002030016841F470010160016841F070412E
:105770000160FFF73FFD00205060FAF79DFD1748DC
:10578000016841F040410160FAF786FD00201CBD30
:1057900000ED00E071C20F412E2E5C46726565522D
:1057A000544F535C706F727461626C655C52564406
:1057B000535C41524D5F434D34465C706F72742EA2
:1057C000630000004572726F723A25732C25640DD8
:1057D0000A00000000E400E0A000002034EF00E038
:1057E00010B5502080F31188BFF34F8FBFF36F8F38
:1057F00000F016FB18B104494FF0805008600020FB
:1058000080F3118810BD000004ED00E02DE9F041A7
:1058100017460E46050005D14FF4C47210A115A01D
:10582000FAF7A8FDBEB105FB06F05430FFF75AFAAF
:1058300004000ED004F154007EB12060C4E90F567C
:105840002046012100F0E0F884F850700021204645
:10585000A164BDE8F0810020E7E72460EEE70000E6
:105860002E2E5C4672656552544F535C717565759A
:10587000652E63004572726F723A25732C25640D94
:105880000A0000002DE9FF4F83B09B468A460400C2
:105890004FF0000605D140F2DC4251A155A0FAF7C5
:1058A00069FDBAF1000F07D1206C28B140F2DD424A
:1058B0004BA150A0FAF75EFD00F09EFA38B90598AA
:1058C00028B14FF49C6246A14AA0FAF753FD4FF06D
:1058D00000094FF08057DFF82C81FFF7CFFBA56B55
:1058E00045B351462046E668FEF7BCFEBBF1000F0B
:1058F00013D0E660606A50B104F1240000F05EFB52
:1059000028B1C8F80070BFF34F8FBFF36F8FFFF758
:10591000F1FB012007B0BDE8F08F6D1EA563206884
:1059200010B9FFF769FA606020690028EFD004F130
:105930001000E3E7059808B11EB106E0FFF7DAFBB7
:1059400027E06846FFF70CFE0126FFF7D3FBFFF7C1
:1059500077FEFFF793FB94F94400401C01D184F8D3
:10596000449094F94500401C01D184F84590FFF71C
:10597000C1FB05A9684600F0CFF9002820460AD0EF
:10598000FFF774F900F066FB2046FEF79BFF002846
:10599000A3D00020BEE7FEF795FFD8B1206830B94C
:1059A000FFF76CFB6068FFF799FDFFF7A3FB04F1BD
:1059B00024000599FFF73AFD2046FFF757F900F05C
:1059C00049FB002889D1C8F80070BFF34F8FBFF39F
:1059D0006F8F82E72046FFF749F900F03BFB7CE739
:1059E0002E2E5C4672656552544F535C7175657519
:1059F000652E63004572726F723A25732C25640D13
:105A00000A00000004ED00E070B50D46040005D169
:105A100040F21B121CA121A0FAF7ACFCFFF72EFBF1
:105A2000D4E90F20216802FB001161600021A1630D
:105A30002168A1600A46D4E90F01401E00FB012144
:105A4000E16021464FF0FF3001F8440F487004F147
:105A500010004DB1FFF7E0FA04F12400FFF7DCFA83
:105A6000FFF748FB012070BD21690029F8D000F044
:105A7000A5FA0028F4D00D494FF080500860BFF31C
:105A80004F8FBFF36F8FEBE72E2E5C46726565522A
:105A9000544F535C71756575652E63004572726F66
:105AA000723A25732C25640D0A00000004ED00E015
:105AB0002DE9FF4F83B099468B4604004FF0000656
:105AC00005D140F2D92252A156A0FAF753FCBBF1FE
:105AD000000F07D1206C28B140F2DA224CA151A06E
