:020000040800F2
:10000000080B01208D020008673900082130000824
:10001000453900081D190008316200080000000081
:10002000000000000000000000000000FD55000876
:100030009D200008000000001D0300085157000823
:10004000A7020008A7020008A7020008A7020008EC
:10005000A7020008A7020008A7020008A7020008DC
:10006000A7020008A7020008A7020008A7020008CC
:10007000A7020008A7020008A7020008A7020008BC
:10008000A7020008A7020008DD140008551900089F
:1000900021190008A7020008A7020008A70200080B
:1000A000A7020008A7020008A7020008A70200088C
:1000B000A7020008A7020008A7020008A70200087C
:1000C000A7020008A7020008A7020008A70200086C
:1000D000A7020008095B0008995B0008355C00086E
:1000E000A7020008A7020008A7020008A70200084C
:1000F000A7020008A7020008A7020008A70200083C
:10010000A7020008A7020008A7020008A70200082B
:10011000D15A0008A7020008A7020008A702000899
:10012000A7020008A7020008A7020008A70200080B
:10013000A7020008A7020008A7020008B9190008D2
:1001400071190008A7020008A7020008A70200080A
:10015000A7020008A7020008A7020008315D0008F6
:10016000A7020008A7020008A7020008A7020008CB
:10017000A7020008A7020008A7020008A7020008BB
:10018000A7020008A702000800F002F800F06FF8CC
:100190000AA090E8000C82448344AAF10107DA45E2
:1001A00001D100F064F8AFF2090EBAE80F0013F0C5
:1001B000010F18BFFB1A43F001031847B0A100005C
:1001C000D0A100000A444FF0000C10F8013B13F0DE
:1001D000070408BF10F8014B1D1108BF10F8015BA0
:1001E000641E05D010F8016B641E01F8016BF9D193
:1001F00013F0080F1EBF10F8014BAD1C0C1B09D1EA
:100200006D1E58BF01F801CBFAD505E014F8016B5B
:1002100001F8016B6D1EF9D59142D6D370470000ED
:100220000023002400250026103A28BF78C1FBD8FF
:10023000520728BF30C148BF0B607047662909F0DC
:100240003887642900F01281732900F0D2830020DE
:1002500070471FB509F023FF00F0E2FB0400002007
:10026000002109F0BFF8E0601FBD10B510BD00F01F
:10027000F3FC1146FFF7EDFF08F0C6F800F011FDA2
:1002800003B4FFF7F2FF03BC06F062FF09488047A2
:1002900009480047FEE7FEE7FEE7FEE7FEE7FEE768
:1002A000FEE7FEE7FEE7FEE704480549054A064B80
:1002B000704700006D5700088901000808050120FB
:1002C000080B01200807012008070120EFF3108028
:1002D00072B6704780F310887047264C4FF6FF7552
:1002E00025604FF0000484F30988234C4FF001058A
:1002F0002570224C4FF08055256062B6FEE730B481
:100300001E4C4FF08055256030BC704730B41B4CFC
:100310004FF08055256030BC704700BF72B6EFF3D8
:10032000098050B11EF0100F08BF20ED108A203850
:1003300080E8F00F12490968086000B5114880474D
:100340005DF804EB104811490A7802700C48104916
:100350000A680260106890E8F00F20301EF0100F5D
:1003600008BFB0EC108A80F309884EF0040E62B624
:10037000704700BF22ED00E08600002004ED00E0A1
:100380008C000020D14100087B0000207C00002070
:1003900094000020704700000FB4044910B503AA70
:1003A000029800F02BFB10BC5DF814FB4400002009
:1003B0002DE9F0410E460446002020622046E16807
:1003C000884730B3252805D0D4E901219047206A19
:1003D000401CF2E7E168204600278847050018D056
:1003E000A5F14100192802D820354FF400673246A4
:1003F000294620462760FFF721FF40B1012804D09D
:10040000F61D26F007060836D8E7361DD6E728463B
:10041000DAE7206ABDE8F08170B50C460546012A8E
:1004200005D02878800600D5EA69002302E0012380
:1004300005E05B1C934202D2E05C0028F9D1A86978
:10044000E618C01AA861286A184428622846AFF343
:10045000008004E0D5E9012114F8010B9047B44273
:10046000F8D32846AFF3008070BD00002DE9F041BD
:100470000646002410687529314616A510D0AFF342
:100480000080002802DA404213A507E031688A079D
:1004900001D512A502E0490704D511A5012401E008
:1004A000AFF3008000210A2206F1240709E0B0FB27
:1004B000F2FCB0FBF2F302FB1C003030785418461B
:1004C000491C0028F3D123462A463046BDE8F041B6
:1004D00000F017B8000000002D0000002B00000005
:1004E00020000000704770477047704710B500F05B
:1004F0009BFA006810BD10B5044600F095FA046040
:1005000010BD2DE9F0470D4699469246044600F18C
:1005100024080168880604D5E06921F010012160F3
:1005200000E00120A84201DD471B00E00027A1698F
:100530007A1902EB0900081AA0612078C00602D4DB
:100540002046AFF30080002608E0D4E901211AF824
:1005500006009047206A401C761C20624E45F4DB62
:100560002078C0060AD52046AFF3008006E0D4E923
:10057000012130209047206A401C2062381EA7F1DC
:100580000107F4DC07E0D4E9012118F805009047E1
:10059000206A401C2062281EA5F10105F3DC2046DC
:1005A000AFF300802078000602D50220BDE8F08776
:1005B0000120FBE770472DE9FF4F0C461E464FF028
:1005C000FF378BB0D2E90001DDF860800A908A46DF
:1005D000C1F30A5505B93D46002108464FF0000019
:1005E000BAF1000F00F4400005DA00EB80004FF490
:1005F000400101EA50004FEA9059B9F1010F00DDC6
:10060000B9460A9850EA4A000ED044F61050A5F2B6
:10061000FF3545432F14B8F1000F1ED07542291E37
:100620001EDDC9F100021CE0B8F1010F4FF000001F
:1006300001D0302103E0F24305E02154401CB042D8
:10064000FBDB30460022002121540B99C1F80880C1
:10065000C1E900200FB0BDE8F08FBD1B6D1CDEE7C7
:100660004A4600DA694206A800F080FA06AB93E831
:10067000070003AB83E8070050460A9900F05AFBD5
:100680008DE80700A0F500501F3800900398002D5A
:1006900009DD42F21F014A46084403A90390684657
:1006A00000F0B9FD08E0A0F500504A461F3803A944
:1006B0000390684600F0C3FD8DE807000004000CBD
:1006C00003D04FF0FF30410800E01046B8F1000FB2
:1006D00003D00022009215461EE0751E05D400F0DE
:1006E000A7F9303262556D1EF9D5B3460122084391
:1006F00002D000227F1C04E02078302801D10022A3
:100700007F1E002A099786D01DE0112D07DA00F020
:100710008FF9303262556D1C50EA0102F5D1084361
:1007200002D00098C8B10EE00021681E05E0235CED
:10073000625C63542254401E491C8142F7DBAB4685
:10074000A81B401E0990002004F80B000B98099A82
:10075000C0F80880C0E9002B7CE711264FF00008A4
:1007600059E72DE9F04F88460446D21D22F00701D3
:1007700091B0D1E90001CDE90A0105F099FF0246E7
:100780000B98C00F01D02D2007E02068810701D50C
:100790002B2002E0202101EAC000032A099001D0A9
:1007A000072A05DB03464146204600F09FF90BE18E
:1007B0002078800601D5E06900E00620B8F1650FD9
:1007C000814606D0B8F1660F18D0B8F1670F70D126
:1007D00031E00020B9F1110F009001DB112301E09D
:1007E00009F101030AAA01A90CA8FFF7E4FEDDE95B
:1007F0000C70002609F10105834647E001204B46B5
:1008000000904FF000470AAA01A90CA8FFF7D3FEF9
:10081000DDE90DB00C995D46002610B909F1010023
:100820000D18B9EB050003D4C0F1FF3609F101053D
:10083000A5EB09002BE0B9F1010F01DA4FF0010936
:100840000020B9F1110F0090484601DD112300E0AE
:1008500003460AAA01A90CA8FFF7ADFEDDE90C705A
:100860004D4600268346207800070AD4AB4500DABF
:100870005D4601A8012D04DD411911F8011C302944
:1008800007D04F4502DA17F1040F04DA012082463F
:100890000FE06D1EEEE7002F02DCED1B3E4403E08F
:1008A000781CA84200DD7D1CB81B00F1010A4FF046
:1008B00000472078000703D4AA4501DB4FF0FF3A38
:1008C0000021B7F1004F0DF143088DF8431024D0FB
:1008D00002202B23002F01DA7F422D230A21021E42
:1008E000A0F1010000DC5FB197FBF1FC97FBF1F296
:1008F00001FB1C7C17460CF1300C08F801CDEEE72B
:10090000A8F1010003702188090501D5452100E007
:100910006521A0F1010800F8011C09980FA9A1EBBD
:100920000807FF1D00B10120411901EBEA70A16920
:100930003844081A401EA0612078C00602D4204620
:10094000AFF30080099828B1D4E901219047206ACB
:10095000401C20622078C00622D52046AFF30080DC
:100960001EE0002E04DBB34502DD01A8805D00E03F
:100970003020D4E901219047206A401C2062761C77
:10098000AAF101005FEA000A0AD100F049F8C06844
:100990000168405CD4E901219047206A401C206234
:1009A000281EA5F10105DCDC07E0D4E9012118F8D7
:1009B000010B9047206A401C2062381EA7F10107F6
:1009C000F3DC2046AFF30080032011B043E610B5FE
:1009D000436913B1AFF3008001E0FFF71DFD012073
:1009E00010BD127800F124010A7000224A70012221
:1009F000EDE711684FF0FF32E9E70000074B70B5F3
:100A00000D467B4400F05FF80446284600F01CF9D0
:100A100010B14FF0FF3070BD204670BD1B7200005A
:100A200000487047C804012000487047A80401200E
:100A300030B5B0F10A024FEA900E71F100034EEAB0
:100A4000817EB0EB0E0061EB91014FEA101E4EEA81
:100A5000017E10EB0E0041EB11114FEA102E4EEA11
:100A6000016E10EB0E0041EB11214FEA104E4EEAE1
:100A7000014E10EB0E0041EB1141401841F1000115
:100A80004FEAD00040EA41704FEAD10110EB8005F7
:100A90004FEA810444EA907444EB01046D1944EB7D
:100AA0000404521BA3414FF0000348BF0A3200D593
:100AB00030BD401C41F1000130BD000001694A1CFD
:100AC00002610878704700B58FB0CDE9013100218F
:100AD000059105497944CDE9031011466846FFF7B1
:100AE00067FC0FB000BD0000E5FFFFFF2DE9F041FE
:100AF0001F46044603260168072A01F4006004DB50
:100B000008B116A505E016A503E008B115A500E09B
:100B100015A521F010002060A069C01EA0610FB1D2
:100B2000401EA0612046AFF300804FB1D4E90121FF
:100B300038469047206A401C2062C01C206206E0B4
:100B4000206AFAE7D4E9012115F8010B9047761ED7
:100B5000F8D22046AFF30080BDE8F0814E414E0050
:100B60006E616E00494E4600696E66002DE9F047E1
:100B7000814616468AB0334878440DC88DE80D008A
:100B800030487844801C03AC0DC884E80D0041F661
:100B90009B300844372190FBF1F290FBF1F5A5F171
:100BA000800501FB12041B3C02D56442012000E0D9
:100BB0000020DFF890A080460027FA44AAF1BE0A80
:100BC0000DE0E00709D03246684607EB47010AEB23
:100BD000810100F034FB8DE8070064107F1C002CBD
:100BE000EFD1184F7F44AC3F18E0E80714D007EB73
:100BF00004100DF1180A90E80E008AE80E00C06893
:100C0000F04201D198190890324606A903A800F0D5
:100C100016FB03AB83E807006D10641C002DE4D1C4
:100C200032466946B8F1000F03A802D000F0F3FA8B
:100C300001E000F004FBC9E90001C9F808200AB08E
:100C4000BDE8F087D8970000007B00F08000704777
:100C500000487047A80401207546FFF7F9FFAE462B
:100C600005006946534620F00700854618B020B5B8
:100C7000FFF71AFBBDE820404FF000064FF00007D9
:100C80004FF000084FF0000B21F00701AC46ACE834
:100C9000C009ACE8C009ACE8C009ACE8C0098D46A1
:100CA000704710B50446AFF300802046BDE8104001
:100CB000FFF7E6BA4FF0013C50F8042B51F8043B23
:100CC0009A4221D1A2EB0C03934313EACC1317D120
:100CD00050F8042B51F8043B9A4215D1A2EB0C03B7
:100CE000934313EACC130BD150F8042B51F8043B77
:100CF0009A4209D1A2EB0C03934313EACC13DBD045
:100D00004FF00000704700BFD01A01BAB1FA81F16C
:100D100001F0180122FA01F0CB40C1F12001DBB251
:100D2000C0B2C01A2CFA01F3D11A914311EAC311CF
:100D3000E6D170475FEA400C08BF91F0000F4FEA20
:100D40008C234FEAC12243EA51514FEA1C5018BF8D
:100D500000F5F0404FEA300018BF41F000415FEA73
:100D60006C5C00F02980BCF1FF3F08BF40F0804080
:100D70007047130C06BF12044FF0100C4FF0000C1C
:100D8000130E04BF12020CF1080C130F04BF120162
:100D90000CF1040C930F04BF92000CF1020CD30F62
:100DA00004BF52000CF1010C11464FF00002A0F1FB
:100DB0001F00A0EB0C00704711F0004F08BF7047F8
:100DC00031F000413FF4D5AF0B0C06BF09044FF0E2
:100DD000100C4FF0000C0B0E04BF09020CF1080CB4
:100DE0000B0F04BF09010CF1040C8B0F04BF890029
:100DF0000CF1020CCB0F04BF49000CF1010CCCF13B
:100E00002003A0EB0C0022FA03F302FA0CF241EAF1
:100E1000030100F10100704720F07F4C80EA0300DD
:100E200023F07F47ACEB070303F57C5300F0004051
:100E300003F1FF032DE980494FEA154B09B44FEA4E
:100E4000144325EA0B4E24EA03480FF2042606EB6E
:100E5000132749083E785FEA320203FB0667C7F5AD
:100E6000000707FB06F64FEA54374FEAD64606F16D
:100E7000020607FB066CCCF1005C4FEA1C472CEA2B
:100E8000074C07FB06F40CFB06F504EB15464FEA8E
:100E9000961634BF00204FF000404FEAD13706FBD2
:100EA00007FC4FEA1C4C0CFB0BF7D21B03FB0CF7A7
:100EB00061EB07010CFB0EF7B0EB074072EB17423A
:100EC0000CFB08F734BFA2EB0742B2EB074261EB21
:100ED00017414FEA0C444FEA910706FB07FC4FEA23
:100EE0001C4C0CFB0BF7B0EBC74072EB573203FB0B
:100EF0000CF734BFA2EBC742B2EBC74261EB5731EC
:100F00000CFB0EF7B0EBC70072EB57720CFB08F747
:100F100034BFA2EBC702B2EBC70261EB5771039F6C
:100F20004FEA816141EA921104EBCC044FEAD137D8
:100F30004FEA826206FB07FC42EA90124FEA8060A9
:100F40004FEA1C4C0CFB0BF7D21B03FB0CF761EBBD
:100F500007010CFB0EF7B0EB074072EB17420CFBDE
:100F600008F734BFA2EB0742B2EB074261EB17412F
:100F70004FEA8C554FEA910704EB9C2406FB07FCD3
:100F80004FEA1C4C0CFB0BF7B0EBC74072EB57322F
:100F900003FB0CF734BFA2EBC742B2EBC74261EBD5
:100FA00057310CFB0EF7B0EBC70072EB57720CFB1E
:100FB00008F734BFA2EBC702B2EBC70261EB57716F
:100FC00015EB4C254FEA816141EA92114FEA8262AA
:100FD0004FEAD13742EA901206FB07FC44F10004C5
:100FE0004FEA80604FEA1C4C0CFB0BF7D21B03FB53
:100FF0000CF761EB07010CFB0EF7B0EB074072EB4F
:1010000017420CFB08F734BFA2EB0742B2EB0742D2
:1010100061EB174115EB1C154FEA813141EA924112
:101020004FEA823242EA90424FEA80304FEA0C7631
:1010300044F1000448EA03434EEA0B484FF0000E27
:10104000B2EB080C71EB030724BF624639464EEB46
:101050000E0E4FF0000B0018524149414BEB0B0BA9
:10106000B2EB080C71EB03077BF1000B24BF624667
:1010700039464EEB0E0E4FF0000B0018524149411D
:101080004BEB0B0BB2EB080C71EB03077BF1000B86
:1010900024BF624639464EEB0E0E51EA020718BFD6
:1010A00046F0010616EB0E7655F1000254F10001F0
:1010B00003D5BDE88901BDE80088BDE88901BDE828
:1010C0000048B619524141EB0101A3F101037047F9
:1010D00080807F7E7D7C7B7A797877767675747375
:1010E000727171706F6E6E6D6C6C6B6A6A69686834
:1010F000676666656464636362616160605F5F5ECA
:101100005E5D5D5C5C5B5B5A5A595958585757563F
:1011100056555555545453535252525151505050A4
:101120004F4F4F4E4E4D4D4D4C4C4C4B4B4B4A4AF6
:101130004A4949494848484747474746464645453A
:101140004544444444434343434242424241414173
:10115000002B26D4770021D01CB54FEA370703B403
:101160004FF010004FF010014FF000000FBCBDE831
:1011700010400BF1010BBBF1010F08BF5FEA17072D
:1011800022BF12F1010211F101014FF0004143F1C0
:10119000000300F0004043EA00007047F9D357080D
:1011A000DAE746EA064613F1400F4FEA16461FDD1E
:1011B00013F1200FDFBF16430A46002120335B42A4
:1011C000C8D0C3F1200746EA064602FA07F74FEAFD
:1011D000164646EA0706C3F1200722FA03F201FA8F
:1011E00007F721FA03F14FF0000342EA0702B1E7E3
:1011F00046EA020646EA06464FEA164646EA01066F
:10120000BCBF46EA0646360C4FF000034FF0000222
:101210004FF000019EE72DE9C048934630B491E8B5
:10122000380007C831EA400C48BF34EA430C03D504
:10123000FFF7F2FDFFF78CFFF0BCBDE800882DE959
:10124000C048934630B491E8380007C810F0804F8A
:1012500008BF13F0804F03D100F005F8FFF778FFC7
:10126000F0BCBDE8008820F07F4780EA030023F04F
:101270007F4C07EB0C03A3F57C5300F00040A3F177
:10128000FE0392F0000F00F0B38095F0000F00F025
:1012900077802DE901494FEA11404FEA144621EACF
:1012A000004800FB06FC24EA064708FB06F607FB9D
:1012B00008F800FB07F718EB06484CEB164C4FEA12
:1012C000124B18EB07484FEA15464CEB174022EA41
:1012D0000B4E0BFB06FC25EA06470EFB06F607FB4A
:1012E0000EFE0BFB07F71EEB064E4CEB164C4FF0B9
:1012F00000061EEB074E4CEB174B18EB0B0840F1AA
:10130000000018EB0E0B58EB000840F100008F1A9C
:101310004FF000013CBFC943661B14BFB5EB040C82
:1013200000213CBFC943F61B4FEA17444EEA8E0E1C
:1013300027EA04454FEA1C4704FB07622CEA074CE6
:1013400005FB07F70CFB05F604FB0CFC16EB074648
:1013500042EB174216EB0C4642EB1C421BEB060617
:1013600058EB0202414146EA9E0601D5BDE80189DB
:10137000B619524141EB0101A3F10103BDE8018916
:101380004FEA14454FEA114724EA054621EA074C83
:1013900005FB07F406FB07F70CFB06F105FB0CFC4D
:1013A00011EB074144EB17444FEA124711EB0C4194
:1013B00044EB1C4422EA074C05FB07F206FB07F747
:1013C0000CFB06F605FB0CFC16EB074642EB17423E
:1013D00016EB0C4642EB1C456A1854F1000148BF5D
:1013E0007047B619524141EB0101A3F10103704767
:1013F00095F0000F37D04FEA11424FEA144721EA27
:10140000024624EA074C02FB07F106FB07F70CFB38
:1014100006F402FB0CFC14EB074441EB17414FEAC6
:10142000154714EB0C4441EB1C4125EA074C02FB29
:1014300007F506FB07F70CFB06F602FB0CFC16EBA8
:10144000074645EB174516EB0C4645EB1C421219B7
:1014500051F1000148BF7047B619524141EB0101FB
:10146000A3F1010370474FEA14454FEA114724EAFC
:10147000054621EA074C05FB07F106FB07F70CFBC5
:1014800006F24FF0000605FB0CFC12EB074241EBA5
:10149000174112EB0C4251EB1C4148BF70479218A8
:1014A00041EB0101A3F10103704700220A12D3436B
:1014B0000360704770B502460020002300240B1221
:1014C000556801268E4005EA060415681D4015B1D1
:1014D0000CB1012000E0002070BD000010B540F20A
:1014E00005210548FFF7E6FF012804D140F2052158
:1014F0000148FFF7DAFF10BD002201402DE9F0435B
:101500002DED068B85B00546F0EE409AB0EE60AA50
:10151000B0EE418AF0EE618AB0EE429A00208DF87A
:1015200008008DF8090008208DF80A000095022DAA
:101530001CD1F0EE690ABAEE090A05F035F9F0EEB1
:10154000401AF2EE090A05F03CF9F0EE409AF0EE8E
:101550004A0A9FED630A05F027F9F0EE401ADFED25
:10156000610A05F02EF9B0EE40AA1BE0F0EE690A20
:101570009FED5D0A05F018F9F0EE401ADFED5B0A09
:1015800005F01FF9F0EE409AF0EE4A0ABBEE0E0AA3
:1015900005F00AF9F0EE401AF3EE0E0A05F011F923
:1015A000B0EE40AAF0EE480A9FED510A05F0FCF8B3
:1015B000F0EE401ADFED4F0A05F003F9B0EE408A75
:1015C000F0EE680A9FED4A0A05F0EEF8F0EE401AD8
:1015D000F1EE040A05F0F5F8F0EE408AF0EE490A63
:1015E000BBEE020A05F0E0F8F0EE401AF3EE020A54
:1015F00005F0E7F8B0EE409A022D14D11020B2EEBB
:10160000091AFAEE090AB0EE690A06F0EFFA064680
:101610000C209FED341ADFED320AB0EE4A0A06F0D4
:10162000E5FA044613E010209FED301ADFED2E0A94
:10163000B0EE690A06F0DAFA06460C20B3EE0E1A8E
:10164000FBEE0E0AB0EE4A0A06F0D0FA04460C2071
:101650009FED281ADFED260AB0EE480A06F0C6FA1A
:1016600007460C20B1EE041ADFED210AB0EE680A3D
:1016700006F0BCFA80460C20B3EE021AFBEE020A1A
:10168000B0EE490A06F0B2FA8146300A8DF80B0036
:10169000F1B28DF80C10C4F307118DF80D10200174
:1016A00040EA2720C1B28DF80E10F9B28DF80F1064
:1016B000C8F307118DF810104FEA081040EA2920EE
:1016C000C1B28DF8111009F0FF018DF812106946B2
:1016D000094800F01EFC05B0BDEC068BBDE8F083A8
:1016E000000082C2000082420000BFC20000BF4270
:1016F000000000000000FA430068004070B5034697
:10170000D87A012830D1597B187B41EA0024987B94
:101710000101D87B41EA2015197CD87B00F00F002D
:1017200041EA00261021DFED120A9FED120A204641
:1017300007F03EFE104880ED000A0C21F3EE0E0A81
:10174000BBEE0E0A284607F033FE0B4880ED010A77
:101750000C21F3EE020ABBEE020A304607F028FE27
:10176000054880ED020A00E000BF00BF70BD000028
:101770000000BF420000BFC2C87E002010B5134861
:101780008078032820D112480078A8B9114812495E
:101790000860202001F03CFC00B910BD9FED0F0A4D
:1017A0000F4880ED020A0F480B490860084800788E
:1017B000401C0749087006E0042004498870002096
:1017C0000349087000BF00BF00BFE6E7000000202B
:1017D000A9030020F4000020F00000200000000019
:1017E000E47C0020D48B002010B588B00446012191
:1017F000022003F00FFE0121880403F01BFE0722E4
:101800000B21234801F0CEF907220A21204801F0DC
:10181000C9F94FF44060059002208DF818008DF84A
:10182000190000208DF81A0001208DF81B0005A971
:10183000174801F06FF901940020ADF80800ADF8E9
:101840000A00ADF80C00ADF810000C20ADF80E0049
:1018500001A9104804F0C2FB01210E4804F062FB0C
:10186000012240F225510B4804F092FB27208DF80D
:101870001C0007208DF81D0000208DF81E0001209F
:101880008DF81F0007A802F06FF808B010BD000027
:10189000000402400048004010B504461B48007890
:1018A000401C1A49087008460078642828DA94ED2C
:1018B000000ADFED170AB4EEE00AF1EE10FA0BDDD4
:1018C00094ED000ADFED130A30EE600A84ED000AA1
:1018D0002046FFF7E1FF13E094ED000ADFED0E0A6A
:1018E000B4EEE00AF1EE10FA0AD294ED000ADFED50
:1018F000090A30EE200A84ED000A2046FFF7CCFFEB
:1019000002480078401E0149087010BD9401002073
:10191000000034430000B443000034C300BFFEE7BE
:1019200000B585B002210A4800F048F970B16A4656
:101930000021074800F065FA6846FFF7DFFE6846B9
:1019400006F0AEFC0221024800F044F805B000BDEC
:101950000064004010B50121044800F02FF918B1CF
:101960000121024800F036F810BD0000006400407C
:1019700000B585B002210F4800F020F9C0B16A46D9
:1019800000210C4800F03DFA9DF8080060B99DF870
:10199000080048B99DF80A00082805D1684601F0FA
:1019A00029F9684601F04EFA0221024800F012F8C7
:1019B00005B000BD0068004010B50121044800F0EA
:1019C000FDF818B10121024800F004F810BD000034
:1019D00000680040B1F5007F3AD00FDC202928D004
:1019E00006DC01291CD004291DD0082940D11DE0A6
:1019F000402921D0B1F5807F3AD126E0B1F5004FE2
:101A000031D006DCB1F5806F25D0B1F5006F2FD154
:101A100024E0B1F5803F12D0B1F5003F28D111E0AC
:101A2000154A826025E00822C26022E01022C260CE
:101A30001FE0082202611CE01022026119E0082266
:101A4000426016E01022426013E00422426010E07F
:101A5000042242600DE0042242600AE0002282611A
:101A60000422426005E0002282610422426000E01C
:101A700000BF00BF704700000101010010B504461F
:101A80000B48844209D10121480603F0E3FC002100
:101A90004FF0007003F0DEFC08E00121880603F03F
:101AA000D9FC00214FF0806003F0D4FC10BD000091
:101AB0000064004010B50021837A012202FA03F18C
:101AC0003D4A126842F001023B4B1A603A4A1C320E
:101AD00012688A43384B1C331A60027BCAB9364AF3
:101AE0000C3212688A43344B0C331A604288C38824
:101AF00042EA0343304A4032847A42F83430028862
:101B0000838842EA03432C4A4032847A02EBC402BF
:101B10005360027B012A19D1274A0C3212680A430A
:101B2000254B0C331A604288038842EA0343224A59
:101B30004032847A42F83430C288838842EA0343D0
:101B40001D4A4032847A02EBC4025360C27A3AB929
:101B5000194A121D12688A43174B1B1D1A6006E0B2
:101B6000154A121D12680A43134B1B1D1A60028985
:101B700032B9114A143212688A430F4B14331A6077
:101B80000289012A06D10C4A143212680A430A4B10
:101B900014331A60427B012A06D1074A1C321268AC
:101BA0000A43054B1C331A60034A126822F00102F3
:101BB000014B1A6010BD00000066004070B504467D
:101BC0000D46002660692840002871D0B5F5807F59
:101BD0005CD010DC082D35D006DC012D20D0022D84
:101BE00024D0042D72D127E0102D31D0202D35D0F6
:101BF000402D6BD138E0B5F5004F60D009DCB5F56C
:101C0000007F49D0B5F5806F4CD0B5F5006F5DD140
:101C10004FE0B5F5803F2DD0B5F5003F56D12FE010
:101C2000A0682D4900F008FA064651E0E06803215B
:101C300000F002FA06464BE0E068082100F0FCF9EB
:101C4000064645E0E068102100F0F6F906463FE060
:101C50002069032100F0F0F9064639E020690821E7
:101C600000F0EAF9064633E02069102100F0E4F9BB
:101C700006462DE06068082100F0DEF9064627E000
:101C80006068102100F0D8F9064621E0A069012122
:101C900000F0D2F906461BE0A069022100F0CCF961
:101CA000064615E0A069042100F0C6F906460FE0DB
:101CB0000FE0A069702100F0BFF9064608E06068F7
:101CC000042100F0B9F9064602E0FFE7002600BF54
:101CD00000E00026304670BD010101001AB14369E1
:101CE0000B43436102E043698B434361704730B566
:101CF000024600200023146824F0020414601468D3
:101D000044F00104146000E05B1C546804F001041A
:101D10001CB94FF6FF74A342F6D1546804F00104D5
:101D20000CB900206CE08C79012C04D1146844F0CB
:101D30008004146003E0146824F080041460CC79FB
:101D4000012C04D1146844F04004146003E01468CA
:101D500024F0400414600C7A012C04D1146844F07F
:101D60002004146003E0146824F0200414604C7A0A
:101D7000012C04D1146844F01004146003E01468CA
:101D800024F0100414608C7A012C04D1146844F0FF
:101D90000804146003E0146824F008041460CC7A8A
:101DA000012C04D1146844F00404146003E01468A6
:101DB00024F0040414608C78A407CD7844EA056408
:101DC0000D7944EA05444D7944EA05540D886D1EA9
:101DD0002C43D461146824F001041460002300E053
:101DE0005B1C546804F001041CB14FF6FF74A3425D
:101DF000F6D1546804F001040CB1002000E0012089
:101E000030BD10B500F5D87303EB01131B6803F068
:101E100004031372137A53B900F5D87303EB01135B
:101E20001B6840F2FF7404EA5353136009E000F5A5
:101E3000D87303EB01131B686FF0604404EAD3030B
:101E4000536000F5D87303EB01131B6803F0020322
:101E5000537200F5D87303EB01135B6803F00F03B3
:101E6000937200F5D87303EB01135B681B0AD374FC
:101E700000F5D87303EB01139B68D37200F5D87398
:101E800003EB01139B681C0A147300F5D87303EB72
:101E900001139B681C0C547300F5D87303EB0113FA
:101EA0009B681B0E937300F5D87303EB0113DB687B
:101EB000D37300F5D87303EB0113DB681C0A1474A9
:101EC00000F5D87303EB0113DB681C0C547400F5A8
:101ED000D87303EB0113DB681B0E937421B9C3683D
:101EE00043F02003C36003E0036943F02003036170
:101EF00010BD00218171C171017241728172C17284
:101F00008170C170032101710221417101210180A1
:101F1000704710B502460020936803F08063B3F168
:101F2000806F00D110E0936803F00063B3F1006F9D
:101F300001D1012008E0936803F08053B3F1805F82
:101F400001D1022000E00420042874D002F5C073FF
:101F500003EB00131B6803F0010402F5C07303EBED
:101F600000131C600B7A7BB94B7A0C8843EA44530C
:101F700002F5C07404EB00142468234302F5C07416
:101F800004EB0014236010E00B7A4C6843EAC403AE
:101F90004C7A234302F5C07404EB001424682343F5
:101FA00002F5C07404EB001423608B7A03F00F0376
:101FB0008B7202F5C07303EB00135B6823F00F0410
:101FC00002F5C07303EB00135C6002F5C07303EB12
:101FD00000135B688C7A234302F5C07404EB001491
:101FE00063608B7B1C064B7B44EA03440B7B44EA17
:101FF0000323CC7A234302F5C07404EB0014A360DE
:102000008B7C1C064B7C44EA03440B7C44EA032390
:10201000CC7B234302F5C07404EB0014E36002F5AB
:10202000C07303EB00131B6843F0010402F5C07397
:1020300003EB00131C6010BD0246002002EA0103FE
:102040000BB1012000E000207047000010B50446ED
:102050001048006838B900F0C5FF0F4880ED000A4D
:1020600001200C49086000F0BDFF0B48D0ED000ACC
:1020700070EE600A00EE104AB8EEC00AF4EEC00A34
:10208000F1EE10FA04DD002002490860012010BDC5
:102090000020FCE7B4030020B0030020704702E0FA
:1020A000052002F097F8FBE7FDE3F94800680128F6
:1020B00013D1F8490870F84890ED000AF74880ED10
:1020C000000AF54890ED010AF54880ED000A00206D
:1020D00048700021F34803F0DDFBEE480078182833
:1020E00072D2DFE810F018008800BF00AF01B00125
:1020F000EE0116024F027402AD02D2020B03680316
:10210000D00321045A048403710095047100710006
:10211000A7042F03AA030020E24934310860091DF7
:102120000860642002F056F8012005F05FFC4FF4CF
:10213000967002F04FF84FF47A7002F04BF84FF4BB
:102140007A7002F047F84FF47A7002F043F84FF4D7
:102150007A7002F03FF84FF47A7002F03BF84FF4D7
:102160007A7002F037F84FF47A7002F033F84FF4D7
:102170007A7002F02FF84FF47A7002F02BF84FF4D7
:102180007A7002F027F80120C2498870202000F000
:1021900021FF50B10020C44908800120BD4988704A
:1021A000152008700020487024E0102000F012FF75
:1021B00058B10020BC4908800120B649887012201F
:1021C00008700020487015E0FDE340F21450B54956
:1021D00034310860091D08604FF47A7001F0FAFF8D
:1021E00040F28340AF4934310860091D0860022085
:1021F000A849087023E20020AB4908800120A549C6
:1022000088704FF47A7001F0E5FF532144F61F60A7
:1022100001F0B2FA4FF47A7001F0DCFF4FF47A70FB
:1022200001F0D8FF00209F4934310860091D086083
:102230004FF4FA7001F0CEFF40F214509949343156
:102240000860091D08604FF4FA7001F0C3FF40F206
:102250008340944934310860091D086002208D498B
:102260000870F7E3002090490880012000F0B2FEDA
:10227000F0B39FED8E2AF7EE001AB2EE041ADFEDEE
:102280008B0A9FED8B0A0120FFF738F99FED872A13
:10229000F7EE001AB2EE041ADFED840A9FED840A0D
:1022A0000220FFF72BF99FED812AF7EE001AB2EE1C
:1022B000041ADFED7E0A9FED7E0A0320FFF71EF968
:1022C000042074490870012048700320887064203D
:1022D00001F080FF012005F0BDFB6F4890ED000A82
:1022E0006E4880ED000A6C4890ED010A6C4800E0F1
:1022F00001E080ED000A022000F06CFEE8B140F23F
:102300008D40684934310860091D08600D2061491D
:10231000087001204870642001F05CFF012005F086
:1023200099FB5D4890ED000A5C4880ED000A5A4830
:1023300090ED010A5A4880ED000A042000F04AFEA0
:10234000E8B140F2A640574934310860091D0860E1
:102350000E205049087001204870642001F03AFFB7
:10236000012005F077FB4C4890ED000A4B4880EDCA
:10237000000A494890ED010A494880ED000A08200A
:1023800000F028FEE8B140F28D4046493431086043
:10239000091D08600F203F49087001204870642023
:1023A00001F018FF012005F055FB3B4890ED000AB5
:1023B0003A4880ED000A384890ED010A384880ED2F
:1023C000000A402000F006FEE8B140F28D40354999
:1023D00034310860091D086016202E49087001205C
:1023E0004870642001F0F6FE012005F033FB2A4816
:1023F00090ED000A294880ED000A274890ED010A77
:10240000274880ED000A102000F0E4FD50B10020C4
:10241000244934310860091D086012201D490870E4
:1024200000204870202000F0D5FD50B100201D494B
:1024300034310860091D0860152016490870002015
:10244000487007E306E313484078022834D19FED33
:10245000170A184880ED030A9FED140A80ED040A5C
:102460009FED120A80ED050A4FF491600D49343159
:102470000860091D0860012005F0B8FA502001F03D
:10248000A9FE0520034908700120887018E00000AB
:10249000C4000020000000207C8B00200C000020E5
:1024A0001000002000180040200000200000000064
:1024B00000000080648B00209FEDFB0A03F0E0FA2F
:1024C000C8E2FA488078022822D140F29640F849C2
:1024D0000860091D08600620F44908700120487052
:1024E000642001F077FEF34890ED030AF24880ED96
:1024F000000A0020ED49C870F04890ED000AF0484D
:1025000080ED000AED4890ED010AEE4880ED000AEA
:10251000A0E2E648407802282FD140F29640E449F4
:102520000860091D08601FED1F0AE74880ED030AD7
:102530001FED220A80ED040A1FED240A80ED050A32
:10254000642001F047FE0320D8498870642001F020
:1025500041FE012005F07EFAD4488078042810D18D
:102560000720D2490870012005F040FA642001F0EC
:1025700031FE0120CD49887003E09FEDCB0A03F0C6
:102580007FFA67E2C948807802281FD140F2A9404B
:10259000C7490860091D08600820C4490870012067
:1025A0004870642001F016FEC24890ED030AC2484C
:1025B00080ED000AC14890ED000AC14880ED000A94
:1025C000BE4890ED010ABF4880ED000A42E2B748DC
:1025D000407802282FD140F2AA40B5490860091D71
:1025E00008601FED4E0AB84880ED030A1FED510A3E
:1025F00080ED040A1FED530A80ED050A642001F006
:10260000E9FD0320A9498870642001F0E3FD012061
:1026100005F020FAA5488078042810D10920A349A4
:102620000870012005F0E2F9642001F0D3FD0120DB
:102630009E49887003E09FED9C0A03F021FA09E2AD
:102640009A48807802281FD140F29140984908604A
:10265000091D08600A20954908700120487064200F
:1026600001F0B8FD934890ED030A934880ED000A0D
:10267000924890ED000A924880ED000A8F4890ED54
:10268000010A904880ED000AE4E188484078022879
:102690002FD140F2934086490860091D08601FED64
:1026A0007D0A894880ED030A1FED800A80ED040A47
:1026B0001FED820A80ED050A642001F08BFD0320E6
:1026C0007A498870642001F085FD012005F0C2F987
:1026D00076488078042810D10B20744908700120B6
:1026E00005F084F9642001F075FD01206F498870C0
:1026F00003E09FED760A03F0C3F9ABE16B48807805
:1027000002281ED100206A490860091D08601020B7
:102710006649087001204870642001F05BFD65483F
:1027200090ED030A644880ED000A644890ED000AC9
:10273000634880ED000A614890ED010A614880ED30
:10274000000A87E15948407802282FD11FEDA90AD5
:102750005D4880ED030A1FEDAB0A80ED040A1FED12
:10276000AD0A80ED050A40F2944051490860091D08
:102770000860642001F02EFD03204C49887064201D
:1027800001F028FD012005F065F94848807804280B
:1027900010D10C2045490870012005F027F964206C
:1027A00001F018FD01204149887003E09FED3E0AC9
:1027B00003F066F94EE13D488078022816D10020EA
:1027C0003B490860091D08601FEDC80A3E4880EDBE
:1027D000030A1FEDCA0A80ED040A1FEDCC0A80ED42
:1027E000050A1720314908700120487032E12F484E
:1027F000407802281CD100202D490860091D08607E
:102800001FEDD60A304880ED030A1FEDD80A80ED8F
:10281000040A1FEDDA0A80ED050A002023498870BA
:102820001220087000202A490880042005F0DEF8F4
:102830001FEDE20A03F024F90CE11C48407802285D
:102840001CD100201A490860091D08601FEDE90A23
:102850001D4880ED030A1FEDEB0A80ED040A1FED11
:10286000ED0A80ED050A00201049887012200870DA
:10287000002017490880042005F0B8F81FEDF50A7C
:1028800003F0FEF8E6E009484078022847D140F21C
:10289000924007490860091D08601FEDFC0A0A48BC
:1028A00080ED030A16E0D9E033333DC2000000207A
:1028B00034180040F08B0020080000207C8B0020A2
:1028C0000C00002010000020648B0020333349C22C
:1028D000200000209FED620A80ED040A9FED600A4F
:1028E00080ED050A642001F075FC03205D498870C5
:1028F000642001F06FFC012005F0ACF859488078A5
:10290000042810D1072057490870012005F06EF8FF
:10291000C82001F05FFC01205249887003E09FED60
:10292000520A03F0ADF895E04E48407802282FD1C6
:102930004FF495604D490860091D08609FED480AF5
:102940004B4880ED030A9FED460A80ED040A9FED97
:10295000440A80ED050A642001F03CFC0320414953
:102960008870642001F036FC012005F073F83D48C2
:102970008078042810D109203A490870012005F018
:1029800035F8C82001F026FC01203649887003E0A4
:102990001FED3B0A03F074F85CE0324840780228EF
:1029A00031D140F28D4031490860091D08609FED2A
:1029B0002C0A2F4880ED030A9FED290A80ED040AB6
:1029C0009FED270A00E044E080ED050A642001F055
:1029D00001FC032023498870642001F0FBFB0120E7
:1029E00005F038F81F488078042810D10B201D49C5
:1029F0000870012004F0FAFFC82001F0EBFB012071
:102A00001849887003E09FED1B0A03F039F821E0B4
:102A1000202000F0DFFA48B1002014490860091DA9
:102A2000086015200F4908700020487000201249E6
:102A300008800FE0102000F0CDFA48B100200B49CB
:102A40000860091D086012200649087000204870BF
:102A500000E000BF00BF052001F0BCFBFFF725BB75
:102A60000000000000000020666638C234180040F4
:102A7000648B002000003AC220000020002024497E
:102A8000096811B140F0010001E000F0FE002049AA
:102A9000091D096811B140F0020001E000F0FD00DD
:102AA0001B490831096811B140F0040001E000F051
:102AB000FB0017490C31096811B140F0080001E032
:102AC00000F0F70012491031096811B140F0100010
:102AD00001E000F0EF000E491431096811B140F037
:102AE000200001E000F0DF0009491831096811B148
:102AF00040F0400001E000F0BF0005491C310968CA
:102B000011B140F0800001E000F07F00704700004C
:102B100020024242F0B50A4600210023002400BFF3
:102B20003DE0012505FA01F3156805EA03049C421E
:102B300034D105684F000326BE40B54305601579C2
:102B40004E00B5400668354305601579012D02D069
:102B50001579022D16D185684F000326BE40B54376
:102B6000856055794E00B540866835438560456877
:102B700001268E40B5434560456896798E40B6B2D1
:102B800035434560C5684F000326BE40B543C56068
:102B9000D5794E00B540C6683543C560491C10293B
:102BA000BFD3F0BDF0B5002300244D07ED0E02FAAF
:102BB00005F3CE1000F1200555F826504E07F70E0C
:102BC0000F26BE40B543CF1000F1200646F827502F
:102BD000CE1000F1200555F8265045EA0304CE102A
:102BE00000F1200545F82640F0BD41837047018380
:102BF0007047000010B5014600200A68E92A6FD02E
:102C00000EDC892A44D006DC292A1BD0492A25D08B
:102C1000692A22D12FE0A92A47D0C92AF9D151E047
:102C200040F24914131BA24274D006DCA2F209122E
:102C3000002A62D0202AECD16EE0202B6BD0402BF2
:102C4000E7D190E0002006E001F10B02135C4D4A51
:102C50001354421CD0B20828F6DB91E0002007E0B4
:102C600001F10B02135C474A08321354421CD0B2E4
:102C70000828F5DB84E0002007E001F10B02135C7B
:102C8000404A10321354421CD0B20828F5DB77E0DA
:102C9000002007E001F10B02135C3A4A183213548A
:102CA000421CD0B20828F5DB6AE0002007E001F101
:102CB0000B02135C334A20321354421CD0B2082852
:102CC000F5DB5DE0002007E001F10B02135C2D4A0B
:102CD00028321354421CD0B20828F5DB50E0FFE73D
:102CE000002007E001F10B02135C264A3032135436
:102CF000421CD0B20828F5DB42E0002007E001F1D9
:102D00000B02135C1F4A38321354421CD0B20828FD
:102D1000F5DB35E00DE019E0002007E001F10B02E2
:102D2000135C184A40321354421CD0B20828F5DB19
:102D300026E0002007E001F10B02135C114A483243
:102D40001354421CD0B20828F5DB19E0002007E03C
:102D500001F10B02135C0B4A50321354421CD0B2E7
:102D60000828F5DB0CE0002007E001F10B02135C02
:102D7000044A58321354421CD0B20828F5DB00BF75
:102D800000BF10BDEC7E002000202B49096811B166
:102D900040F0010002E040F6FE7108402649091F9C
:102DA000096811B140F0020002E040F6FD710840F0
:102DB0002249096811B140F0040002E040F6FB71BD
:102DC00008401D493031096811B140F0080002E0A7
:102DD00040F6F771084018492831096811B940F4E4
:102DE000807002E040F6FF61084014491C39096810
:102DF00011B940F0100002E040F6EF7108401049B0
:102E0000096811B940F0200002E040F6DF71084087
:102E10000B49091D096811B940F0400002E040F675
:102E2000BF71084006490831096811B940F08000B7
:102E300001E000F07F007047040243421C0242425E
:102E400024824142014600200A68F42A6ED00EDC3A
:102E5000942A44D006DC342A1BD0542A25D0742A64
:102E600022D12FE0B42A47D0D42AF9D151E0B2F5CB
:102E7000AA7F75D006DCB2F58A7F64D0B2F59A7F5E
:102E8000EED16FE0B2F5BA7F6BD0B2F5CA7FE7D171
:102E90008FE0002006E001F10B02135C4C4A135452
:102EA000421CD0B20828F6DB90E0002007E001F1D8
:102EB0000B02135C464A08321354421CD0B2082855
:102EC000F5DB83E0002007E001F10B02135C404AD0
:102ED00010321354421CD0B20828F5DB76E00020F3
:102EE00007E001F10B02135C394A18321354421CFB
:102EF000D0B20828F5DB69E0002007E001F10B0201
:102F0000135C334A20321354421CD0B20828F5DB3C
:102F10005CE0002007E001F10B02135C2C4A283230
:102F20001354421CD0B20828F5DB4FE0002007E024
:102F300001F10B02135C264A30321354421CD0B20A
:102F40000828F5DB42E0002007E001F10B02135CEA
:102F50001F4A38321354421CD0B20828F5DB35E042
:102F60000DE019E0002007E001F10B02135C184AA4
:102F700040321354421CD0B20828F5DB26E0002072
:102F800007E001F10B02135C114A48321354421C52
:102F9000D0B20828F5DB19E0002007E001F10B02B0
:102FA000135C0B4A50321354421CD0B20828F5DB94
:102FB0000CE0002007E001F10B02135C044A5832D8
:102FC0001354421CD0B20828F5DB00BF00BF704785
:102FD000547F0020014602480078084070470000F6
:102FE000708C002010B508480078012806D101F047
:102FF0005DF900EE100AB8EE400A10BD034890EDEE
:10300000000AB8EE400AF8E78600002040000020E1
:103010000146024880780840C0B27047708C00209A
:1030200000BFFEE710B52DED068BF8480079122899
:1030300076D2DFE800F0FD09243F76AAE175FCFBBB
:10304000FAF9F8F7F6F5F4F3F0480078152815D1F9
:103050009FEDEF2AF7EE001A9FEDEE1ADFEDEC0A76
:103060009FEDED0A0320FEF749FA042004F0F2FC7C
:10307000DFEDEA0A9FEDEA0A05F00AFA39E3E348D0
:103080000078152815D19FEDE22AF0EE001A9FED89
:10309000E51ADFEDDF0A9FEDE40A0220FEF72EFAC3
:1030A000022004F0D7FCDFEDDD0A9FEDDD0A05F01C
:1030B000EFF91EE3D5480078122816D19FEDD42AE7
:1030C000F7EE001A9FEDD91ADFEDD10A9FEDD20A73
:1030D0000120FEF713FA032004F0BCFC4FF4FA7051
:1030E00001F078F80D20C9490871C8480078152802
:1030F00015D19FEDC72AF7EE001A9FEDCD1ADFED2F
:10310000C40A9FEDC50A0120FEF7F8F9032004F078
:10311000A1FCDFEDC20A9FEDC20A05F0B9F9E8E2B1
:10312000E6E2042004F062FC022004F05FFC0320CD
:1031300004F05CFC9FEDB62AF7EE001AB1EE081A17
:10314000DFEDB30A9FEDB20A0220FEF7D7F99FED3B
:10315000B02AF7EE001AB1EE081ADFEDAD0A9FEDC6
:10316000AC0A0120FEF7CAF99FEDA92AF7EE001A72
:10317000B1EE081ADFEDA60A9FEDA50A0320FEF7BF
:10318000BDF91020A1490871B3E2042004F02EFC1F
:10319000022004F02BFC032004F028FC9FED9C2A65
:1031A000F7EE001AB2EE041ADFED990A9FEDA10ABC
:1031B0000120FEF7A3F99FED962AF7EE001AB1EE73
:1031C000081ADFED930A9FED9B0A0220FEF796F99D
:1031D0009FED8F2AF7EE001AB2EE041ADFED8C0A8B
:1031E0009FED940A0320FEF789F9C82000F0F2FF52
:1031F0000D20864908717CE29FED852AF7EE001AC2
:10320000B1EE081ADFED820A9FED8B0A0120FEF76E
:1032100075F99FED7F2AF7EE001A0AE0DAE1B2E1D4
:1032200024E1B6E062E00EE075E165E13EE280E1B6
:103230003BE2B1EE081ADFED760A9FED7F0A03202C
:10324000FEF75CF955E29FED722AF7EE001AB2EE36
:10325000041ADFED6F0A9FED780A0120FEF74EF9A0
:103260009FED6B2AF7EE001AB1EE081ADFED680A3F
:103270009FED700A0220FEF741F99FED652AF7EEF7
:10328000001AB2EE041ADFED620A9FED6A0A03200B
:10329000FEF734F9042004F0A9FB022004F0A6FB99
:1032A000032004F0A3FBFFF79DFEDFED640A80EE30
:1032B000201AB0EE418A624A62490A20F0EE080AFA
:1032C000B0EE480A01F094FE5F4890ED000AF7EE78
:1032D000000AB4EEE00AF1EE10FA03DD9FED5B0A9E
:1032E00005F0E8FA01204949487102E2042004F09F
:1032F0007DFB022004F07AFB032004F077FB9FEDB6
:10330000442AF7EE001AB2EE041ADFED410A9FEDEF
:10331000490A0120FEF7F2F89FED3D2AF7EE001A68
:10332000B1EE081ADFED3A0A9FED420A0220FEF7DD
:10333000E5F89FED372AF7EE001AB2EE041ADFED3A
:10334000340A9FED3C0A0320FEF7D8F8FFF74AFE47
:10335000DFED3A0A80EE201AB0EE418A3C4A3D4940
:103360000A20F1EE000AB0EE480A01F041FE3648AC
:1033700090ED000ADFED380AB4EEE00AF1EE10FA43
:1033800003DD9FED360A05F095FA01201F494871CB
:10339000AFE19FED1F2AF7EE001AB1EE081ADFED3C
:1033A0001C0A9FED250A0120FEF7A8F89FED182AB8
:1033B000F7EE001AB1EE081ADFED150A9FED1E0AAE
:1033C0000320FEF79BF8FFF70DFEDFED1C0A80EEF1
:1033D000201AB0EE418A224A22490A20F1EE040A5C
:1033E000B0EE480A01F004FE174890ED000AF7EE2F
:1033F000000AB4EEE00AF1EE10FA03DD9FED1A0ABE
:1034000005F058FA01200149487172E100000020DE
:103410000000000000009441DB0FC9BF0000AF4472
:103420000000E1C40000FA434CBE0C4066668641D1
:1034300000008C41000000803B46F13F00007A44D0
:10344000A4020020700200208C0100200000F4C2C1
:103450000C030020D8020020CDCC0C400000B4C2E8
:10346000D4010020A00100200000E6C21FED182AB0
:10347000F7EE001AB1EE081A5FED1B0A1FED120AF3
:103480000120FEF73BF81FED1E2AF7EE001AB1EE01
:10349000081A5FED210A1FED180A0320FEF72EF827
:1034A000042004F0A3FA022004F0A0FA032004F0A0
:1034B0009DFAFFF797FD5FED1F0A80EE201AB0EE30
:1034C000418A8D4A8D490A20F1EE040AB0EE480A7D
:1034D00001F08EFD8A4890ED000AF7EE000AB4EE86
:1034E000E00AF1EE10FA03DD1FED240A05F0E2F91F
:1034F000012084494871FCE05FED380A1FED380A6D
:1035000004F0C6FF1FED280A05F0D4F900207D491C
:1035100048718871EDE0F1EE040AB2EE040A04F09D
:10352000B7FF1FED320A05F0C5F900207549487153
:10353000DFE01FED492AF7EE001AB1EE081A5FED41
:103540004C0A1FED430A0120FDF7D8FF1FED502A5A
:10355000F7EE001AB1EE081A5FED530A1FED4A0AA2
:103560000320FDF7CBFF1FED470A05F0A3F900206C
:10357000644948718871C820FEF768FD10B10320C6
:1035800060490871B5E0FFF72DFD5FED540A80EE4C
:10359000201AB0EE418A5C4A5C490A20F1EE040A26
:1035A000B0EE480A01F024FD554890ED000ADFED29
:1035B000580AB4EEE00AF1EE10FA07DD9FED550A65
:1035C00002F05EFA1FED6E0A05F074F901204D4914
:1035D00048718EE040F294404F490860091D086030
:1035E000DFED4E0A9FED4E0A04F052FF1FED780A00
:1035F00005F060F99FED4B0A02F042FA4A4890ED5F
:10360000030A10EE101A084606F0D8FC41EC1A0B1B
:103610009FED460B53EC102B06F0E6FB41EC190B2B
:103620009FED440B53EC102B06F0D0FA10D23E481D
:1036300090ED030A10EE101A084606F0BFFC41ECAC
:10364000190B9FED3A0B53EC102B06F0CDFB13E05A
:10365000354890ED030A10EE101A084606F0AEFC4D
:1036600041EC1A0B9FED310B53EC102B06F0BCFB19
:1036700041EC190B05F0CCFE41EC180B9FED2F0B24
:1036800053EC102B06F0A2FA02D8BDEC068B10BD4D
:1036900000202C49088016201A4908700020087163
:1036A000022048700020487123E022E01FEDA82A84
:1036B000F7EE001AB1EE081A5FEDAB0A1FEDA20A91
:1036C0000120FDF71BFF1FEDAE2AF7EE001AB1EE49
:1036D000081A5FEDB10A1FEDA80A0320FDF70EFFDF
:1036E0001FEDA20A05F0E6F800200649487100E047
:1036F00000BF00BF00BFC8E73C0200200802002056
:103700008C010020000000207403002040030020F2
:103710009A99193F00003AC2341800400000F6435D
:1037200000008D4400003EC2F08B0020000000002D
:1037300000C047C0000000000000000000000000C2
:103740000000F03F200000201CB50121102001F0F6
:1037500061FE4FF4FE40009000208DF8040003202D
:103760008DF8050001208DF8070069460148FFF734
:10377000D1F91CBD0010024030B58BB004460D4697
:103780000121402001F056FE0121022001F042FEFD
:1037900009220E212648FFF705FA09220F212448A5
:1037A000FFF700FA4FF44040099002208DF82800FE
:1037B00003208DF8290000208DF82A0001208DF8C3
:1037C0002B0009A91A48FFF7A5F9A8B2ADF818000F
:1037D0000020ADF81A000794ADF8200006A915489E
:1037E00002F00CF96020ADF804000120ADF80600ED
:1037F0000020ADF810004FF47A70039001A90D4835
:1038000002F054F801A90B4802F098F80821094881
:1038100002F08AF80821074802F0E2F80121054881
:1038200002F02CF80121034802F034F80BB030BD4F
:10383000000402400018004010B54FF4E130FDF7DD
:10384000D3FF4FF4E13004F0F9F90A48B0F904006D
:1038500000EE100AB8EEC00A9FED071AC0EE010A8A
:10386000064890ED000A9FED061A00EE810A80EDF1
:10387000000A10BD1400002000000047AC0000202A
:103880000000344310B50F48B0F9020000EE900A72
:10389000F8EEE00AB0EE600A0B48B0F9000000EE66
:1038A000900AF8EEE00A094801F09EF8074890ED0A
:1038B000090ABDEEC00A10EE100A00B20149C88024
:1038C00010BD0000FC7C002020000020907E002025
:1038D0000EB518480268D2E904109269CDE90102D8
:1038E00000911548D0ED020AB0EE600A1148006858
:1038F0000FC803F02FFC1048B0F9020000EE900A48
:10390000F8EEE00AB0EE600A0C48B0F9000000EEF4
:10391000900AF8EEE00A0A4801F066F8084890EDCF
:10392000090ABDEEC00A10EE100A00B20249C880B2
:103930000EBD0000F0000020E47C00201E000020EE
:10394000087D002000BFFEE70CE0FFF7C1FFFFF796
:1039500099FF04F0F3FA04F077FCFFF763FB05200E
:1039600000F038FCF1E7704770B5002100230F220A
:10397000C4781CB3174C246804F4E064C4F5E06414
:10398000C4F30721C1F10404E3B20A4144789C4026
:10399000E1B28478144021430C07210E0E4C0578C7
:1039A0006155047804F01F050124AC4005786D11C1
:1039B000AD0005F1E025C5F8004109E0047804F008
:1039C0001F050124AC40054D0678761145F82640C8
:1039D00070BD00000CED00E000E400E080E100E0DC
:1039E00002490143024A1160704700000000FA05D5
:1039F0000CED00E010B500F013F800F05BFD00F0F6
:103A000083FD00F0A3FD00F02BFD00F0EBFC00F0C7
:103A100037FE00F0DBFD00F001FE00F002F810BD03
:103A20007047704706480078012808D1054800789B
:103A3000FF2804D203480078401C024908707047F0
:103A4000860000207900002010B500241A48007874
:103A5000012830D1FCF73AFC04461848007820B120
:103A600016480078401E1549087014480078F8B9C7
:103A700013480078E0B900F065FE12481249097851
:103A800050F82100114908600F4800781049097862
:103A900088420DD00D480068806B401C0B490968B6
:103AA00088630C480068401C0A490860FCF72EFC3B
:103AB0002046FCF70FFC10BD860000207900002096
:103AC0007A000020EC8500207C000020940000207B
:103AD0007B0000206000002010B500240B48007817
:103AE000012811D1FCF7F2FB04460948007840B9DF
:103AF00008480078FF2804D206480078401C054991
:103B000008702046FCF7E6FB10BD00008600002090
:103B1000790000207A00002010B5002413480078B6
:103B2000012821D1FCF7D2FB044611480078C0B12E
:103B30000F480078401E0E4908700846007860B9AA
:103B40000C48007828B92046FCF7C4FB00F0C0FD03
:103B50000AE02046FCF7BEFB06E02046FCF7BAFB75
:103B600002E02046FCF7B6FB10BD000086000020F6
:103B70007A0000207900002010B50B48007890B939
:103B800000F0E0FD09480078094908700948074934
:103B9000097850F82100084908600846006807497C
:103BA0000860FCF79AFB10BD860000207C00002016
:103BB0007B000020EC850020940000208C00002079
:103BC000704700002DE9FE4F06460F4690461C4602
:103BD0004FF00009FCF77AFB81461F48007828B1B6
:103BE0004846FCF777FB3C20BDE8FE8F1B4850F8A9
:103BF000240060BB0120194941F824004846FCF725
:103C000069FB002342463946304600F0B5F982464A
:103C10000020009001900346024651460290204643
:103C200000F0A6FD054635B90D48007801280CD1F5
:103C300000F04EFD09E0FCF749FB814600200749F2
:103C400041F824004846FCF745FB2846CCE74846A7
:103C5000FCF740FB2820C7E779000020EC85002016
:103C6000860000202DE9F04F85B081468A469346B4
:103C70001C46DDE90F78129D00200390FCF726FB1F
:103C800003902348007830B10398FCF723FB3C20D5
:103C900005B0BDE8F08F1F4850F8240088BB012014
:103CA0001C4941F824000398FCF714FB2A464146BE
:103CB000384600F079FE2B465A465146484600F0F9
:103CC0005BF904901198CDE9008002953A462046B0
:103CD0000E9B049900F04CFD064636B90E4800785C
:103CE00001280CD100F0F4FC09E0FCF7EFFA039096
:103CF0000020084941F824000398FCF7EBFA30460D
:103D0000C6E7FFE70398FCF7E5FA2820C0E70000C4
:103D100079000020EC85002086000020704700001C
:103D20002DE9F041054600274748007810B14020B2
:103D3000BDE8F0813F2D01D13E20F9E7FCF7C6FA3E
:103D40000746FF2D03D14148006890F832504048A3
:103D500050F8254024B93846FCF7BCFA4320E7E781
:103D6000012C04D13846FCF7B5FA3D20E0E714F801
:103D7000340F3849085C617888432178354A5054BB
:103D800014F834091146085C30B994F836103248FA
:103D90000078884330490870E06918B12046E1692D
:103DA00000F00AFB666A16B1304600F047FB0020BF
:103DB000E06284F8300084F8310028480078FF2859
:103DC00004D226480078401C244908703846FCF785
:103DD00081FA00F0F0FAFCF779FA07461F480078FC
:103DE00020B11E480078401E1C490870204600F093
:103DF00041F81B480078401E1949087000201449FA
:103E000041F82500A06930B9002061698861154931
:103E10006069086005E0D4E905014861D4E905104E
:103E200088611148006860610F4804600FA0E06479
:103E30003846FCF74FFA0E480078012801D100F00F
:103E400047FC002074E70000790000208C0000206F
:103E5000EC8500207E0000207D0000207A000020FC
:103E60008700002098000020900000203F00000004
:103E700086000020704770472DE9F04106460F4646
:103E800014464FF000081548007818B11220207031
:103E9000BDE8F081FCF71AFA8046FF2E03D11048E6
:103EA000006890F832600F4850F826502DB940460F
:103EB000FCF710FA43202070EAE7012D05D14046B7
:103EC000FCF708FA43202070E2E7EF644046FCF775
:103ED00001FA0020207000BFDAE70000790000201E
:103EE0008C000020EC850020704770472DE9F047DA
:103EF00007460D464FF0000A002028606860FCF776
:103F0000E5F98246FF2F03D11948006890F8327016
:103F1000184850F827402CB95046FCF7DBF94320ED
:103F2000BDE8F087012C04D15046FCF7D3F94320BB
:103F3000F6E7207C00F0010020B95046FCF7CAF9F2
:103F40004520EDE70026D4F80C90D4F808805046C0
:103F5000FCF7C0F900E0761C58F8041B0029FAD0E1
:103F6000B0002860A9EB0600800068600020D7E759
:103F70008C000020EC85002070B504461046002619
:103F8000051F28462E604FF48056051F28462E60D8
:103F90001526051F28462E601426051F28462E606C
:103FA0001326051F28462E601226051F28462E6060
:103FB0001126051F28462E601026051F28462E6054
:103FC0000926051F28462E600826051F28462E6054
:103FD0000726051F28462E600626051F28462E6048
:103FE0000526051F28462E600426051F28462E603C
:103FF0000326051F28462E600226051F28462E6030
:104000000126051F28462E600026051F28462E6023
:104010004FF080750560051F28462C60414E051F36
:1040200028462E604FF01236051F28462E604FF0AE
:104030000336051F28462E604FF00236051F28461E
:104040002E607610051F28462E60051F2846296021
:104050003126051F28462E603026051F28462E6073
:104060002926051F28462E602826051F28462E6073
:104070002726051F28462E602626051F28462E6067
:104080002526051F28462E602426051F28462E605B
:104090002326051F28462E602226051F28462E604F
:1040A0002126051F28462E602026051F28462E6043
:1040B0001926051F28462E601826051F28462E6043
:1040C0001726051F28462E601626051F28462E6037
:1040D0004FF01136051F28462E604FF01036051F91
:1040E00028462E604FF00936051F28462E604FF0F7
:1040F0000836051F28462E604FF00736051F284654
:104100002E604FF00636051F28462E604FF005360C
:10411000051F28462E604FF00436051F28462E60E6
:1041200070BD0000CD4800082DE9F04105464FF074
:104130000008FCF7CBF88046FF2D05D12048006829
:1041400090F83250012608E01D48006890F83200CF
:10415000A84201D1012600E000261A4850F8254067
:104160002CB94046FCF7B6F84820BDE8F081012C98
:1041700004D14046FCF7AEF84320F6E794F83470DB
:104180001148C05D94F8351088430F49C85508465A
:10419000C05D30B994F836100C48007888430B495C
:1041A000087094F8300040F0080084F83000404671
:1041B000FCF790F8012E01D100F08AFA0020D4E734
:1041C0008C000020EC8500207E0000207D00002077
:1041D0007047000070B5054600261748007800B10A
:1041E00070BD1648007800B1FAE71DB3FCF76EF811
:1041F00006461348006890F834401248005D1049A4
:10420000096891F8351088430E4908550846005D45
:1042100040B90B48006890F836100B480078884386
:104220000949087006480068C5623046FCF752F834
:1042300000F04EFA00BFD3E7790000207A0000209A
:104240008C0000207E0000207D0000202DE9F04140
:1042500005460E4617461C461248007810B15520F8
:10426000BDE8F0811048007808B13220F8E74FF43B
:104270007A7060434FF47A71B0FBF1F14FF46160F2
:104280006843C6EB061200EB8200384400EB4002A4
:10429000C2EBC01001EBC0084046FFF79BFF0020B7
:1042A000DEE70000790000207A00002070B50025CC
:1042B000FCF70CF80546034804682846FCF70AF8A2
:1042C000204670BDA400002070B5002600F072F8F2
:1042D000FBF7FCFF064631480068401C2F49086088
:1042E0003046FBF7F7FF2E480078012853D12D48C0
:1042F000007820B1012804D0022809D103E001256B
:104300000BE0002509E0012501202649087004E0A2
:10431000012500202349087000BF00BF05B970BD0A
:104320002148046833E0FBF7D1FF0646E06A50B34A
:10433000E06A401EE062E06A28BB94F8300000F0BA
:10434000370040B114F8300F00F0C8002070012091
:104350006070303C02E0002084F8310094F83000B6
:1043600000F0080078B93434A0781049097808437F
:104370000E49087020780E49085C6178084314F8EB
:1043800034190B4A505464693046FBF7A3FF94F884
:1043900032003F28C7D100BFC1E70000A4000020C1
:1043A000860000209C000020980000207D00002056
:1043B0007E0000207047704710B590F8342001F15E
:1043C0000B039B5C90F83540A34301F10B04A3540D
:1043D00023469B5C23B98B7A90F83640A3438B72BB
:1043E00010BD00002DE9F0415021114800F03EF9C8
:1043F00000250DE0681C86B20D4800EB051400EBAB
:1044000006170020207067600AA0E060681C85B273
:10441000042DEFD3064800EB0514002020706060E7
:1044200004A0E060024804490860BDE8F081000093
:104430009C8100203F0000006800002030B501464C
:104440004A6808682AB9CC68606028B100254560D0
:1044500002E0106000B142608B6800255D6230BDF3
:1044600070B5C821114800F001F900230FE0581C75
:1044700085B203EB83000D4901EB800405EB850059
:1044800001EB8006002020706660581C83B2092B67
:10449000EDD303EB8300054901EB8004002020707D
:1044A000606008460249086070BD0000D4800020AA
:1044B0006400002000200A4908600A4908700A497F
:1044C00008700A4908700A4908700A4908600A49D0
:1044D00008600A4908600A4908600A49087070477C
:1044E000A4000020790000207A000020870000202E
:1044F000860000206000002088000020740000205A
:10450000700000207800002000210A4A117000206D
:1045100004E00021084A1154411CC8B20828F8D30D
:104520000021064A1170064A1170064A1160064AB7
:10453000116070477D0000207E0000207B0000207D
:104540007C000020940000208C00002070B54FF407
:104550007C71194800F08AF84FF48071174800F018
:1045600085F8002413E0601CC5B2C4EBC40000EB66
:104570004000114901EB8003C5EBC50000EB400092
:1045800001EB80065E610EA0D864601CC4B20B2CE7
:10459000E9D3C4EBC40000EB4000074901EB800302
:1045A0000020586106A0D86400200649086002482F
:1045B0000549086070BD0000EC860020EC850020F5
:1045C0003F000000980000209000002000B587B058
:1045D0000320002180220A4BCDE90132CDE90310EE
:1045E0004FF6FF703F23074A00900748FFF73AFB5A
:1045F00006AA06A13F20FFF73FFC07B000BD000060
:10460000EC830020E8850020A548000875432F4F63
:10461000532D49492049646C6500000000B587B0FE
:104620000320002180220A4BCDE90132CDE903109D
:104630004FF6FE703E23074A00900748FFF712FB33
:1046400006AA06A13E20FFF717FC07B000BD000038
:10465000EC810020E8830020E548000875432F4FD7
:10466000532D4949205374617400000004E0002276
:1046700000F8012B4A1E91B20029F8D170470000C2
:104680002DE9F04178211048FFF7F0FF00240DE0FC
:10469000601C86B204EB44000B4901EBC00506EB3D
:1046A000460001EBC0072F60601C84B2042CEFD3DE
:1046B00004EB4400044901EBC005002028600846D3
:1046C00002490860BDE8F081DC8A0020A0000020DB
:1046D00010B50024FBF7FAFD044613480078F8B93A
:1046E00012480078E0B900F02DF811481149097816
:1046F00050F82100104908600E4800780F490978E9
:1047000088420DD00C480068806B401C0A4909683B
:1047100088630B480068401C09490860FBF7EFFDFF
:104720002046FBF7D7FD10BD790000207A0000205D
:10473000EC8500207C000020940000207B000020FD
:10474000600000200649074A1278885C0649095C27
:10475000034A515C01EBC001044A1170704700002C
:10476000B6A000087D0000207E0000207C00002014
:104770002DE9F84F05460F4690469946DDE90AAB0C
:1047800000200090FBF7A2FD00903F480468002C39
:1047900074D0183454F8040C3B4908600098FBF7B7
:1047A00099FD44F8187CA57600202076607660613B
:1047B00044F814BC44F80CAC44F8108C0C9824F861
:1047C000080C24F8069C0020E077E810207705F01C
:1047D0000700E076217F01208840A077E17E01205C
:1047E0008840607700206060E060A0602062A06286
:1047F0006062E062206325A06063183C002606E04A
:10480000002104F1500040F82610701CC6B2002EA2
:10481000F6D02046FFF7D4F92046FFF77FFAFBF7E2
:1048200055FD00901A4840F825401A48006860611C
:104830000020A0611748006810B116480068846124
:10484000144804603434A0781349097808431249A5
:10485000087020781149085C6178084314F834190D
:104860000E4A50540E480078401C0D4908700098BC
:10487000FBF730FD0020BDE8F88FFFE70098FBF75D
:1048800029FD4220F7E70000900000203F000000D3
:10489000EC850020980000207D0000207E00002094
:1048A00087000020002400BF00BFFBF70FFD044677
:1048B00005480068401C044908602046FBF70AFDD3
:1048C000FFF7D9FAF1E700008800002010B504488E
:1048D0000068FFF709FBFF20FFF722FA10BD000078
:1048E0008C000020002400BF02E0C820FFF772FC0B
:1048F000194800780028F8D0184800686421B0FBF7
:10490000F1F0164908600846006828B900201449EB
:104910000870FF20FFF708FC00BFFBF7D7FC044638
:10492000104800681049086000200E4908602046C1
:10493000FBF7D0FC0C48006808490968B0FBF1F0AF
:10494000C0F1640006490870FFF7CFFA00F00EF8D6
:104950006420FFF73FFCE0E77800002070000020B3
:104960006C00002088000020740000207CB5002529
:1049700014E069462846FFF7B9FA064666B90948C1
:1049800050F8254044B1012C06D0D4E9020100EBD7
:10499000810060640198A064681CC5B23F2DE8D90D
:1049A0007CBD0000EC85002002F0010343B102F061
:1049B00002032BB102E0491E002308C00029FAD1EE
:1049C0007047B4EEE00AF1EE10FA01DDB0EE600AD5
:1049D000B1EE601AB4EEC10AF1EE10FA03D2B1EEF4
:1049E000601AB0EE410A704700B5F0EE401AB0EE22
:1049F000602A32EE610A80ED050A90ED050AD0EDDD
:104A0000040A30EE600A80ED060A90ED011AD0ED3E
:104A1000052A21EE221AB0EE410A90ED081AF0EEB6
:104A2000410AFFF7CEFFD0ED000A90ED061A00EE26
:104A3000810AD0ED050A90ED031A70EE810A90ED1F
:104A4000041AF0EE002A42EEC10A90ED021A01EEBD
:104A5000200AD0ED090A30EE200A80ED090A90ED17
:104A6000090AD0ED0A0AB4EEE00AF1EE10FA03DD0D
:104A700090ED0A0A80ED090A90ED090AD0ED0A0AC4
:104A8000F1EE600AB4EEE00AF1EE10FA05D290ED14
:104A90000A0AB1EE400A80ED090A90ED040A80EDA1
:104AA000030A90ED050A80ED040A90ED050AB5EEC3
:104AB000C00AF1EE10FA02DD90ED050A03E090ED78
:104AC000050AB1EE400AD0ED0D0AB4EEE00AF1EEAF
:104AD00010FA03D29FED020A80ED090A00BD000022
:104AE0000000000080ED082AC0ED0A1A80ED000ADF
:104AF000C0ED010A80ED021A9FED0A3A80ED0B3AF3
:104B000080ED033A80ED043A80ED093A80ED073AF2
:104B100080ED053A80ED063A012180F83010C0EDB5
:104B20000D2A70470000000000B5F0EE401A90F822
:104B30003010012906D1C0ED041AC0ED031A00217E
:104B400080F83010C0ED051A90ED070AD0ED050A87
:104B500030EE200A80ED070A90ED050AD0ED040A38
:104B600030EE600A80ED060A90ED011A90ED072AFA
:104B700021EE021AB0EE410A90ED081AF0EE410A59
:104B8000FFF71FFFD0ED000A90ED051A00EE810A35
:104B9000D0ED020A90ED061A00EE810A80ED090AB6
:104BA00090ED090AD0ED0A0AB4EEE00AF1EE10FA2F
:104BB00003DD90ED0A0A80ED090A90ED090AD0EDB7
:104BC0000A0AF1EE600AB4EEE00AF1EE10FA05D23C
:104BD00090ED0A0AB1EE400A80ED090A90ED050A4F
:104BE00080ED040A90ED050AB5EEC00AF1EE10FA68
:104BF00002DD90ED050A03E090ED050AB1EE400AF2
:104C0000D0ED0D0AB4EEE00AF1EE10FA03D29FEDFA
:104C1000020A80ED090A00BD0000000001460148BB
:104C2000405C7047C88B0020002004E00021034A4C
:104C30001154411CC8B20928F8DB7047C88B00200A
:104C400038B504460120009000201E49487001201C
:104C500000902EE0BDF80000204018B101201A4954
:104C6000086002E000201849086001201649091D6B
:104C70000860052002F082FF00201449C1F8940268
:104C8000052002F07BFF01201049C1F8940208467C
:104C9000D0F8180230B10B484078BDF80010084336
:104CA00008494870BDF800004FF6FF7101EA400066
:104CB0000090BDF80000FF28CCDD102002F05EFF60
:104CC00038BD0000C88B00209002404200004042E6
:104CD00010B5FFF7A9FF00F081F80F48C0780E4922
:104CE000097940EA01200D49088000240FE00C48B2
:104CF00010F81400401E012101FA00F0074909884C
:104D0000084010B9601CC0B210BD601CC4B2102CA9
:104D1000EDDB0020F8E70000C88B0020CC0000206D
:104D2000D000002010B5002013490860102002F0C8
:104D300025FF0120FFF784FF4320FFF781FF0020BC
:104D4000FFF77EFF0120FFF77BFF0020FFF778FFD2
:104D50000020FFF775FF0020FFF772FF0020FFF72C
:104D60006FFF0020FFF76CFF01200449C1F88C029F
:104D7000102002F003FF10BD8C02404200004042B0
:104D800010B5002013490860102002F0F7FE012042
:104D9000FFF756FF4320FFF753FF0020FFF750FFB8
:104DA0000020FFF74DFF5A20FFF74AFF5A20FFF778
:104DB00047FF5A20FFF744FF5A20FFF741FF5A20D0
:104DC000FFF73EFF01200449C1F88C02102002F0D9
:104DD000D5FE10BD8C024042000040421CB50020B0
:104DE000019001200090002025490860254908789D
:104DF000FFF726FF23494878FFF722FF02200190A2
:104E000036E00120009027E001201D4908310860AC
:104E1000052002F0B3FE00201B49C1F894020520D2
:104E200002F0ACFE01201849C1F894020846D0F8FF
:104E3000180250B115489DF80410405CBDF80010F0
:104E4000084312499DF804208854BDF800004FF62D
:104E5000FF7101EA40000090BDF80000FF28D3DD9B
:104E6000102002F08BFE9DF80400401CC0B201909F
:104E70009DF804000928C4DB0120014908601CBD1D
:104E80008C024042CE00002000004042C88B00202F
:104E900010B500F00BF800F009F800F007F8FFF784
:104EA00041FF00F025F8FFF76BFF10BD10B50020A3
:104EB0000D490860102002F061FE0120FFF7C0FEDE
:104EC0004220FFF7BDFE0020FFF7BAFE0020FFF7EB
:104ED000B7FE0020FFF7B4FE01200449C1F88C02A0
:104EE000102002F04BFE10BD8C02404200004042F8
:104EF00010B50020124908600120FFF7A1FE4420F0
:104F0000FFF79EFE0020FFF79BFE0120FFF798FEB3
:104F10000320FFF795FE0020FFF792FE0020FFF729
:104F20008FFE0020FFF78CFE0020FFF789FE012096
:104F30000449C1F88C02102002F020FE10BD0000D0
:104F40008C024042000040421CB50121084600F09E
:104F500061FA4020009000208DF8040003208DF8B5
:104F6000050001208DF8070069460E48FDF7D2FDC7
:104F70003820009001208DF8040000208DF80600F4
:104F800003208DF8050001208DF8070069460548CB
:104F9000FDF7C0FD0E210348FDF729FEFFF778FF5E
:104FA0001CBD00000000024010B50720FFF736FED0
:104FB0000A4908600820FFF731FE0949086005200A
:104FC000FFF72CFE074908600620FFF727FE064979
:104FD0000860FFF77DFE0549086010BDB4000020A1
:104FE000B8000020BC000020C0000020C400002049
:104FF000F0B52DED108B8BB0B0EE408AF0EE608AEC
:1050000005460E461746F548006850B918EE100AD6
:1050100004F0D4FFF24A03C2F0480068401CEF4994
:10502000086018EE100A04F0C9FFCDE90601EC484B
:1050300090ED000BB0EE401AF0EE601A53EC102B1E
:105040009DED060B51EC100B04F0CEFECDE90801EE
:105050009DED080B51EC100B04F0E6F909EE100A77
:1050600000EE105AB8EEC00A29EE000AC0EE280A77
:10507000BDEEE00A10EE104A00EE104AB8EEC00A8B
:1050800060EE280A00EE105AB8EEC01A80EE810ACF
:1050900039EE400AB0EE408A00EE105AB8EEC00A6F
:1050A00028EE000AC0EE280AB0EE608A19EE100A57
:1050B000CC4908609FEDCC0AB4EEC08AF1EE10FA3C
:1050C00003D29FEDCA0AB0EE408AB7EE000A30EE76
:1050D000480A20EE000AF7EE000A70EEC80A20EE39
:1050E000200AF1EE080AC0EE209AB0EE080A28EE77
:1050F000000A20EE080A20EE080AF1EE080A68EE1F
:10510000200A00EEC80AF1EE000A30EE200AF1EEA5
:10511000080A80EE20AAB8EE080A28EE000A20EE5F
:10512000080A20EE080AF0EE080A68EE200A00EEEF
:10513000880AF0EE080A00EE880AF7EE000A30EE60
:10514000200AF1EE080AC0EE20AA28EE080A20EE96
:10515000080AF1EE080A80EE20BAB7EE000A30EE37
:10516000480AB1EE400AF7EE000A70EEC80A20EED7
:10517000200AF0EE000AC0EE20BAB0EE080A28EECF
:10518000000A60EE080AB0EE001A80EE810AF0EE26
:10519000000AB0EE40CA00EEC8CAB8EE080A28EE0F
:1051A000000A60EE080AB0EE001A80EE810A30EEC6
:1051B000080AF6EE000A70EE20CA28EE080AF0EEA1
:1051C000000A80EE20DA06EB840090ED000A20EE63
:1051D000290A601C06EB8000D0ED000A00EE8A0A66
:1051E000A01C06EB8000D0ED000A00EEAA0AE01C2D
:1051F00006EB8000D0ED000AF0EE40DA40EE8BDAEC
:1052000007EB840090ED000A20EE290A601C07EBF2
:105210008000D0ED000A00EE8A0AA01C07EB800097
:10522000D0ED000A00EEAA0AE01C07EB8000D0EDEA
:10523000000AB0EE40EA00EE8BEA06EB840090ED47
:10524000000A20EE2B0A601C06EB8000D0ED000A5D
:1052500000EE8C0AA01C06EB8000D0ED000A00EEE8
:10526000AC0AE01C06EB8000D0ED000A00EE8D0ACF
:10527000F0EE40EA07EB840090ED000A20EE2B0AE6
:10528000601C07EB8000D0ED000A00EE8C0AA01C29
:1052900007EB8000D0ED000A00EEAC0AE01C07EB43
:1052A0008000D0ED000A00EE8D0AB0EE40FA5048C2
:1052B00090ED000A7DEEC0FA90ED010A3EEE400A44
:1052C0008DED0A0A00EE105AB8EEC00A6EEE800AA2
:1052D00080EEA80AF7EE080A00EEAF0AF0EE40EA08
:1052E00000EE105AB8EEC00A2FEE000AC0EE280AEF
:1052F0009DED0A0AB7EE081A41EE000AB0EE60FA18
:105300009FED3C0ACEEE800A3B48C0ED030A9FEDBC
:10531000390ACFEE000AC0ED040A19EE100A04F0B3
:105320004DFECDE90801344890ED040A10EE101A44
:10533000084604F043FECDE906012F4890ED030A2C
:1053400010EE101A084604F039FECDE904019DED77
:10535000080B8DED020B9DED060B8DED000B9DED09
:10536000040B53EC102B25A0FBF716F8B4EEE89ACB
:10537000F1EE10FA2EDD9FED1D0A1F4880ED030AA5
:105380009FED1A0A80ED040A022021494870084660
:1053900000790C38052818D2DFE800F007030F0B5E
:1053A000130009201A49087110E0082018490871F3
:1053B0000CE00B201649087108E00A201449087116
:1053C00004E011201249087100E000BF00BF002076
:1053D000024908600BB0BDEC108BF0BD90010020BD
:1053E000700100208C0100206F12833A0000000041
:1053F0007C8B002000007A44648B00202566202CE2
:1054000020202566202C2020256620200D0A000063
:105410000000002029B1064A12680243044B1A60BA
:1054200004E0034A12688243014B1A60704700008F
:105430003038024029B1064A12680243044B1A6010
:1054400004E0034A12688243014B1A60704700006F
:105450004038024029B1064A12680243044B1A60E0
:1054600004E0034A12688243014B1A60704700004F
:105470002038024029B1064A12680243044B1A60E0
:1054800004E0034A12688243014B1A60704700002F
:1054900044380240F0B500210022002402250026F5
:1054A0000223324F3F6807F00C0121B1042905D0D7
:1054B000082937D105E02E4F076036E02D4F0760F1
:1054C00033E02A4F3F1F3F68C7F38056274F3F1FE7
:1054D0003F6807F03F036EB1264FB7FBF3F7DFF8E5
:1054E0008CC0ACF1040CDCF800C0CCF3881C07FBCA
:1054F0000CF40CE01E4FB7FBF3F7DFF870C0ACF113
:10550000040CDCF800C0CCF3881C07FB0CF4174F2C
:105510003F1F3F68C7F301477F1C7D00B4FBF5F7D1
:10552000076002E0124F076000BF00BF0F4F3F68E7
:1055300007F0F0010909104F7A5C0768D74047600F
:105540000A4F3F6807F4E051890A0B4F7A5C4768BD
:10555000D7408760054F3F6807F46041490B064F0D
:105560007A5C4768D740C760F0BD00000838024049
:105570000024F40000127A002900002010B5FDF785
:105580007DFA03490870FDF7FFFB0149488010BD13
:10559000708C0020154890ED000A1548D0ED000AE7
:1055A00030EE600AF1EE040A80EE201A114880ED18
:1055B0000C1A0E4890ED010A0F48D0ED000A30EEAB
:1055C000600AF1EE040A80EE201A0A4880ED0D1AF6
:1055D000064890ED000A064880ED000A034890ED69
:1055E000010A054880ED000A704700007C8B00200E
:1055F00098010020708C00209C010020704700243E
:10560000FDF7F0FC19E00123002211461046FEF7D9
:105610001DFE00BFFFF7B2FF1420B4FBF0F100FB4A
:10562000114008B903F05EFB1420B4FBF0F100FB5D
:10563000114008B9FFF7AEFF641CE4E70CB5002089
:10564000019000903448006840F48030324908608E
:1056500000BF3148006800F4003000900198401C01
:105660000190009818B90198B0F5A04FF1D12A48DF
:10567000006800F4003010B10120009001E000202B
:1056800000900098012846D123484030006840F03F
:1056900080502149403108602048006840F4404073
:1056A0001E4908601C48083000681B490831086022
:1056B0000846006840F4004008600846006840F46E
:1056C000A05008601648091F0860081F006840F0D5
:1056D0008070091F086000BF0F48006800F000706C
:1056E0000028F9D040F205700E4908600A480830D9
:1056F000006820F003000849083108600846006887
:1057000040F00200086000BF03480830006800F065
:105710000C000828F8D10CBD003802400070004091
:1057200008544007003C0240042808D14FF0E02113
:10573000096941F004014FF0E022116107E04FF0E8
:10574000E021096921F004014FF0E0221161704766
:1057500010B505480078012805D1FEF763F9FEF77A
:10576000B3FDFEF771F910BD8600002010B5154895
:10577000006840F47000134908601348006840F066
:1057800001001149086000200F49083108600E48E7
:1057900000680E4908400C4908600D48091D086062
:1057A000081F006820F48020091F086000200649B7
:1057B0000C310860FFF742FF4FF00060014980396B
:1057C000086010BD88ED00E000380240FFFFF6FEE3
:1057D0001030002430B58BB004460D46012108047A
:1057E000FFF728FE01211020FFF714FE03220521F8
:1057F0002048FDF7D7F9032206211E48FDF7D2F90C
:105800006020099002208DF8280003208DF82900DF
:1058100000208DF82A0001208DF82B0009A91548D9
:10582000FDF778F9A8B2ADF818000020ADF81A001D
:105830000794ADF8200006A90F4800F0DFF86020BB
:10584000ADF804000120ADF806000220ADF810000C
:1058500001A9094800F02AF80821074800F064F877
:105860000121054800F00AF80121034800F012F870
:105870000BB030BD001002400040014021B1028851
:1058800042F08002028004E002884FF67F731A40E3
:105890000280704721B1028842F00102028004E0D8
:1058A00002884FF6FE731A400280704770B50024DC
:1058B00000220023058C4FF6FE7635400584028CCD
:1058C0008388048B4FF68F752C40B51E2C400D88B5
:1058D0002C43751E2A408D892A434D882A43104D3A
:1058E000A84202D00F4DA84213D14FF6F7752A40B7
:1058F000CD892A434FF6FB752A408D882A434FF6FF
:10590000FF652B404FF6FF552B400D8A2B434D8AE8
:105910002B43838004838D684563028470BD00003F
:1059200000000140000401400A460021018B4FF6AF
:10593000F7731940114301837047000070B50024CC
:1059400000220023058C4FF6EF7635400584028C4B
:105950008388048B48F6FF752C404FF6FF452C409A
:105960000D884FF6FF7606EA05252C434FF6DF75C6
:105970002A408D8906EA05152A434D8806EA051551
:105980002A43154DA84202D0144DA8421DD14FF60E
:105990007F752A40CD894FF6FF7606EA05152A4322
:1059A0004FF6BF752A408D8806EA05152A434FF643
:1059B000FF352B404FF2FF752B400D8A06EA850517
:1059C0002B434D8A06EA85052B43838004838D682B
:1059D0008563028470BD00000000014000040140A6
:1059E0000A460021018B4FF2FF7319404FF6FF73F7
:1059F00003EA022319430183704700000022028852
:105A0000184B98420ED0184B98420BD0B0F1804FF3
:105A100008D0164B984205D0154B984202D0154B32
:105A2000984204D14FF68F731A404B881A43124B99
:105A3000984207D0114B984204D04FF6FF431A40CA
:105A40000B891A4302804B68C3620B880385054BA0
:105A5000984202D0044B984201D18B7A03860123ED
:105A600083827047000001400004014000040040B0
:105A700000080040000C00400010004000140040EE
:105A800010B52DED028BB0EE408A0D4890ED030A63
:105A900038EE400A0B4880ED000A90ED000A0A48F3
:105AA000FFF742F8084890ED090ABDEEC00A10EE73
:105AB000100A00B205490880BDEC028B10BD000041
:105AC000F08B0020AC030020787D00202000002017
:105AD00010B540F225510A4800F030FA01280DD1E6
