:020000040800F2
:10000000F05B0020F102000869120008B30F00083D
:10001000F1110008E1090008011C000800000000BF
:10002000000000000000000000000000390200088D
:10003000030F0008000000008D020008951700085B
:100040000B0300080B0300080B0300080B03000858
:100050000B0300080B0300080B0300080B03000848
:100060000B0300080B0300080B0300080B03000838
:100070000B0300080B0300080B0300080B03000828
:100080000B0300080B0300080B030008190A000803
:10009000E50900080B0300080B0300080B03000828
:1000A0000B0300080B0300080B0300080B030008F8
:1000B0000B030008051800080B0300080B030008D9
:1000C0000B0300080B0300080B0300080B030008D8
:1000D0000B030008C51A00080B0300080B030008F7
:1000E0000B0300080B0300080B0300080B030008B8
:1000F0000B0300080B0300080B0300080B030008A8
:100100000B0300080B0300080B0300080B03000897
:100110000B0300080B0300080B0300080B03000887
:100120000B0300080B0300080B0300080B03000877
:100130000B0300080B0300080B030008710A0008FA
:100140003D0A00080B0300080B0300080B0300081E
:100150000B0300080B0300080B0300080B03000847
:100160000B0300080B0300080B0300080B03000837
:100170000B0300080B0300080B0300080B03000827
:100180000B0300080B03000800F002F800F044F82D
:100190000AA090E8000C82448344AAF10107DA45E2
:1001A00001D100F039F8AFF2090EBAE80F0013F0F0
:1001B000010F18BFFB1A43F001031847B43B0000BE
:1001C000D43B0000103A24BF78C878C1FAD852074F
:1001D00024BF30C830C144BF04680C6070470000C1
:1001E0000023002400250026103A28BF78C1FBD840
:1001F000520728BF30C148BF0B607047642900F028
:100200000381732900F01082002070471FB503F0AE
:10021000A1FD1FBD10B510BD00F09BFA1146FFF700
:10022000F5FF01F0E5FE00F0B9FA03B4FFF7F2FFC5
:1002300003BC01F0F6FC00002A4B19680868B0E81E
:10024000F04F80F30988BFF36F8F4FF0000080F309
:10025000118870470000000006480068006880F3BD
:10026000088862B661B6BFF34F8FBFF36F8F00DFB0
:1002700000BF00BF08ED00E0DFF80C00016841F4AA
:1002800070010160704700BF88ED00E0EFF3098066
:10029000BFF36F8F134B1A681EF0100F08BF20EDCD
:1002A000108A20E9F04F106008B44FF0500080F33E
:1002B0001188BFF34F8FBFF36F8F02F01BFF4FF01A
:1002C000000080F3118808BC19680868B0E8F04F96
:1002D0001EF0100F08BFB0EC108A80F30988BFF33E
:1002E0006F8F704724000020EFF3058070470000F7
:1002F0000948804709480047FEE7FEE7FEE7FEE7BA
:10030000FEE7FEE7FEE7FEE7FEE7FEE704480549F5
:10031000054A064B70470000A9170008890100082C
:10032000F0550020F05B0020F0570020F05700202F
:10033000704700000FB4044910B503AA029800F0FA
:1003400077F910BC5DF814FB200000202DE9F04186
:100350000E460446002020622046E168884730B3FC
:10036000252805D0D4E901219047206A401CF2E7F6
:10037000E168204600278847050018D0A5F1410014
:10038000192802D820354FF4006732462946204606
:100390002760FFF733FF40B1012804D0F61D26F097
:1003A00007060836D8E7361DD6E72846DAE7206A7A
:1003B000BDE8F08170B50C460546012A05D02878C5
:1003C000800600D5EA69002302E0012305E05B1CFA
:1003D000934202D2E05C0028F9D1A869E618C01A5D
:1003E000A861286A184428622846AFF3008004E018
:1003F000D5E9012114F8010B9047B442F8D32846FF
:10040000AFF3008070BD00002DE9F04106460024E6
:1004100010687529314616A510D0AFF3008000286A
:1004200002DA404213A507E031688A0701D512A518
:1004300002E0490704D511A5012401E0AFF30080D3
:1004400000210A2206F1240709E0B0FBF2FCB0FB10
:10045000F2F302FB1C00303078541846491C002887
:10046000F3D123462A463046BDE8F04100F059B8A2
:10047000000000002D0000002B0000002000000004
:10048000032A40F2308010F0030C00F0158011F8C0
:10049000013BBCF1020F624498BF11F801CB00F898
:1004A000013B38BF11F8013BA2F1040298BF00F8EC
:1004B00001CB38BF00F8013B11F0030300F0CA8004
:1004C000083AC0F0088051F8043B083A51F804CBD0
:1004D000A0E80810F5E7121D5CBF51F8043B40F896
:1004E000043BAFF30080D20724BF11F8013B11F8A1
:1004F00001CB48BF11F8012B24BF00F8013B00F8E5
:1005000001CB48BF00F8012B704702F0FF0343EA1C
:10051000032242EA024200F0D1B8704770477047A8
:1005200070472DE9F0470D4699469246044600F182
:1005300024080168880604D5E06921F010012160D3
:1005400000E00120A84201DD471B00E00027A1696F
:100550007A1902EB0900081AA0612078C00602D4BB
:100560002046AFF30080002608E0D4E901211AF804
:1005700006009047206A401C761C20624E45F4DB42
:100580002078C0060AD52046AFF3008006E0D4E903
:10059000012130209047206A401C2062381EA7F1BC
:1005A0000107F4DC07E0D4E9012118F805009047C1
:1005B000206A401C2062281EA5F10105F3DC2046BC
:1005C000AFF300802078000602D50220BDE8F08756
:1005D0000120FBE701694A1C02610878704700B5F9
:1005E0008FB0CDE901310021059105497944CDE96C
:1005F000031011466846FFF7A9FE0FB000BD0000CA
:10060000E5FFFFFF10B5436913B1AFF3008001E0D0
:10061000FFF7D0FE012010BD127800F124010A700E
:1006200000224A700122EDE711684FF0FF32E9E73E
:10063000074B70B50D467B44FFF7D1FF04462846B3
:1006400000F05CF810B14FF0FF3070BD204670BD77
:10065000A319000010B5203AC0F00B80B1E8185083
:10066000203AA0E81850B1E81850A0E81850BFF49C
:10067000F5AF5FEA027C24BFB1E81850A0E818503B
:1006800044BF18C918C0BDE810405FEA827C24BF8F
:1006900051F8043B40F8043B08BF7047D20728BF1D
:1006A00031F8023B48BF11F8012B28BF20F8023B6C
:1006B00048BF00F8012B70474FF000020429C0F03A
:1006C000128010F0030C00F01F80CCF1040CBCF180
:1006D000020F18BF00F8012BA8BF20F8022BA1EBD6
:1006E0000C0100F011B85FEAC17C24BF00F8012BB7
:1006F00000F8012B48BF00F8012B7047007B00F089
:10070000800070474FF0000200B5134694469646AD
:10071000203922BFA0E80C50A0E80C50B1F1200114
:10072000BFF4F7AF090728BFA0E80C5048BF0CC0C2
:100730005DF804EB890028BF40F8042B08BF704720
:1007400048BF20F8022B11F0804F18BF00F8012B92
:100750007047754600F02CF8AE46050069465346D2
:1007600020F00700854618B020B5FFF7CFFDBDE8A3
:1007700020404FF000064FF000074FF000084FF008
:10078000000B21F00701AC46ACE8C009ACE8C00999
:10079000ACE8C009ACE8C0098D46704710B5044606
:1007A000AFF300802046BDE81040FFF73EBD0000DB
:1007B000004870479055002030B585B000218DF875
:1007C00008108DF80910F0EE602A0821F0EE414A79
:1007D0008DF80A10F0EE400A9FED484A0090B0EE06
:1007E000440A01F00EFA9FED461AF0EE410A01F0BC
:1007F00010FAF0EE403AF0EE620ABBEE0E0A01F09B
:1008000000FAF3EE0E0A01F004FAF0EE640ADFEDEE
:100810003D4AB0EE403AB0EE640A01F0F2F99FEDC5
:100820003A5AF0EE450A01F0F4F9F0EE402AF0EE03
:10083000610AB0EE640A01F0E4F9F1EE040A01F095
:10084000E8F9F0EE401AF0EE420ABBEE020A01F0BF
:10085000D8F9F3EE020A01F0DCF9B0EE402A1020DC
:10086000F0EE440AB0EE630A01F0A4FB03460C204C
:10087000B3EE0E1AFBEE0E0AB0EE430A01F09AFB3D
:1008800005460C20B0EE451AF0EE640AB0EE620A9E
:1008900001F090FB02460C20B1EE041AF0EE640A5F
:1008A000B0EE610A01F086FB04460C20B3EE021A9A
:1008B000FBEE020AB0EE420A01F07CFB0146180A88
:1008C0008DF80B008DF80C3028098DF80D002801EB
:1008D00040EA22208DF80E0020098DF8100020013A
:1008E00040EA21208DF811008DF812108DF80F20AC
:1008F0006946064800F0ADFA05B030BD0000BFC241
:100900000000BF42000000000000FA430068004001
:1009100030B5C17A2F4A9FED302ADFED302A032906
:100920002CD0042929D18189F2EE090A4BBA817BA6
:10093000BAEE090A0C01C17B007C44EA111401F0F3
:100940000F0140EA01251021184602F083F882EDDC
:10095000070A0C21F0EE420AB0EE620A204602F0CD
:1009600079F882ED080A0C21F3EE020ABBEE020AC6
:10097000284602F06FF882ED090A30BD8189F2EE57
:10098000090A4BBA817BBAEE090A0C01C17B007CD3
:1009900044EA111401F00F0140EA01251021184624
:1009A00002F058F882ED000A0C21F0EE420AB0EE97
:1009B000620A204602F04EF882ED010A0C21F3EEA5
:1009C000020ABBEE020A284602F044F882ED020A4F
:1009D00030BD0000DC5400200000FA430000FAC3E0
:1009E000FEE7000010B50B4C86B00221204600F057
:1009F00009F900280BD06A460021204600F0D2F900
:100A0000684601F0B5F80221204600F043F806B030
:100A100010BD00000064004010B5074C01212046C5
:100A200000F0F0F8002805D02046BDE81040012174
:100A300000F030B810BD00000064004010B50B4C51
:100A400086B00221204600F0DDF800280BD06A466F
:100A50000021204600F0A6F96846FFF759FF022161
:100A6000204600F017F806B010BD000000680040F6
:100A700010B5074C0121204600F0C4F8002805D02D
:100A80002046BDE81040012100F004B810BD000070
:100A90000068004030B5082310240422B1F5007F1F
:100AA0001DD010DC202929D007DC012921D0042900
:100AB00022D0082900D1C46030BD402920D0B1F532
:100AC000807FF9D10BE00025B1F5004F06D008DC9E
:100AD000B1F5806F03D0B1F5006FEDD18561426053
:100AE00030BDB1F5803F0DD0B1F5003FF8D1446085
:100AF00030BD0549816030BDC36030BD036130BD8C
:100B0000046130BD436030BD01010100094910B5E9
:100B100088424FF0010101D14C0601E04FF08064A2
:100B2000204600F0ADFD2046BDE81040002100F059
:100B3000A7BD000000640040F0B5827A2F4D01216E
:100B400091402A6842F001022A602C4E1C3632681D
:100B50008A433260294A047B294B0C32A4B91468B9
:100B60008C4314604488C78844EA0744877A03EBBF
:100B7000C707C7F840460488878844EA0744877A4D
:100B800003EBC707C7F84446047B012C12D1146855
:100B90000C431460847A026803EBC4044FEA3242C7
:100BA000C4F84026847A426803EBC4034FEA324219
:100BB000C3F84426114AC37A121D002B136806D0CD
:100BC0000B4313600D4A0389143213B104E08B43C5
:100BD000F7E713688B4313600389012B02D1136875
:100BE0000B431360407B012802D13068084330601A
:100BF000286820F001002860F0BD00000066004079
:100C0000006000400246002053690B424AD0B1F513
:100C1000807F3BD013DC08292ED007DC012926D0A9
:100C2000022927D004293DD1D0682BE0102925D0F6
:100C3000202926D0402935D11069102130E0B1F5A6
:100C4000004F2BD00BDCB1F5007F22D0B1F5806FC7
:100C500022D0B1F5006F25D19069702120E0B1F567
:100C6000803F11D0B1F5003F1CD15068E5E7906896
:100C70000D4915E0D06802E0D068DEE71069032175
:100C80000EE0106908210BE05068FBE79069012134
:100C900006E09069022103E0906900E050680421B9
:100CA00000F029B97047000001010100002A4269E3
:100CB00001D00A4300E08A434261704710B50368DF
:100CC000002223F002030360036843F00103036082
:100CD0004FF6FF7300E0521C4468E40701D19A42CA
:100CE000F9D14268D2073ED08A79012A02683CD005
:100CF00022F080020260CA79012A026838D022F00C
:100D0000400202600A7A012A026834D022F02002EE
:100D100002604A7A012A026830D022F01002026092
:100D20008A7A012A02682CD022F008020260CA7A6C
:100D3000012A026828D022F0040202608A78CC7866
:100D4000920742EA04620C7942EA04424C7909882B
:100D500042EA0452491E0A43C261016821F00101BE
:100D60000160002114E0002010BD42F08002C1E7C4
:100D700042F04002C5E742F02002C9E742F010020B
:100D8000CDE742F00802D1E742F00402D5E7491C62
:100D90004268D20701D09942F9D14068C007E2D138
:100DA000012010BD10B500EB0113D3F8B04114F0D1
:100DB00004041472D3F8B04133D0E4085460D3F87B
:100DC000B04104F002045472D3F8B44104F00F04AB
:100DD0009472D3F8B441240AD474D3F8B841D472CD
:100DE000D3F8B841240A1473D3F8B841240C5473CF
:100DF000D3F8B841240E9473D3F8BC41D473D3F81C
:100E0000BC41240A1474D3F8BC41240C5474D3F8A4
:100E1000BC311B0E937439B1016941F020010161AD
:100E200010BD640D1460CAE7C16841F02001C160C3
:100E300010BD00218171C171017241728172C17254
:100E40008170C17003210171022141710121018072
:100E5000704730B50246002093685B0108D4906863
:100E6000000101D5012003E09068C00037D50220C1
:100E700002EB0012D2F8803103F00103C2F8803196
:100E80000B7A73B3D2F880414D681C434B7A43EA26
:100E9000C5031C43C2F880418B7A03F00F038B72A9
:100EA000D2F8843123F00F03C2F88431D2F88431B0
:100EB0008C7A2343C2F88431CB7ACC6843EA04238A
:100EC000C2F88831CB7B096943EA0121C2F88C1151
:100ED000D2F8801141F00101C2F8801130BD042028
:100EE00030BDD2F880314C7A23430C8843EA445316
:100EF000C2F88031D0E7024600200A4200D001202B
:100F000070477047F0B5002201274FF0030C0B68C3
:100F100007FA02F52B40AB422CD1066853000CFABD
:100F200003F4A64306600E79D0F800E09E4046EA3E
:100F30000E0606600E79012E01D0022E12D18668AF
:100F4000A64386604E79D0F808E09E4046EA0E0639
:100F500086604668AE43466045688E799640B6B274
:100F600035434560C568A543C560CC799C40C368DE
:100F70001C43C460521C102AC9D3F0BD4B07DB0EC2
:100F80009A40C90810B500EB8100016A0F249C400B
:100F9000A1430162016A1143016210BD02460020B3
:100FA00012690A4200D001207047418370470183D3
:100FB0007047FEE700B585B000228DF808208DF857
:100FC0000920082100908DF80A100C20B3EE021AB7
:100FD000FBEE020A00F0EEFF7F21FF238DF80C30BC
:100FE0008DF80B108DF80D10F0218DF80E108DF886
:100FF0001020010A8DF811108DF812008DF80F20C5
:1010000069460248FFF725FF05B000BD00680040B3
:101010007CB50121084600F01BFB01208DF804007F
:1010200000208DF806000320074D4FF480748DF8E2
:101030000500009469462846FFF764FF21462846CC
:10104000FFF7B3FF7CBD0000000002402DED0A8BCE
:1010500086B0002601208DF808608DF809608DF8B3
:101060000A0004209FED55CADFED55CA9FED55BA21
:10107000DFED55BA9FED559ADFED559A574CDFF8E5
:101080005481DFF85491B2EE02AAA4F11805DFED05
:10109000548ADFED54AA009094ED020AF8EEC00ADB
:1010A000B0EE4C0A00F0ADFDF0EE6C0A00F0B1FDC0
:1010B000BDEEC00A84ED020AD4ED000AB0EE4B0A80
:1010C00000F09FFDF0EE6B0A00F0A3FD84ED000A36
:1010D000B0EE408AD4ED010AB0EE4B0A00F091FD6B
:1010E000F0EE6B0A00F095FDC0EE090A84ED010AEE
:1010F000B0EE682AF1EE041AB0EE6A1A022020EE71
:10110000A90AF0EE680A60EE0A2A88EE090AC5ED1F
:10111000032A20EE290A20EE0A0A85ED040AB0EE21
:10112000620AFFF749FBB0EE682AF1EE041AB0EE4E
:101130006A1AF0EE680A95ED040A0120FFF73CFBFD
:1011400002214046FFF72AFF28608DF80B00694610
:101150004846FFF77EFE207B58B3234F26734FF49B
:101160004871384600F028FCC82001F011FE00F05C
:1011700063FC40F2145001F00BFE95ED030ADFED25
:101180001B0AF1EE041AB0EE6A1A30EE200AF0EEF5
:10119000680A0220B0EE602AFFF70EFB4FF42F70B2
:1011A00001F0F6FD4FF4FA61384600F005FC00F05E
:1011B0004BFC0A2001F0ECFD6EE7000000006B44E0
:1011C0000080A7440000B4C20000B44200003443D1
:1011D000DB0F49400000024000640040B8000020DE
:1011E00000000000000034420004004066669640A3
:1011F000FEE7000010B5FFEE002A2DED028BB3EEE6
:10120000022A9FED148AF3EE021ADFED130AB0EE04
:10121000481AB7EE000A114800F0D2F80F48FFEE66
:10122000002AB3EE022AF3EE021AB0EE481ADFEDFE
:101230000C0A9FED0C0A383000F0C2F8012103209F
:1012400000F0F0FCBDEC028B0121BDE81040042051
:1012500000F0E8BC00000000CDCCCC3D14550020CF
:10126000CDCC4C3DCDCC4C3F7047000030B50F236A
:10127000C27801780125FAB1144A126801F1E0211F
:1012800002F4E062C2F5E062C2F30722C2F1040494
:10129000D3404278A24084781C401443220181F854
:1012A0000024007800F01F018D404009800000F10B
:1012B000E020C0F8005130BD01F01F008540480912
:1012C000800000F1E020C0F8805130BD0CED00E05E
:1012D0000249084302490860704700000000FA050F
:1012E0000CED00E0B4EEE00AF1EE10FA01DDB0EE34
:1012F000600AF1EE600AB4EEE00AF1EE10FA01D2F3
:10130000B0EE600A7047000030EEC00A00B580ED14
:10131000050AD0ED040A70EE600AC0ED060AD0EDB1
:10132000010A20EE800AD0ED080AFFF7DBFFD0EDBE
:10133000000A90ED061AB0EE002A00EE810AD0ED08
:10134000050A90ED031A70EE811A90ED041A41EE31
:10135000421A90ED022A02EE210AD0ED091A70EE2F
:10136000211AC0ED091A90ED0A0AF4EEC01AF1EE46
:1013700010FA01DD80ED090AD0ED091AB1EE400A3C
:10138000F4EEC01AF1EE10FA01D280ED090AF5EE82
:10139000C00A80ED031AF1EE10FAC0ED040A01DC78
:1013A000F1EE600A90ED0D0AF4EEC00AF1EE10FACB
:1013B00003D29FED020A80ED090A00BD0000000083
:1013C00080ED082AC0ED0A1A012180EC030A9FED86
:1013D0000A0A80ED0B0A80ED030A80ED040A80ED15
:1013E000090A80ED070A80ED050A80ED060A80F8FB
:1013F0003010C0ED0D2A7047000000002DE9F843C1
:1014000001250746ADF800501B4800264670ADF890
:1014100000501A4C80464FF6FF7924E0BDF80000DA
:10142000384202D0C4F8905201E0C4F89062C4F887
:101430009452052000F0A4FDC4F89462052000F049
:101440009FFDC4F89452D4F8180230B198F80110F6
:10145000BDF80020114388F80110BDF8001009EA1A
:101460004100ADF80000BDF80000FF28D6D9BDE866
:10147000F843102000F084BD845500200000404255
:1014800010B5154C0020C4F88C02102004F523740C
:1014900000F076FD0120FFF7B1FF4320FFF7AEFF1C
:1014A0000020FFF7ABFF0120FFF7A8FF0020FFF7A8
:1014B000A5FF0020FFF7A2FF0020FFF79FFF0020FD
:1014C000FFF79CFF0020FFF799FF01202060BDE897
:1014D0001040102000F054BD0000404210B5154CE3
:1014E0000020C4F88C02102004F5237400F048FD9D
:1014F0000120FFF783FF4320FFF780FF0020FFF765
:101500007DFF0020FFF77AFF5A20FFF777FF5A2070
:10151000FFF774FF5A20FFF771FF5A20FFF76EFFA5
:101520005A20FFF76BFF01202060BDE8104010201B
:1015300000F026BD0000404210B500F00DF800F0AC
:101540000BF800F009F8FFF79BFF00F027F8BDE863
:101550001040FFF7C3BF000010B50F4C0020C4F8C7
:101560008C02102004F5237400F00AFD0120FFF71F
:1015700045FF4220FFF742FF0020FFF73FFF00201A
:10158000FFF73CFF0020FFF739FF01202060BDE896
:101590001040102000F0F4BC0000404210B5144C84
:1015A0000020C4F88C02012004F52374FFF726FF05
:1015B0004420FFF723FF0020FFF720FF0120FFF763
:1015C0001DFF0320FFF71AFF0020FFF717FF002081
:1015D000FFF714FF0020FFF711FF0020FFF70EFFB9
:1015E00001202060BDE81040102000F0C9BC0000C0
:1015F000000040422DE9FC410121084600F028F896
:10160000002540208DF804500326104F00908DF8DF
:10161000056001248DF8074069463846FFF772FCE3
:101620008DF8044038208DF8065000908DF8056044
:101630008DF8074069463846FFF764FC0E213846AE
:10164000FFF7B5FCFFF778FFBDE8FC810000024022
:10165000044A0029116801D0014300E08143116070
:101660007047000030380240044A0029116801D058
:10167000014300E0814311607047000040380240A0
:10168000044A0029116801D0014300E08143116040
:1016900070470000203802400CB500222749009214
:1016A0000192086840F4803008604FF4A043086855
:1016B00000F4003001900098401C0090019810B98F
:1016C00000989842F3D10868800334D50120019036
:1016D0001A484030026842F080520260184802689E
:1016E00042F4404202601548083002680260026815
:1016F00042F400420260026842F4A0520260031FFA
:10170000104A1A600A6842F080720A600A68920100
:10171000FCD50D4940F205720A60016821F0030111
:101720000160016841F0020101600168C1F38101BB
:101730000229FAD10CBD01920CBD00000038024014
:101740000070004008544007003C02401CB50121D5
:101750000846FFF77DFF0220009000208DF804006E
:1017600003208DF8050001208DF807006946024826
:10177000FFF7C8FB1CBD0000000002404FF0E02155
:101780000428086903D020F004000861704740F085
:101790000400FAE710B502F081F8012803D0BDE893
:1017A000104001F06FBD10BD124810B5016841F442
:1017B000700101601048016841F0010101600E4AAA
:1017C00000210832116002680C4B1A400260031DB0
:1017D0000B4A1A60026822F48022026006480C302C
:1017E0000160FFF759FF03494FF00060803908603E
:1017F00010BD000088ED00E000380240FFFFF6FE5B
:101800001030002410B50A4C0121204600F083F866
:10181000012807D107490A684868521C40F10000B6
:101820000A6048602046BDE81040012100F066B81B
:1018300000040040980000202DE9F0410E4680464B
:101840008AB001210220FFF70FFF01210220FFF7DC
:10185000FFFE234D022200212846FFF78FFB0222C4
:1018600001212846FFF78AFB022003228DF8180089
:101870008DF8192000248DF81A40012705928DF863
:101880001B7005A92846FFF73DFB164DADF81C60FF
:10189000ADF81E40CDF82080ADF8244007A92846B9
:1018A00000F08CF86020ADF800004FF47A700290E0
:1018B000ADF80270ADF80C406946284600F038F8E3
:1018C0000821284600F072F80121284600F00CF8A3
:1018D0000121284600F015F80AB0BDE8F0810000AB
:1018E00000040240000400400029018802D041F0B9
:1018F000800101E021F0800101807047C94301822D
:1019000070470029018802D041F0010101E021F077
:1019100001010180704702460020138A92890B4220
:1019200002EA010202D0002A00D001207047000024
:1019300070B5028C22F480720284028C8388848BBE
:101940000D8824F0730425438E894FF6FF7422F42A
:10195000007204EA062616434A8804EA0222324349
:10196000104EB04202D0104EB04215D122F40066A3
:10197000CA8923F4405304EA0222324322F48066E7
:101980008A8804EA022232430E8A04EA06161E43BB
:101990004B8A04EA03133343838085838968C163D8
:1019A000028470BD0000014000040140828B22F0DF
:1019B00008020A4382837047C163704730B50288CA
:1019C000164C174DA0420DD0A8420BD0B0F1804F5D
:1019D00008D0144B984205D0134B984202D0134BB9
:1019E000984203D122F070034A881A43104B984260
:1019F00006D0104B984203D022F440730A891A4350
:101A000002804A68C2620A880285A04201D0A842C8
:101A100001D1897A01860121818230BD0000014017
:101A2000000401400004004000080040000C004099
:101A300000100040001400404FF480710148FFF78F
:101A4000B4BA0000000002404FF480710148FFF773
:101A5000AEBA000000000240174F194D174CA7F115
:101A6000180605F13808B868A0F56B7000EE100A8A
:101A70001348F8EEC00AC6ED050AC4ED050AB1EE3A
:101A8000600A84ED0C0A94ED010AFFF73DFCD4EDE9
:101A90000C0A94ED080A4046FFF736FC95ED090A5A
:101AA0000320FFF787FA95ED170A0420FFF782FA63
:101AB000052001F06DF9D6E7B8000020DC540020C5
:101AC0001455002070B5154C40F22551204600F009
:101AD0002BF800280ED0204600F045F8104AC1B27D
:101AE0001088030406D444044FF0000306D50A29E5
:101AF00001D0138070BD40F400400DE00D2909D0E5
:101B0000C0F30D04074D401C80B229551080C72832
:101B1000EFD870BD40F48040108070BD00100140CF
:101B20001C000020C800002070B501F01F05012630
:101B30000024C1F3421306FA05F2012B0FD0022B49
:101B40000FD0838A4FEA11210088134206FA01F66A
:101B500000EA060001D000B10124204670BD83894F
:101B6000F0E7038AEEE78088C0F3080070470000C2
:101B700070B52DED028B016849B102292DD00329E2
:101B800028D1BDEC028BBDE87040FFF75DBF30F897
:101B90000B1F174C4ABA41889FED168A4DBA8188AF
:101BA000DFED158A49BAA160807920731021F0EE2B
:101BB000480AB0EE680A104600F04CFF84ED000AB7
:101BC0001021F0EE480AB0EE680A284600F042FF05
:101BD00084ED010ABDEC028B70BD084904481EC9A2
:101BE00080E81E00BDEC028BBDE87040FFF724BF0B
:101BF000B80000200000B4420000B4C2603D0008FC
:101C0000FEE7B4EEE00AF1EE10FA01DAB0EE600A97
:101C10007047B4EEE00AF1EE10FA01D9B0EE600AB6
:101C20007047704700B585B000220090FF208DF806
:101C300008208DF8092008228DF80C008DF80D0081
:101C40008DF80A208DF80E008DF810008DF80B002D
:101C50008DF80F008DF81100012905D0022905D05B
:101C600003290AD1FE2002E0FC2000E0FD208DF8CF
:101C7000120069460248FFF7ECF805B000BD00000D
:101C80000068004010B54FF44070FFF721FBA8201A
:101C900000F03EF900F034F800F0B4F801210846F5
:101CA000FFF7C0FF01210220FFF7BCFF4FF4FA74D9
:101CB000204600F049F903210120FFF7B3FF03217B
:101CC0000220FFF7AFFF204600F03EF9FFF7A0F932
:101CD000532144F61F60FFF7AFFDA1000748FFF74F
:101CE0006BFEFFF787FCFFF731FD40F2DC5000F0A0
:101CF0002BF9BDE81040FFF77DBA0000000400405A
:101D000070B501218AB00846FFF7A2FC0121480600
:101D1000FFF7AAFC394C09220B212046FFF72EF9C8
:101D200009220C212046FFF729F94FF4C0510891F0
:101D300002218DF8241008A92046FFF7E3F8304E61
:101D40003046FEF7E3FE6846FFF773F800248DF88F
:101D500006408DF8074008208DF808408DF80240B5
:101D60008DF8040003218DF809408DF803408DF8AB
:101D70000A4001258DF80510ADF800108DF80B50C4
:101D800069463046FEF79AFF8DF816408DF81740E9
:101D90008DF81850ADF80C40ADF81040ADF80E407D
:101DA000ADF81240ADF814408DF8195003A8FEF7B5
:101DB000C3FE14208DF81C008DF81D508DF81E40B8
:101DC0008DF81F5007A8FFF751FA13208DF81C005B
:101DD0008DF81D508DF81E508DF81F5007A8FFF785
:101DE00045FA012202213046FEF760FF012211462A
:101DF0003046FEF75BFF0AB070BD000000000240F5
:101E000000640040F0B58BB001210220FFF720FCF8
:101E100001214806FFF728FC01218806FFF724FC72
:101E2000394D09220C212846FFF7A8F809220D2177
:101E30002846FFF7A3F84FF44051022408918DF88B
:101E4000244008A92846FFF75DF840208DF81C00C3
:101E500001258DF81D508DF81E408DF81F5007A8E4
:101E6000FFF704FA3F208DF81C008DF81D50032663
:101E70008DF81E608DF81F5007A8FFF7F7F9234F64
:101E80003846FEF743FE6846FEF7D3FF00248DF880
:101E900006408DF807408DF8084008208DF809406D
:101EA0008DF802408DF804008DF80A408DF803404B
:101EB0008DF80B508DF80560ADF800606946384626
:101EC000FEF7FCFE0E208DF816008DF817408DF8F9
:101ED0001850ADF80C40ADF81040ADF80E40ADF81C
:101EE0001240ADF814408DF8195003A8FEF724FEF7
:101EF000012202213846FEF7D9FE0122114638465A
:101F0000FEF7D4FE0BB0F0BD0004024000680040B4
:101F100010B504460420FFF731FC0A484FF47A71EB
:101F2000047014FB01F1012242804FF0E0200269AD
:101F300042F0020202614161016941F00101016167
:101F400010BD00001800002070B5044601F0A6FC8A
:101F500001280CD0094D6888844203D3B4FBF0F00B
:101F600000F016FF6888B4FBF0F100FB11444FF459
:101F70007A706043BDE8704000F002B8180000209D
:101F800070B54FF0E02500216C69094AAB69127801
:101F90005043AA699A42FCD002D2A3EB020302E0AA
:101FA000A4EB02063344194413468142F1D370BDB9
:101FB00018000020012131EE601A814070EE600AA5
:101FC000491E00EE101AB8EEC00A20EE800AC0EEDC
:101FD000010ABDEEE00A10EE100A704703490A88B4
:101FE0005206FCD5C2B28A80704700000010014042
:101FF0001CB507490120CDE900010023802205A17D
:10200000074801F01FFC01F023F800201CBD000070
:102010000000002073746172745F7461736B000060
:10202000E12900082DE9F041184E0F460446F568F5
:102030003068001D00F022FD38B9306890F82C108F
:1020400001208840316981433161601C07D137B17B
:102050003168BDE8F0410E48091D00F047BD306809
:102060002C44AC424460316805D2B06BBDE8F0410D
:10207000091D00F023BD706B091D00F01FFDB06A43
:10208000844200D2B462BDE8F08100002400002048
:10209000A00400202DE9F041054600F033FD2D4E4F
:1020A000B068401CB06030682B4F10B1706930B31D
:1020B0002BE03560B068012827D1002404EB8400B0
:1020C00007EB800000F0ECFC641C202CF6D32348C6
:1020D00000F0E6FC2148143000F0E2FC1F482830F4
:1020E00000F0DEFC1D483C3000F0DAFC1B485030AC
:1020F00000F0D6FC194870631430B06305E0306816
:10210000E96AC06A884200D83560706A0121401CC3
:1021100070626864E86A326981401143316100EBA2
:10212000800007EB8000291D00F0E0FC00F026FD98
:10213000706900280CD03068E96AC06A884207D20A
:1021400007494FF080500860BFF34F8FBFF36F8F88
:10215000BDE8F08124000020D001002050040020C0
:1021600004ED00E010B500F0CDFC0E4C2068A0B9E5
:102170000D4800F095FC0C48143000F091FC0A4822
:10218000E0601430206100221021052001F090F859
:10219000206010B105A100F0C7FDBDE8104000F0BF
:1021A000EDBC000060000020B4040020546D7251AA
:1021B0000000000070B5124E124D1CE000F092FFBE
:1021C000306820B1002401F097FCA4B901E001249B
:1021D000F9E700F097FCF068C468201D00F04EFCA1
:1021E000A868401EA8606868401E686000F0C6FCD1
:1021F000204600F052F868680028DFD170BD00006A
:102200008C0400202400002030B4026C0B46002A0D
:102210000BD0C1681144C1604468A14201D3016878
:10222000C16030BC1846FEF72BB930BC70472DE9B1
:10223000F041856B174604460026026C82B1C7B197
:10224000E068FEF71DF9E168206C091AE160226878
:10225000914202D26168081AE060022F16D017E09E
:102260002068A8B9606801F0A1FB06460020606004
:102270000EE0A068FEF704F9216CA0680844A06095
:102280006168884204D32068A06001E005B16D1E3A
:102290006D1CA5633046BDE8F08110B50446006BA7
:1022A00000F09EFC2046BDE8104000F099BC000004
:1022B00010484FF4A041420706D0C01D0D4920F040
:1022C0000700411AC1F5A0410B4A00230144C2E9AD
:1022D00000030839103A21F0070111604B600B60D0
:1022E0000B1AC0E9001393604FF000405360D060B8
:1022F00070470000DC04002090000020074E4FF0E3
:102300008054074DFFF756FF30680128FAD92C603A
:10231000BFF34F8FBFF36F8FF4E70000D0010020B1
:1023200004ED00E02DE9F047DDE909840E4617468B
:10233000824691009946089DA522206BFEF7E5F89C
:102340006FF00301206B01EB8701084420F00707C1
:10235000780705D040F22B3219A11EA0FDF7EAFF45
:1023600000202218315C82F83410315C11B1401C1D
:102370001028F6D3002684F84360202D00D31F25B3
:10238000E562C4E91356201D00F095FB04F1180026
:1023900000F091FB2461C5F120006462A0616665D4
:1023A00084F858604A465146384600F003FB2060E6
:1023B000B8F1000F01D0C8F80040BDE8F087000078
:1023C0002E2E5C4672656552544F535C7461736B7C
:1023D000732E63004572726F723A25732C25640D5B
:1023E0000A00000030B5114900E011460A68824237
:1023F000FBD34B685C18844203D1406818444860A2
:10240000084643681C18944209D1084C103C2468C3
:10241000A24209D052681A4442600A6812680260F7
:10242000814200D0086030BD0460F9E790000020D0
:1024300070B5002441600B4D0061914206D8D11A5D
:102440008269914206D2011D286907E09A4203D2AF
:10245000994201D3012403E0011DE86800F02EFB3E
:10246000204670BD6000002010B5044600F04AFB15
:10247000A06B20B1002400F081FB204610BD012498
:10248000F9E700002DE9F34100980F460026846C1F
:102490002CB940F6CE1216A11AA0FDF74BFFA06B87
:1024A000E16B884205D340F6CF1211A115A0FDF7CC
:1024B00041FFA06BE16B88420CD294F945503A463B
:1024C00069462046FFF7B3FE0646681C05D06D1C22
:1024D00084F845503046BDE8FC81606A0028F9D098
:1024E00004F1240001F0BCFA0028F3D00126F1E742
:1024F0002E2E5C4672656552544F535C717565753E
:10250000652E63004572726F723A25732C25640D37
:102510000A000000F8B5054614480E46C068C068B9
:10252000C468201D00F0AAFAE069012817D1A0694B
:102530002B46411932462046FFF77AFF78B100203A
:102540000346014600902A46204601F0BBFB30B905
:1025500007494FF4027201F11800FDF7EBFE616AC2
:1025600001B02046BDE8F0400847000060000020B0
:10257000283C000870B586B02F4E53E00198002823
:1025800006DADDE90301029A90470198002849DB49
:10259000039C606910B1201D00F070FA05A800F0DE
:1025A000A7F8054601980A283CD2DFE800F00505A7
:1025B000053B273805053B270298A16903460144DE
:1025C0002A462046FFF734FF00282BD0616A2046B8
:1025D0008847E069012825D1002000900298A16970
:1025E000002342181946204601F06CFBD0B940F296
:1025F000213212A117A0FDF79DFE13E00298A06101
:1026000028B94FF44E720DA112A0FDF793FEA069F8
:102610002B4641191A462046FFF70AFF02E02046E2
:1026200000F0DEFA00231A4601A9306800F07CFEB3
:102630000028A3D106B070BD600000202E2E5C469D
:1026400072656552544F535C74696D6572732E6385
:10265000000000004572726F723A25732C25640DDC
:102660000A000000F8B50D46064600F03BFD68463E
:1026700000F03EF80446009810B101F03DFAF8BDB4
:102680001148ADB101690968D9B10025311B2A464D
:10269000006800F05BFB01F02FFA0028EFD10B4936
:1026A0004FF080500860BFF34F8FBFF36F8FF8BDBE
:1026B000A642EBD801F020FA21463046FFF72AFF68
:1026C000F8BD0125E2E700006000002004ED00E015
:1026D0000648416B096829B1416BC968C9684968F6
:1026E000816270474FF0FF31FAE7000024000020BC
:1026F00070B5054601F0E0F8064E0446B068844225
:1027000003D200F009F8012000E0002028602046F4
:10271000B46070BD60000020F8B5184E26E0C068B7
:10272000C4680568201D00F0A9F9616A2046884741
:10273000E06901281AD1A0692844A84206D9246179
:102740006060211DF06800F0B9F90FE00020034639
:10275000014600902A46204601F0B4FA30B90849F3
:1027600040F2923201F11800FDF7E4FDF0680168D3
:102770000029D4D13169C6E90310F8BD60000020FA
:10278000283C000808484068401C05D040F20F1261
:1027900006A111A0FDF7CEFD502080F31188BFF3F4
:1027A0004F8FBFF36F8FFEE7740000202E2E5C4624
:1027B00072656552544F535C706F727461626C65E0
:1027C0005C525644535C41524D5F434D34465C70FD
:1027D0006F72742E630000004572726F723A257337
:1027E0002C25640D0A000000084CE068016839B12E
:1027F000002139B10020FFF735FFFFF7BBFEF4E7FA
:102800000121F6E7C0680068F5E7000060000020DD
:102810002DE9F041044600F075F994F9455004F1B2
:10282000240610E0A06C20B100212046FFF72AFE0C
:1028300004E0606A48B1304601F012F908B100F0D6
:1028400043FB6D1E6DB2002DECDC4FF0FF3684F8BB
:10285000456000F093F900F055F994F9445004F103
:10286000100709E0206948B1384601F0F9F808B1CD
:1028700000F02AFB6D1E6DB2002DF3DC84F844607D
:10288000BDE8F04100F07AB92DE9F0410546002697
:1028900000F028FC324F386808B9FFF709FDF868E6
:1028A00005424FD1002D4DD0083568070BD005F0FB
:1028B0000700C0F108000544680704D0BF2229A121
:1028C00032A0FDF737FD002D3CD07868854239D81D
:1028D000234910310846046801E021460446606837
:1028E000A84202D220680028F7D13868B84684424E
:1028F00028D00E682068086060680836401B1028E1
:102900000ED96719780704D0EC2216A11FA0FDF795
:1029100011FD6068401B786038466560FFF762FD16
:102920006168D8F804004246401AC8F80400D8F894
:102930000830984200D29060D8F80C000143002083
:10294000C4E9000101F0D8F8700705D04FF4967281
:1029500004A10EA0FDF7EEFC3046BDE8F0810000BA
:10296000800000202E2E5C4672656552544F535CE9
:10297000706F727461626C655C4D656D4D616E6700
:102980005C686561705F342E630000004572726F91
:10299000723A25732C25640D0A000000044908686A
:1029A00018B10868026D521C026508687047000083
:1029B0002400002010B5031F4FF080741C601B1F03
:1029C00021F001011960191F044B0B6014390A60D2
:1029D000091F6FF0020244380A6010BD8527000805
:1029E0001CB5FFF74FF900F08DF80E490420CDE932
:1029F0000001002380220CA10E4800F023FF0949AA
:102A00000220091DCDE90001002380220AA10F4800
:102A100000F018FF0E48006800F0F0F9BDE81C4017
:102A200000F0ACB8A40000204D61696E5F74617362
:102A30006B0000004D10000855334D6F746F725FCE
:102A40004472697665725F7461736B00591A00088D
:102A50000000002001EE100A70EEC00A0120B8EE5E
:102A6000C11A8840401E21EE201A00EE900AF8EEAE
:102A7000E01AC1EE210A30EE800A7047D0E9013237
:102A800001699A60D0E901235A604A68824201D103
:102A900082684A60002202610868401E0860704730
:102AA00000F108014FF0FF32C0E90112C16001617D
:102AB00000210160704700210161704730B50C684A
:102AC000621C02D000F1080202E0026904E01A462A
:102AD00053681D68A542FAD953684B6099608A60B3
:102AE000516008610168491C016030BD42684A605C
:102AF00093688B6093685960916008610168491C14
:102B000001607047502080F31188BFF34F8FBFF3EF
:102B10006F8F09494868401C486001280AD107485E
:102B2000006810F0FF0F05D040F2B91204A10FA009
:102B3000FDF700BC704700007400002004ED00E0C9
:102B40002E2E5C4672656552544F535C706F7274E2
:102B500061626C655C525644535C41524D5F434D1B
:102B600034465C706F72742E630000004572726FA1
:102B7000723A25732C25640D0A00000010B5084C2C
:102B8000606828B94FF4E07206A111A0FDF7D2FBEE
:102B90006068401E606001D180F3118810BD0000A4
:102BA000740000202E2E5C4672656552544F535CB3
:102BB000706F727461626C655C525644535C415232
:102BC0004D5F434D34465C706F72742E630000009D
:102BD0004572726F723A25732C25640D0A0000004D
:102BE00070B500282AD0164DA0F108046068E96885
:102BF000084205D14FF4A07212A11CA0FDF79AFB68
:102C0000206828B140F241120EA118A0FDF792FBF6
:102C10006068E968084211D02268002A0ED1884312
:102C2000606000F05FFA6068696808446860204688
:102C3000FFF7D8FBBDE8704000F05EBF70BD00003C
:102C4000800000202E2E5C4672656552544F535C06
:102C5000706F727461626C655C4D656D4D616E671D
:102C60005C686561705F342E630000004572726FAE
:102C7000723A25732C25640D0A00000006484FF4B3
:102C80007A710068B0FBF1F14FF0E020491E41611C
:102C900007210161704700000400002010B5FDF716
:102CA00023FB104C10280CD300F1E02090F8F00327
:102CB0002178884205D24FF440720BA115A0FDF790
:102CC00039FB18480068A16800F4E060884207D921
:102CD000BDE810404FF4447203A10EA0FDF72ABBDB
:102CE00010BD0000740000202E2E5C4672656552F7
:102CF000544F535C706F727461626C655C525644E1
:102D0000535C41524D5F434D34465C706F72742E7C
:102D1000630000004572726F723A25732C25640DB2
:102D20000A0000000CED00E010B5074B002253F83C
:102D300032401CB1521C082AF9D310BD43F832109E
:102D400003EBC201486010BD9001002070B515462C
:102D50000E460446FFF7D6FE94F944100020491CA5
:102D600001D184F8440094F94510491C01D184F83C
:102D70004500FFF703FFA06B28B92A46314604F14E
:102D8000240000F0D1F82046BDE87040FFF740BDB8
:102D900010B5040012D00E49096B29B140F2CF42A0
:102DA0000CA111A0FDF7C6FA00F09CF90021204605
:102DB000FFF738F900F0A0FE002807D10E494FF0C8
:102DC00080500860BFF34F8FBFF36F8F10BD0000BE
:102DD000240000202E2E5C4672656552544F535CD1
:102DE0007461736B732E63004572726F723A257350
:102DF0002C25640D0A00000004ED00E070B50446C7
:102E0000FFF780FE234D04B92C68201DFFF736FE26
:102E100058B9E06A204A00EB800152F8211021B92C
:102E200001218140286988432861A06A18B104F112
:102E30001800FFF723FE686A401C68622868844215
:102E400007D1211D1548FFF751FE6868401C6860D6
:102E500007E0A868401EA8602046FFF71EFAFFF7AB
:102E600037FCFFF78BFE6869002812D0286884427F
:102E70000FD1286B28B140F2654209A10DA0FDF7E2
:102E800059FA10494FF080500860BFF34F8FBFF3DD
:102E90006F8F70BD24000020D00100208C04002022
:102EA0002E2E5C4672656552544F535C7461736B91
:102EB000732E63004572726F723A25732C25640D70
:102EC0000A00000004ED00E001490120C8617047DC
:102ED0002400002070B50D46040005D140F60632EE
:102EE00007A10CA0FDF726FA0E480168204618310C
:102EF000FFF7E4FD2846BDE870400121FFF792B8D6
:102F00002E2E5C4672656552544F535C7461736B30
:102F1000732E63004572726F723A25732C25640D0F
:102F20000A0000002400002070B514460E4605007B
:102F300005D140F6313209A10DA0FDF7FBF910488B
:102F4000016828461831FFF7D1FD0CB14FF0FF366C
:102F500021463046BDE87040FFF764B82E2E5C462F
:102F600072656552544F535C7461736B732E6300CA
:102F70004572726F723A25732C25640D0A000000A9
:102F80002400002070B5040039D01D4DE06A296886
:102F9000C96A884233D2A069002804DB2868C06A65
:102FA000C0F12000A061E06A164E00EB800061696C
:102FB00006EB800081421FD1201DFFF75FFD01213C
:102FC00050B9E06A00EB800256F8222022B92A6943
:102FD00001FA00F082432A612868C06AE0622A6927
:102FE00081401143296100EB800006EB8000211D28
:102FF000BDE87040FFF77ABD2868C06AE06270BD26
:1030000024000020D001002010B5040005D140F6B6
:10301000C13205A109A0FDF78DF90C48016A2160B4
:10302000C068606010BD00002E2E5C46726565525F
:10303000544F535C7461736B732E63004572726FEF
:10304000723A25732C25640D0A000000240000202C
:103050001CB517480024CDE900402346822215A163
:10306000164800F0EFFB012803D100F0F1FD012824
:103070000AD0401C1BD102B040F28472BDE810405F
:103080000FA114A0FDF756B9502080F31188BFF3AB
:103090004F8FBFF36F8F06484FF0FF312C3881629E
:1030A00001214161C460BDE81C4000F061B81CBD55
:1030B0005000002049444C4500000000FD2200085B
:1030C0002E2E5C4672656552544F535C7461736B6F
:1030D000732E63004572726F723A25732C25640D4E
:1030E0000A0000000248016B491C016370470000A0
:1030F0002400002070B5134D286B10B10120E86149
:1031000070BD0020E86128690F4EB0FA80F0C0F170
:103110001F0000EB800456F8240028B940F6F62280
:103120000AA10FA0FDF706F906EB840000F10802E2
:10313000416849684160914201D149684160C8686D
:10314000286070BD24000020D00100202E2E5C4697
:1031500072656552544F535C7461736B732E6300D8
:103160004572726F723A25732C25640D0A000000B7
:103170001CB5304C20683049884205D140F25912C4
:103180002EA139A0FDF7D6F820682B49491E8842A8
:1031900005D14FF4AD7229A133A0FDF7CBF8364C21
:1031A00020780190FF20207020788DF800009DF895
:1031B00000009DF8001000F0F000884205D040F2B9
:1031C00073121EA128A0FDF7B5F89DF800002B4A48
:1031D00000F0500010700720906007E09068401EDB
:1031E00090609DF8000040008DF800009DF8000000
:1031F0000006F3D4107A000200F4E06090600198B9
:1032000020700C482030016841F4700101600168B1
:1032100041F070410160FFF731FD00205060FDF783
:103220002BF81748016841F040410160FDF714F8A0
:1032300000201CBD00ED00E071C20F412E2E5C4647
:1032400072656552544F535C706F727461626C6545
:103250005C525644535C41524D5F434D34465C7062
:103260006F72742E630000004572726F723A25739C
:103270002C25640D0A00000000E400E0740000202A
:1032800034EF00E010B5502080F31188BFF34F8F6A
:10329000BFF36F8F00F016FB18B104494FF0805058
:1032A0000860002080F3118810BD000004ED00E0EC
:1032B0002DE9F04117460E46050005D14FF4C472C2
:1032C00010A115A0FDF736F8BEB105FB06F054308D
:1032D000FFF7DAFA04000ED004F154007EB120604A
:1032E000C4E90F562046012100F0E0F884F8507040
:1032F00000212046A164BDE8F0810020E7E72460BA
:10330000EEE700002E2E5C4672656552544F535C0A
:1033100071756575652E63004572726F723A25731B
:103320002C25640D0A0000002DE9FF4F83B09B4659
:103330008A4604004FF0000605D140F2DC4251A15C
:1033400055A0FCF7F7FFBAF1000F07D1206C28B1A8
:1033500040F2DD424BA150A0FCF7ECFF00F09EFADA
:1033600038B9059828B14FF49C6246A14AA0FCF7F1
:10337000E1FF4FF000094FF08057DFF82C81FFF795
:10338000C1FBA56B45B351462046E668FEF73CFFFE
:10339000BBF1000F13D0E660606A50B104F1240065
:1033A00000F05EFB28B1C8F80070BFF34F8FBFF389
:1033B0006F8FFFF7E3FB012007B0BDE8F08F6D1EB4
:1033C000A563206810B9FFF7E9FA6060206900285A
:1033D000EFD004F11000E3E7059808B11EB106E054
:1033E000FFF7CCFB27E06846FFF70EFE0126FFF74C
:1033F000C5FBFFF777FEFFF785FB94F94400401CFF
:1034000001D184F8449094F94500401C01D184F81E
:103410004590FFF7B3FB05A9684600F0CFF90028F7
:1034200020460AD0FFF7F4F900F066FB2046FFF7CC
:103430001BF80028A3D00020BEE7FFF715F8D8B18D
:10344000206830B9FFF75EFB6068FFF79BFDFFF770
:1034500095FB04F124000599FFF73CFD2046FFF79A
:10346000D7F900F049FB002889D1C8F80070BFF3F4
:103470004F8FBFF36F8F82E72046FFF7C9F900F047
:103480003BFB7CE72E2E5C4672656552544F535CC5
:1034900071756575652E63004572726F723A25739A
:1034A0002C25640D0A00000004ED00E070B50D4607
:1034B000040005D140F21B121CA121A0FCF73AFF29
:1034C000FFF720FBD4E90F20216802FB00116160A7
:1034D0000021A1632168A1600A46D4E90F01401EC2
:1034E00000FB0121E16021464FF0FF3001F8440F5D
:1034F000487004F110004DB1FFF7D2FA04F1240036
:10350000FFF7CEFAFFF73AFB012070BD21690029D1
:10351000F8D000F0A5FA0028F4D00D494FF0805003
:103520000860BFF34F8FBFF36F8FEBE72E2E5C4623
:1035300072656552544F535C71756575652E6300F5
:103540004572726F723A25732C25640D0A000000D3
:1035500004ED00E02DE9FF4F83B099468B4604004F
:103560004FF0000605D140F2D92252A156A0FCF737
:10357000E1FEBBF1000F07D1206C28B140F2DA2246
:103580004CA151A0FCF7D6FEB9F1020F08D1E06BB7
:10359000012805D040F2DB2246A14BA0FCF7CAFE71
:1035A00000F07CF938B9059828B140F2DE2241A13B
:1035B00045A0FCF7BFFE4FF0000A4FF08057DFF840
:1035C0001881FFF79FFAA06BE16B884206D3B9F12F
:1035D000020F03D0059800B316B325E04A465946BA
:1035E0002046FEF724FEA16C21B149462046FEF795
:1035F00049FF05E0616A19B104F1240000F030FAD6
:1036000028B1C8F80070BFF34F8FBFF36F8FFFF77B
:10361000B5FA012007B0BDE8F08FFFF7AFFA21E05F
:103620006846FFF7F1FC0126FFF7A8FAFFF75AFDFD
:10363000FFF768FA94F94400401C01D184F844A0D3
:1036400094F94500401C01D184F845A0FFF796FA93
:1036500005A9684600F0B2F830B12046FFF7D8F867
:1036600000F04AFA0020D5E7FFF74CFAA06BE16BB7
:10367000884201D1012500E00025FFF77FFA95B1CE
:1036800004F110000599FFF725FC2046FFF7C0F86C
:1036900000F032FA002894D1C8F80070BFF34F8FC1
:1036A000BFF36F8F8DE72046FFF7B2F800F024FAE2
:1036B00087E700002E2E5C4672656552544F535CBE
:1036C00071756575652E63004572726F723A257368
:1036D0002C25640D0A00000004ED00E02DE9F04700
:1036E000984615468946040005D140F29F322AA12A
:1036F0002EA0FCF71FFEB9F1000F07D1206C28B1F6
:103700004FF4687224A129A0FCF714FEB8F1020F4F
:1037100008D1E06B012805D040F2A1321EA123A000
:10372000FCF708FEFFF7BAFA5020EFF3118780F399
:103730001188BFF34F8FBFF36F8FA06BE16B88428F
:1037400007D3B8F1020F04D0002087F31188BDE839
:10375000F08794F94560424649462046FEF767FDEA
:10376000701C04D0761C84F845600120EDE7A06C45
:10377000012620B141462046FEF784FE06E0606A3D
:103780000028F2D004F1240000F06AF90028ECD0FF
:10379000002DEAD02E60E8E72E2E5C467265655259
:1037A000544F535C71756575652E63004572726F79
:1037B000723A25732C25640D0A00000070B50D4681
:1037C000040005D140F6CB3214A119A0FCF7B2FDDC
:1037D0002DB940F6CC3211A115A0FCF7ABFDFFF7D7
:1037E00091F9174AD06829684B1C0FD02368126AD8
:1037F000934202D0626882420AD96268801A884283
:1038000006D2081A28602046FFF7FEFB002400E0DD
:103810000124FFF7B3F9204670BD00002E2E5C4650
:1038200072656552544F535C7461736B732E630001
:103830004572726F723A25732C25640D0A000000E0
:10384000240000202DE9FF5F8346DDE90E879946BD
:1038500016468A469000FFF717F805001AD05C203C
:10386000FFF712F8040012D025630021CDE90241D0
:10387000CDE900874B46324651465846FEF752FD89
:103880002046FEF707FC012004B0BDE8F09F284663
:10389000FFF7A6F94FF0FF30F6E700000548416951
:1038A00019B1006B18B10020704701207047022049
:1038B00070470000240000200148C06870470000E5
:1038C000240000202DE9F0412D4F0026386B40B137
:1038D000B869401CB861F86900B101263046BDE8FE
:1038E000F081FD686D1CFD6011D1786B006828B116
:1038F00040F6D91223A128A0FCF71CFD786BB96B08
:103900007963B863386A401C3862FEF7E1FEB86A32
:10391000DFF89480854209D3786B006880B1786BBA
:10392000C068C468606885420DD2B8623868C06AF1
:1039300000EB800158F821000128CCD90126CAE704
:103940004FF0FF30F1E7201DFFF798F8A06A18B19B
:1039500004F11800FFF792F8E06A01213A6981400A
:103960001143396100EB800108EB8100211DFFF755
:10397000BDF8E06A3968C96A8842CDD30126CBE731
:10398000240000202E2E5C4672656552544F535C15
:103990007461736B732E63004572726F723A257394
:1039A0002C25640D0A000000D001002070B5040031
:1039B0004FF000063CD01F4D2868844205D040F6E9
:1039C000C7621DA121A0FCF7B5FC206D28B940F607
:1039D000C96219A11DA0FCF7ADFC206D401E206539
:1039E000E26CE16A914223D010BB201DFFF746F83C
:1039F0001A49012250B9E06A00EB800351F82330E4
:103A000023B92B6902FA00F083432B61E06CE0627A
:103A1000C0F12000A061E06A2B6982401A432A614C
:103A200000EB800001EB8000211DFFF75FF801260D
:103A3000304670BD240000202E2E5C467265655213
:103A4000544F535C7461736B732E63004572726FD5
:103A5000723A25732C25640D0A000000D001002065
:103A60002DE9F041C068C4682CB940F6613216A156
:103A70001AA0FCF75FFC04F118000746FEF7FEFFF2
:103A80001A4D286B012660B139461948FFF72EF808
:103A9000E06A2968C96A884213D90120EE61BDE84D
:103AA000F081201DFEF7EAFFE06A2A6906FA00F1BC
:103AB000114329610F4900EB800001EB8000211DBB
:103AC000E4E70020EBE700002E2E5C4672656552AD
:103AD000544F535C7461736B732E63004572726F45
:103AE000723A25732C25640D0A0000002400002082
:103AF00078040020D00100202DE9F0472B4D002450
:103B00002746286B28B94FF4FD6229A12DA0FCF7A8
:103B100011FCFEF7F7FF286B401E2863286BE8BBFB
:103B2000A8682C490126C8B3A1F52A798846D8F897
:103B30000010E9B1D8F80C00C46804F11800FEF7D1
:103B40009DFF201DFEF79AFFE06A2A6906FA00F140
:103B50001143296100EB800109EB8100211DFEF773
:103B6000C5FFE06A2968C96A8842E0D3EE61DEE7F2
:103B70000CB1FEF7ADFDAC693CB1FFF7A3FE00B19F
:103B8000EE61641EF9D10020A861E86930B11249E4
:103B9000012738070860BFF34F8F00E001E0BFF353
:103BA0006F8FFEF7EBFF3846BDE8F087240000205A
:103BB0002E2E5C4672656552544F535C7461736B74
:103BC000732E63004572726F723A25732C25640D53
:103BD0000A0000007804002004ED00E02DE9F04721
:103BE0000746994616460D462C20DDF820A0FEF724
:103BF0004BFE040014D0B8464F46D1462DB94FF4C1
:103C0000C67209A10EA0FCF795FBFEF7ABFA04F112
:103C10001801C4F8008081E8E002201DFEF74BFF88
:103C20002046BDE8F08700002E2E5C467265655286
:103C3000544F535C74696D6572732E63000000000D
:103C40004572726F723A25732C25640D0A000000CC
:103C50001CB50024FEF786FA0C48006868B10B49D1
:103C60001F20091DCDE9000100234FF4827208A135
:103C70000948FFF7E7FD040005D140F2331207A120
:103C80000CA0FCF757FB20461CBD00006000002084
:103C9000546D722053766300E92700082E2E5C468F
:103CA00072656552544F535C74696D6572732E630F
:103CB000000000004572726F723A25732C25640D66
:103CC0000A0000002DE9FF47DDF830A09946904634
:103CD0000D4606004FF0000705D14FF4D37212A134
:103CE00017A0FCF727FB1A4C206880B1CDE90058DB
:103CF0000296062D11DAFFF7D1FD02284FF00003DE
:103D000009D0002269462068FFF724FC074604B06A
:103D10003846BDE8F0875246F4E700234A46694634
:103D2000FFF7DCFCF2E700002E2E5C467265655260
:103D3000544F535C74696D6572732E63000000000C
:103D40004572726F723A25732C25640D0A000000CB
:103D5000600000204FF04070E1EE100A7047000054
:103D60000000000000000000AC03000000000000A4
:103D7000903D000800000020C8000000C4010008B9
:103D8000583E0008C8000020285B0000E001000841
:103D900000000000007A030A00000000000000009C
:103DA00001020304060708090000000000000000EB
:103DB0000000000000000000000000000000000003
:103DC00000000000000000000000000000000000F3
:103DD00000000000000000000000000000000000E3
:103DE00000000000000000000000000000000000D3
:103DF00000000000000000000000000000000000C3
:103E00000000000000000000AAAAAAAA000000000A
:103E100000000000000000000000000000000000A2
:103E20000000000000000000000000000000000092
:103E30000100000000000000000000000000000081
:103E40000000000000000000000000000000000072
:083E5000AC03000000000000BB
:040000050800018965
:00000001FF
